:020000040000FA
:040000008EEF0BF084
:100800000048756D656461640025642020002E2514
:0D08100064200054656D70002E256400000A
:10081E00000E0001896F000E886F000E8E6F000EA5
:10082E008D6F000E926E8198720ED36EC6EC0BF029
:10083E000F0EC16EF3EC0BF0DDEC0BF0B0EC0AF02A
:10084E000001866FB0EC0AF00001856FB0EC0AF083
:10085E0000018F6FB0EC0AF000018C6FB0EC0AF063
:10086E000001876F77EF05F08F5114EC0AF01E0E22
:10087E0000018F6145EF04F047EF04F087EF04F0BD
:10088E008D518E11D8A44EEF04F050EF04F087EF87
:10089E0004F0808020EEB6F010EE6AF00F0EDBCF83
:1008AE00E3FFE806FCE2000E8B6F000E8A6FACA22F
:1008BE0063EF04F065EF04F05EEF04F06A0E0001E2
:1008CE008A25D96E000E8B21DA6EDF50AD6E8A4B03
:1008DE008B2B8BBF7CEF04F08B5109E1110E8A5DDF
:1008EE00D8A07CEF04F07EEF04F05EEF04F08F51A1
:1008FE00060F8F6F000E8E6F060E8D6FF7EF04F0E2
:10090E001E0E8F618DEF04F08FEF04F0A3EF04F055
:10091E00060E8D198E11D8A497EF04F099EF04F0FE
:10092E00A3EF04F080828F51060F8F6F000E8E6F33
:10093E000C0E8D6FF7EF04F01E0E8F61A9EF04F011
:10094E00ABEF04F0BFEF04F00C0E8D198E11D8A48E
:10095E00B3EF04F0B5EF04F0BFEF04F080848F51D5
:10096E00060F8F6F000E8E6F120E8D6FF7EF04F065
:10097E001E0E8F61C5EF04F0C7EF04F0DBEF04F03D
:10098E00120E8D198E11D8A4CFEF04F0D1EF04F012
:10099E00DBEF04F080868F51060F8F6F000E8E6F87
:1009AE00180E8D6FF7EF04F01E0E8F61E1EF04F05D
:1009BE00E3EF04F0F3EF04F0180E8D198E11D8A4A6
:1009CE00EBEF04F0EDEF04F0F3EF04F080888F51BD
:1009DE00060F8F6FF7EF04F0000E896F010E886F10
:1009EE007B0E586E000E596E190E5A6E080E5B6E07
:1009FE0086C05CF05D6ADEEC0AF0000E0A6E7B0EBD
:100A0E000B6E000E0C6E000E6EEC0BF07B0E586E25
:100A1E00000E596E0E0E5A6E080E5B6E85C05CF09F
:100A2E005D6ADEEC0AF07B0E086E000E096E81EC3C
:100A3E000AF0250E03EC0CF07B0E586E000E596E6C
:100A4E00190E5A6E080E5B6E8FC05CF05D6ADEEC9E
:100A5E000AF0000E0A6E7B0E0B6E000E0C6E010E6F
:100A6E006EEC0BF07B0E586E000E596E180E5A6E11
:100A7E00080E5B6E8CC05CF05D6ADEEC0AF07B0EDD
:100A8E00086E000E096E81EC0AF0DF0E03EC0CF01E
:100A9E00430E03EC0CF07B0E586E000E596E090ED1
:100AAE005A6E080E5B6E87C05CF05D6ADEEC0AF073
:100ABE00080E0A6E010E0B6E080E0C6E000E6EEC1A
:100ACE000BF0080E0A6E130E0B6E080E0C6E010E56
:100ADE006EEC0BF0070E026ED00E016E07EC0BF0F3
:100AEE00000188518911D8B47FEF05F081EF05F030
:100AFE003BEF04F0000E896F000E886F010E026E40
:100B0E00F40E016E07EC0BF021EF04F000EF00F095
:100B1E001EC036F01FC037F020C038F021C039F0AB
:100B2E0022C03AF023C03BF024C03CF025C03DF07B
:100B3E003DBEA4EF05F0A7EF05F0010EA8EF05F0FE
:100B4E00000E346E356A34503510D8B4B1EF05F05E
:100B5E00B3EF05F0C3EF05F03D1E3C1E3B1E3A1EE3
:100B6E00391E381E371E366C000E372238223922B7
:100B7E003A223B223C223D22000195BFC9EF05F0EF
:100B8E00CBEF05F0CCEF05F05E9295BFD9EF05F0F7
:100B9E00955106E19405D8B0D7EF05F0D9EF05F0E1
:100BAE00DFEF05F0000E316E010E306EE3EF05F053
:100BBE0094C030F095C031F092C032F093C033F053
:100BCE0034503510D8A4EEEF05F0F0EF05F0F7EF46
:100BDE0005F05EA4F5EF05F0F7EF05F0FAEF05F07E
:100BEE003206D8A03306000E3F6E1F0E3E6E000E6C
:100BFE00B56F7EEF06F03E06D8A03F06960E3E2459
:100C0E00D96E000E3F20DA6E36C001F037C002F00A
:100C1E0038C003F039C004F03AC005F03BC006F00E
:100C2E003CC007F03DC008F00A0E096E000E0A6EB9
:100C3E00000E0B6E000E0C6E000E0D6E000E0E6E84
:100C4E00000E0F6E000E106E9CEC08F001C026F028
:100C5E0002C027F003C028F004C029F005C02AF016
:100C6E0006C02BF007C02CF008C02DF026C013F0E4
:100C7E0028C014F04EEC0BF01350300FDF6E300620
:100C8E00D8A031063206D8A0330636C001F037C0E0
:100C9E0002F038C003F039C004F03AC005F03BC092
:100CAE0006F03CC007F03DC008F00A0E096E000EBB
:100CBE000A6E000E0B6E000E0C6E000E0D6E000E08
:100CCE000E6E000E0F6E000E106ED8EC07F001C007
:100CDE0036F002C037F003C038F004C039F005C05A
:100CEE003AF006C03BF007C03CF008C03DF03FBEF6
:100CFE0089EF06F03F5008E13E04D8A089EF06F0D8
:100D0E008BEF06F0BBEF06F0365037103810391067
:100D1E003A103B103C103D10D8A498EF06F09AEF15
:100D2E0006F002EF06F031BEA7EF06F0315006E1F5
:100D3E003004D8B0A5EF06F0A7EF06F002EF06F0EC
:100D4E0033BEB2EF06F0335008E13204D8A0B2EF52
:100D5E0006F0B4EF06F0BBEF06F05EB2B9EF06F0A8
:100D6E00BBEF06F002EF06F034503510D8A4C2EFF8
:100D7E0006F0C4EF06F0CBEF06F05EA4C9EF06F066
:100D8E00CBEF06F0E9EF06F03E06D8A03F06345052
:100D9E003510D8A4D5EF06F0D7EF06F0DDEF06F04C
:100DAE00000E2F6E2B0E2E6EE1EF06F0000E2F6E44
:100DBE002D0E2E6E960E3E24D96E000E3F20DA6E4C
:100DCE002EC0DFFF1CC011F01DC012F0960E3E2487
:100DDE00136E000E3F20146E32C015F033C016F0A5
:100DEE00B3EC09F011C01CF012C01DF0120042C08D
:100DFE00D9FF43C0DAFFDECFF6FFDDCFF7FF0800E5
:100E0E00F550250AD8A40EEF07F010EF07F0BCEF4F
:100E1E0007F042C0D9FF43C0DAFFDE2A000EDD2202
:100E2E00000E0001936F000E926F92C05EF093C0A1
:100E3E005FF09469956942C0D9FF43C0DAFFDECFF7
:100E4E00F6FFDDCFF7FF0800F550640AD8B432EF95
:100E5E0007F034EF07F046EF07F042C0D9FF43C06A
:100E6E00DAFFDECFF6FFDDCFF7FF0800F550690A97
:100E7E00D8A444EF07F046EF07F086EF07F042C024
:100E8E00D9FF43C0DAFFDE2A000EDD2244C0D9FFAF
:100E9E0045C0DAFFDFCF46F0020EDE26DFCF47F089
:100EAE00000EDD2246C0D9FF47C0DAFFDECF48F084
:100EBE00DDCF49F0000E49BEFF0E4A6E4B6E4C6EF2
:100ECE004D6E4E6E4F6E40C01CF041C01DF048C0BE
:100EDE001EF049C01FF04AC020F04BC021F04CC09C
:100EEE0022F04DC023F04EC024F04FC025F08FEC01
:100EFE0005F01CC040F01DC041F0D7EF07F042C016
:100F0E00D9FF43C0DAFFDECFF6FFDDCFF7FF0800D3
:100F1E00F550250AD8A496EF07F098EF07F0AFEF3B
:100F2E0007F042C0D9FF43C0DAFFDE2A000EDD22F1
:100F3E00000E026E250E016E40C003F041C004F09B
:100F4E004EEC09F0000E416E010E406ED7EF07F029
:100F5E0042C0D9FF43C0DAFFDE2A000EDD22000EAA
:100F6E00416E000E406ED7EF07F042C0D9FF43C06E
:100F7E00DAFFDECFF6FFDDCFF7FF0800F550016E8A
:100F8E00026A40C003F041C004F04EEC09F042C0CA
:100F9E00D9FF43C0DAFFDE2A000EDD22A9EF07F0EB
:100FAE001200000E126E10BEE1EF07F0DFEF07F039
:100FBE00F3EF07F0101E0F1E0E1E0D1E0C1E0B1E45
:100FCE000A1E096C000E0A220B220C220D220E2282
:100FDE000F221022010E126E08BEFAEF07F0F8EF84
:100FEE0007F00CEF08F0081E071E061E051E041E55
:100FFE00031E021E016C000E022203220422052291
:10100E00062207220822010E121A20EE13F0070EF6
:10101E00DE6AE806FDE209500A100B100C100D10E6
:10102E000E100F101010D8B41FEF08F021EF08F0BB
:10103E0073EF08F0010E116E2FEF08F0D8900936FD
:10104E000A360B360C360D360E360F361036112A82
:10105E0010AE34EF08F036EF08F025EF08F0D89018
:10106E0013361436153616361736183619361A360E
:10107E000950015C0A5002580B5003580C5004588A
:10108E000D5005580E5006580F500758105008585E
:10109E00D8A054EF08F056EF08F067EF08F00950AB
:1010AE00015E0A50025A0B50035A0C50045A0D504E
:1010BE00055A0E50065A0F50075A1050085A1380F0
:1010CE00D89010320F320E320D320C320B320A32F1
:1010DE000932112E36EF08F01250D8B479EF08F01D
:1010EE007BEF08F08BEF08F01A1E191E181E171E44
:1010FE00161E151E141E136C000E14221522162217
:10110E001722182219221A2213C001F014C002F05D
:10111E0015C003F016C004F017C005F018C006F095
:10112E0019C007F01AC008F01200000E126E08BEA9
:10113E00A5EF08F0A3EF08F0B7EF08F0081E071EA2
:10114E00061E051E041E031E021E016C000E022248
:10115E00032204220522062207220822010E126E05
:10116E0010BEBEEF08F0BCEF08F0CEEF08F0101E78
:10117E000F1E0E1E0D1E0C1E0B1E0A1E096C000EDF
:10118E000A220B220C220D220E220F2210220950AF
:10119E000A100B100C100D100E100F101010D8B4EA
:1011AE00DBEF08F0DDEF08F025EF09F0010E116E10
:1011BE00EBEF08F0D89009360A360B360C360D36A2
:1011CE000E360F361036112A10AEF0EF08F0F2EF91
:1011DE0008F0E1EF08F00950015C0A5002580B507C
:1011EE0003580C5004580D5005580E5006580F5009
:1011FE00075810500858D8A007EF09F009EF09F06A
:10120E0019EF09F00950015E0A50025A0B50035AA9
:10121E000C50045A0D50055A0E50065A0F50075ACC
:10122E001050085AD89010320F320E320D320C3246
:10123E000B320A320932112EF2EF08F01250D8B4E6
:10124E002BEF09F02DEF09F03DEF09F0081E071EF8
:10125E00061E051E041E031E021E016C000E022237
:10126E0003220422052206220722082201C001F0D1
:10127E0002C002F003C003F004C004F005C005F084
:10128E0006C006F007C007F008C008F012000350B1
:10129E000410D8B455EF09F057EF09F060EF09F0DC
:1012AE0003500410D8A45EEF09F060EF09F065EF6B
:1012BE0009F0015027EC0CF0B2EF09F020EE04F02B
:1012CE000350D9260450DA22DE50DE10D8B472EF65
:1012DE0009F074EF09F08FEF09F020EE04F00350DF
:1012EE00D9260450DA2210EE02F00350E126045003
:1012FE00E222DE50E65CE650800A096EDE50800A7D
:10130E000958D8B08DEF09F08FEF09F0B2EF09F060
:10131E0020EE02F00350D9260450DA22DECF05F07B
:10132E00DDCF06F003C0D9FF04C0DAFFDECF07F031
:10133E00DDCF08F005500724D96E06500820DA6E6E
:10134E0001C0DFFF20EE02F00350D9260450DA224E
:10135E00DE2A000EDD2212005EA0B8EF09F0BAEF11
:10136E0009F0C4EF09F013C00AF014C00BF011C05D
:10137E000CF012C00DF02CEC0BF016BEC9EF09F0FC
:10138E00CBEF09F0D1EF09F015C01AF016C01BF023
:10139E00D5EF09F0000E1B6E000E1A6E000E196EC0
:1013AE00000E186EE7EF09F0000E026E200E016EB1
:1013BE0011C003F012C004F04EEC09F0184A192ABD
:1013CE001A50185C1950800A176E1B50800A175855
:1013DE00D8A0F4EF09F0F6EF09F0DBEF09F05EB0FC
:1013EE00FBEF09F0FDEF09F007EF0AF013C00AF06A
:1013FE0014C00BF011C00CF012C00DF02CEC0BF061
:10140E0013C001F014C002F0ABEC0BF01A50012423
:10141E00116E1B500220126E1200016E01C002F0FE
:10142E00036A03BE26EF0AF0035007E11E0E025CAC
:10143E00D8B024EF0AF026EF0AF02BEF0AF0828ADA
:10144E008298829C4FEF0AF003BE37EF0AF00350EA
:10145E0009E11E0E025CD8A037EF0AF039EF0AF050
:10146E004CEF0AF003BE47EF0AF0035007E1240EDB
:10147E00025CD8B045EF0AF047EF0AF04CEF0AF0E5
:10148E00829A8288829C4FEF0AF0829A8298828C8E
:10149E00120052C056F053C057F0000E0001916F6B
:1014AE00000E906F6EEF0AF050C040F051C041F048
:1014BE00560E426E000E436E54C044F055C045F0B9
:1014CE00FEEC06F04050000190274150912356C08B
:1014DE00F6FF57C0F7FF0800F5500009D8A47AEFC1
:1014EE000AF07CEF0AF05BEF0AF090C050F091C06A
:1014FE0051F0120097EF0AF008C0F6FF09C0F7FF8F
:10150E00F86A070EF76403D00800F55005D0F6CF41
:10151E00E1FFF7CFE2FFE75003EC0CF0084A092A8F
:10152E0008C0F6FF09C0F7FFF86A070EF76403D08C
:10153E000800F55005D0F6CFE1FFF7CFE2FFE750F8
:10154E000009D8A4ADEF0AF0AFEF0AF083EF0AF06E
:10155E001200000E026E000E016E82A4B9EF0AF0A8
:10156E00BBEF0AF0B4EF0AF0140EE82EFED782A4F9
:10157E00C3EF0AF0C5EF0AF0C9EF0AF0D8800236C1
:10158E00CCEF0AF002500224026E82B4D1EF0AF0C0
:10159E00D3EF0AF0CCEF0AF0012A070E0164DAEF5E
:1015AE000AF0DCEF0AF0B4EF0AF0025012005C0E03
:1015BE000001626F000E636F58C064F059C065F091
:1015CE00000E676F000E666F000E696F000E686F7B
:1015DE00640E506E000E516E5AC052F05BC053F046
:1015EE00620E546E000E556E50EC0AF000016651FC
:1015FE005824D96E67515920DA6E000EDF6E120034
:10160E00000E046E000E036E20EF0BF0000E066E41
:10161E00000E056E054A062A065009E1510E055CBC
:10162E00D8A01CEF0BF01EEF0BF011EF0BF0034ADE
:10163E00042A0350015C04500258D8B029EF0BF075
:10164E002BEF0BF00DEF0BF01200000E106E000ED4
:10165E000F6E3DEF0BF00EC001F0026A0CC003F0EE
:10166E000DC004F04EEC09F00F4A102A0F500A2458
:10167E00D96E10500B20DA6EDF500E6E0E50D8A4BD
:10168E004BEF0BF04DEF0BF032EF0BF0120014BEE0
:10169E005BEF0BF0145006E11304D8B059EF0BF0CA
:1016AE005BEF0BF069EF0BF013C015F014C016F0E2
:1016BE00151E161E154A162A15C013F016C014F064
:1016CE006DEF0BF013C013F014C014F012000D6E7A
:1016DE000D50D8A475EF0BF077EF0BF080EF0BF0F9
:1016EE000A500F0B80090E6E0E5011EC0CF087EFA6
:1016FE000BF00A500F0BC0090E6E0E5011EC0CF0D1
:10170E000BC008F00CC009F081EC0AF012003E0E7E
:10171E00F66E180EF76E000EF86E00EEB6F010EEC6
:10172E0010F00900F5CFEEFFE550E150FAE100EEC2
:10173E0090F0260EEE6AE806FDE15F6A5E6A000E24
:10174E00F86E00010FEF04F001C003F002C004F0C8
:10175E00B3EF0BF0014A022A01C0D9FF02C0DAFF33
:10176E00DF50D8A4BDEF0BF0BFEF0BF0B1EF0BF0D5
:10177E000350015C016E04500258026E1200000EFE
:10178E00956E000E946E000E026E140E016E07EC36
:10179E000BF0380E11EC0CF0010E11EC0CF00C0EDF
:1017AE0011EC0CF0060E11EC0CF0120082B4E2EF0C
:1017BE000BF0E4EF0BF0DDEF0BF082A4E9EF0BF092
:1017CE00EBEF0BF0E4EF0BF082B4F0EF0BF0F2EF77
:1017DE000BF0EBEF0BF0120094948B942F0E016E26
:1017EE00C00EE82EFED7012EFCD78B840D0EE82EF0
:1017FE00FED700F094841200076E07C08CFF8B801A
:10180E008B8200F08B92000E026E010E016E07ECC1
:10181E000BF01200076E07C08CFF8B908B8200F0CE
:10182E008B92000E026E030E016E07EC0BF012008F
:10183E004C4544203120454E43454E4449444F00CB
:02184E00120086
:020000040020DA
:08000000FFFFFFFFFFFFFFFF00
:020000040030CA
:0E00000000091F1EFF0081FF0FC00FE00F4020
:00000001FF
