:020000040000FA
:040000004AEF0CF0C7
:100800000048756D656461640025642020002E2514
:0D08100064200054656D70002E256400000A
:10081E00000E0101C96F000EC86F000EDD6F000ED5
:10082E00DC6F000E926E80908092809480968098FD
:10083E00949CAC9CAC8AAC98AC94B896AB8E0C0ED7
:10084E00AF6E720ED36E7CEC0EF00F0EC16EA9EC75
:10085E000EF093EC0EF083EC0DF00101CB6F83ECF8
:10086E000DF00101CA6F83EC0DF00101DE6F83EC18
:10087E000DF00101CC6F83EC0DF00101CD6FBE0EBA
:10088E00586E010E596E190E5A6E080E5B6ECBC164
:10089E005CF05D6AB1EC0DF0000E0A6EBE0E0B6ED2
:1008AE00010E0C6E000E41EC0EF0BE0E586E010ED7
:1008BE00596E0E0E5A6E080E5B6ECAC15CF05D6A02
:1008CE00B1EC0DF0BE0E086E010E096E54EC0DF07B
:1008DE00250EB9EC0EF0BE0E586E010E596E190EA5
:1008EE005A6E080E5B6EDEC15CF05D6AB1EC0DF007
:1008FE00000E0A6EBE0E0B6E010E0C6E010E41EC5A
:10090E000EF0BE0E586E010E596E180E5A6E080E6F
:10091E005B6ECCC15CF05D6AB1EC0DF0BE0E086E84
:10092E00010E096E54EC0DF0DF0EB9EC0EF0430E15
:10093E00B9EC0EF0BE0E586E010E596E090E5A6EBF
:10094E00080E5B6ECDC15CF05D6AB1EC0DF0080E69
:10095E000A6E010E0B6E080E0C6E000E41EC0EF0C0
:10096E00080E0A6E130E0B6E080E0C6E010E41EC85
:10097E000EF022EE00F011EE00F0230EDBCFE3FFBF
:10098E00E806FCE2000E0101CF6F000ECE6FCFBF66
:10099E00DAEF04F0CF5109E1240ECE5DD8A0DAEFE4
:1009AE0004F0DCEF04F0DEEF04F0F2EF04F0ACA2A2
:1009BE00E3EF04F0E5EF04F0DEEF04F0000E0101CA
:1009CE00CE25D96E010ECF21DA6EDF50AD6ECE4B35
:1009DE00CF2BCEEF04F0030E026EE80E016EDAECB2
:1009EE000DF03FEF07F0DE511CEC0BF01E0E010177
:1009FE00DE6104EF05F006EF05F04AEF05F0DC517D
:100A0E00DD11D8A40DEF05F00FEF05F04AEF05F05C
:100A1E00808020EE7BF011EE24F01A0EDBCFE3FF88
:100A2E00E806FCE2000ED16F000ED06FD1BF29EFA9
:100A3E0005F0D15109E11B0ED05DD8A029EF05F0CC
:100A4E002BEF05F02DEF05F041EF05F0ACA232EFE4
:100A5E0005F034EF05F02DEF05F0240E0101D02541
:100A6E00D96E010ED121DA6EDF50AD6ED04BD12B87
:100A7E001DEF05F0DE51060FDE6F000EDD6F060E68
:100A8E00DC6FC3EF06F01E0EDE6150EF05F052EF85
:100A9E0005F097EF05F0060EDC19DD11D8A45AEF1C
:100AAE0005F05CEF05F097EF05F0808220EE60F028
:100ABE0011EE3FF01A0EDBCFE3FFE806FCE2000E6C
:100ACE00D36F000ED26FD3BF76EF05F0D35109E18D
:100ADE001B0ED25DD8A076EF05F078EF05F07AEF19
:100AEE0005F08EEF05F0ACA27FEF05F081EF05F07B
:100AFE007AEF05F03F0E0101D225D96E010ED321FA
:100B0E00DA6EDF50AD6ED24BD32B6AEF05F0DE51AD
:100B1E00060FDE6F000EDD6F0C0EDC6FC3EF06F0FE
:100B2E001E0EDE619DEF05F09FEF05F0E4EF05F080
:100B3E000C0EDC19DD11D8A4A7EF05F0A9EF05F016
:100B4E00E4EF05F0808422EE5AF011EE5AF01A0E00
:100B5E00DBCFE3FFE806FCE2000ED56F000ED46F8C
:100B6E00D5BFC3EF05F0D55109E11B0ED45DD8A05A
:100B7E00C3EF05F0C5EF05F0C7EF05F0DBEF05F0AD
:100B8E00ACA2CCEF05F0CEEF05F0C7EF05F05A0E94
:100B9E000101D425D96E010ED521DA6EDF50AD6E6E
:100BAE00D44BD52BB7EF05F0DE51060FDE6F000EDE
:100BBE00DD6F120EDC6FC3EF06F01E0EDE61EAEF84
:100BCE0005F0ECEF05F031EF06F0120EDC19DD1139
:100BDE00D8A4F4EF05F0F6EF05F031EF06F08086BD
:100BEE0022EE3FF011EE75F01A0EDBCFE3FFE806B2
:100BFE00FCE2000ED76F000ED66FD7BF10EF06F0D7
:100C0E00D75109E11B0ED65DD8A010EF06F012EFFA
:100C1E0006F014EF06F028EF06F0ACA219EF06F07E
:100C2E001BEF06F014EF06F0750E0101D625D96EF6
:100C3E00010ED721DA6EDF50AD6ED64BD72B04EFF7
:100C4E0006F0DE51060FDE6F000EDD6F180EDC6F44
:100C5E00C3EF06F01E0EDE6137EF06F039EF06F039
:100C6E007AEF06F0180EDC19DD11D8A441EF06F06C
:100C7E0043EF06F07AEF06F0808822EE24F011EEB4
:100C8E0090F01A0EDBCFE3FFE806FCE2000ED96F00
:100C9E00000ED86FD9BF5DEF06F0D95109E11B0EDA
:100CAE00D85DD8A05DEF06F05FEF06F061EF06F0BD
:100CBE0075EF06F0ACA266EF06F068EF06F061EF96
:100CCE0006F0900E0101D825D96E010ED921DA6EEB
:100CDE00DF50AD6ED84BD92B51EF06F0DE51060F1B
:100CEE00DE6FC3EF06F0230EDE6580EF06F082EFB7
:100CFE0006F0BFEF06F0000EC96F010EC86F21EEB1
:100D0E00DFF011EEABF0120EDBCFE3FFE806FCE2F4
:100D1E00000EDB6F000EDA6FDBBF9FEF06F0DB51CC
:100D2E0009E1130EDA5DD8A09FEF06F0A1EF06F0F1
:100D3E00A3EF06F0B7EF06F0ACA2A8EF06F0AAEF0D
:100D4E0006F0A3EF06F0AB0E0101DA25D96E010E07
:100D5E00DB21DA6EDF50AD6EDA4BDB2B93EF06F054
:100D6E00000E026E640E016EDAEC0DF0C3EF06F0AB
:100D7E00000EC96F010EC86FBE0E586E010E596E71
:100D8E00190E5A6E080E5B6ECBC15CF05D6AB1EC4B
:100D9E000DF0000E0A6EBE0E0B6E010E0C6E000EE6
:100DAE0041EC0EF0BE0E586E010E596E0E0E5A6EBE
:100DBE00080E5B6ECAC15CF05D6AB1EC0DF0BE0E42
:100DCE00086E010E096E54EC0DF0250EB9EC0EF006
:100DDE00BE0E586E010E596E190E5A6E080E5B6ECF
:100DEE00DEC15CF05D6AB1EC0DF0000E0A6EBE0E57
:100DFE000B6E010E0C6E010E41EC0EF0BE0E586E17
:100E0E00010E596E180E5A6E080E5B6ECCC15CF058
:100E1E005D6AB1EC0DF0BE0E086E010E096E54EC5B
:100E2E000DF0DF0EB9EC0EF0430EB9EC0EF0BE0E67
:100E3E00586E010E596E090E5A6E080E5B6ECDC1BC
:100E4E005CF05D6AB1EC0DF0080E0A6E010E0B6ED1
:100E5E00080E0C6E000E41EC0EF0080E0A6E130E0C
:100E6E000B6E080E0C6E010E41EC0EF0F2EF04F05C
:100E7E000101C851C911D8B447EF07F049EF07F087
:100E8E00FAEF04F0000EC96F000EC86F000EDD6F92
:100E9E00000EDC6FC2EC0CF00F0E026EA00E016E97
:100EAE00DAEC0DF02EEF04F000EF00F01EC036F07D
:100EBE001FC037F020C038F021C039F022C03AF000
:100ECE0023C03BF024C03CF025C03DF03DBE72EF88
:100EDE0007F075EF07F0010E76EF07F0000E346E97
:100EEE00356A34503510D8B47FEF07F081EF07F034
:100EFE0091EF07F03D1E3C1E3B1E3A1E391E381E5A
:100F0E00371E366C000E3722382239223A223B2207
:100F1E003C223D220001C3BF97EF07F099EF07F087
:100F2E009AEF07F05E92C3BFA7EF07F0C35106E139
:100F3E00C205D8B0A5EF07F0A7EF07F0ADEF07F0A9
:100F4E00000E316E010E306EB1EF07F0C2C030F000
:100F5E00C3C031F0C0C032F0C1C033F034503510D0
:100F6E00D8A4BCEF07F0BEEF07F0C5EF07F05EA404
:100F7E00C3EF07F0C5EF07F0C8EF07F03206D8A0B1
:100F8E003306000E3F6E1F0E3E6E000EE36F4CEFEB
:100F9E0008F03E06D8A03F06C40E3E24D96E000EC1
:100FAE003F20DA6E36C001F037C002F038C003F0D1
:100FBE0039C004F03AC005F03BC006F03CC007F063
:100FCE003DC008F00A0E096E000E0A6E000E0B6E82
:100FDE00000E0C6E000E0D6E000E0E6E000E0F6EDD
:100FEE00000E106E6AEC0AF001C026F002C027F067
:100FFE0003C028F004C029F005C02AF006C02BF06B
:10100E0007C02CF008C02DF026C013F028C014F035
:10101E0021EC0EF01350300FDF6E3006D8A03106E3
:10102E003206D8A0330636C001F037C002F038C001
:10103E0003F039C004F03AC005F03BC006F03CC0E6
:10104E0007F03DC008F00A0E096E000E0A6E000E83
:10105E000B6E000E0C6E000E0D6E000E0E6E000E60
:10106E000F6E000E106EA6EC09F001C036F002C035
:10107E0037F003C038F004C039F005C03AF006C0AE
:10108E003BF007C03CF008C03DF03FBE57EF08F004
:10109E003F5008E13E04D8A057EF08F059EF08F092
:1010AE0089EF08F036503710381039103A103B10CF
:1010BE003C103D10D8A466EF08F068EF08F0D0EFB2
:1010CE0007F031BE75EF08F0315006E13004D8B0AC
:1010DE0073EF08F075EF08F0D0EF07F033BE80EF36
:1010EE0008F0335008E13204D8A080EF08F082EF08
:1010FE0008F089EF08F05EB287EF08F089EF08F08C
:10110E00D0EF07F034503510D8A490EF08F092EFDE
:10111E0008F099EF08F05EA497EF08F099EF08F049
:10112E00B7EF08F03E06D8A03F0634503510D8A4CD
:10113E00A3EF08F0A5EF08F0ABEF08F0000E2F6E4E
:10114E002B0E2E6EAFEF08F0000E2F6E2D0E2E6EA4
:10115E00C40E3E24D96E000E3F20DA6E2EC0DFFF85
:10116E001CC011F01DC012F0C40E3E24136E000EF2
:10117E003F20146E32C015F033C016F0E9EC0BF0C0
:10118E0011C01CF012C01DF0120042C0D9FF43C0A6
:10119E00DAFFDECFF6FFDDCFF7FF0800F550250AA8
:1011AE00D8A4DCEF08F0DEEF08F08AEF09F042C0B9
:1011BE00D9FF43C0DAFFDE2A000EDD22000E000149
:1011CE00C16F000EC06FC0C05EF0C1C05FF0C269DB
:1011DE00C36942C0D9FF43C0DAFFDECFF6FFDDCFD1
:1011EE00F7FF0800F550640AD8B400EF09F002EFDB
:1011FE0009F014EF09F042C0D9FF43C0DAFFDECF89
:10120E00F6FFDDCFF7FF0800F550690AD8A412EFFC
:10121E0009F014EF09F054EF09F042C0D9FF43C0B2
:10122E00DAFFDE2A000EDD2244C0D9FF45C0DAFF08
:10123E00DFCF46F0020EDE26DFCF47F0000EDD22B6
:10124E0046C0D9FF47C0DAFFDECF48F0DDCF49F008
:10125E00000E49BEFF0E4A6E4B6E4C6E4D6E4E6EBC
:10126E004F6E40C01CF041C01DF048C01EF049C07A
:10127E001FF04AC020F04BC021F04CC022F04DC0F0
:10128E0023F04EC024F04FC025F05DEC07F01CC0DB
:10129E0040F01DC041F0A5EF09F042C0D9FF43C098
:1012AE00DAFFDECFF6FFDDCFF7FF0800F550250A97
:1012BE00D8A464EF09F066EF09F07DEF09F042C0A3
:1012CE00D9FF43C0DAFFDE2A000EDD22000E026EC9
:1012DE00250E016E40C003F041C004F084EC0BF00B
:1012EE00000E416E010E406EA5EF09F042C0D9FF0F
:1012FE0043C0DAFFDE2A000EDD22000E416E000E24
:10130E00406EA5EF09F042C0D9FF43C0DAFFDECF31
:10131E00F6FFDDCFF7FF0800F550016E026A40C000
:10132E0003F041C004F084EC0BF042C0D9FF43C07F
:10133E00DAFFDE2A000EDD2277EF09F01200000E32
:10134E00126E10BEAFEF09F0ADEF09F0C1EF09F06C
:10135E00101E0F1E0E1E0D1E0C1E0B1E0A1E096CDD
:10136E00000E0A220B220C220D220E220F22102218
:10137E00010E126E08BEC8EF09F0C6EF09F0DAEFE3
:10138E0009F0081E071E061E051E041E031E021E61
:10139E00016C000E022203220422052206220722DD
:1013AE000822010E121A20EE13F0070EDE6AE8066E
:1013BE00FDE209500A100B100C100D100E100F103C
:1013CE001010D8B4EDEF09F0EFEF09F041EF0AF08D
:1013DE00010E116EFDEF09F0D89009360A360B3664
:1013EE000C360D360E360F361036112A10AE02EFB1
:1013FE000AF004EF0AF0F3EF09F0D8901336143622
:10140E00153616361736183619361A360950015C47
:10141E000A5002580B5003580C5004580D500558E2
:10142E000E5006580F50075810500858D8A022EFEB
:10143E000AF024EF0AF035EF0AF00950015E0A5067
:10144E00025A0B50035A0C50045A0D50055A0E50A6
:10145E00065A0F50075A1050085A1380D89010325F
:10146E000F320E320D320C320B320A320932112E7D
:10147E0004EF0AF01250D8B447EF0AF049EF0AF021
:10148E0059EF0AF01A1E191E181E171E161E151ECB
:10149E00141E136C000E1422152216221722182267
:1014AE0019221A2213C001F014C002F015C003F065
:1014BE0016C004F017C005F018C006F019C007F0EA
:1014CE001AC008F01200000E126E08BE73EF0AF07A
:1014DE0071EF0AF085EF0AF0081E071E061E051EA4
:1014EE00041E031E021E016C000E022203220422A1
:1014FE000522062207220822010E126E10BE8CEF64
:10150E000AF08AEF0AF09CEF0AF0101E0F1E0E1E54
:10151E000D1E0C1E0B1E0A1E096C000E0A220B223B
:10152E000C220D220E220F22102209500A100B102F
:10153E000C100D100E100F101010D8B4A9EF0AF0E9
:10154E00ABEF0AF0F3EF0AF0010E116EB9EF0AF0ED
:10155E00D89009360A360B360C360D360E360F3647
:10156E001036112A10AEBEEF0AF0C0EF0AF0AFEF40
:10157E000AF00950015C0A5002580B5003580C50E7
:10158E0004580D5005580E5006580F50075810505D
:10159E000858D8A0D5EF0AF0D7EF0AF0E7EF0AF017
:1015AE000950015E0A50025A0B50035A0C50045A4D
:1015BE000D50055A0E50065A0F50075A1050085A21
:1015CE00D89010320F320E320D320C320B320A32EC
:1015DE000932112EC0EF0AF01250D8B4F9EF0AF00A
:1015EE00FBEF0AF00BEF0BF0081E071E061E051E82
:1015FE00041E031E021E016C000E02220322042290
:10160E00052206220722082201C001F002C002F0C4
:10161E0003C003F004C004F005C005F006C006F0D8
:10162E0007C007F008C008F01200146E14C015F0C1
:10163E00166A16BE2EEF0BF0165007E11E0E155C45
:10164E00D8B02CEF0BF02EEF0BF033EF0BF0828AAD
:10165E008298809A83EF0BF016BE3FEF0BF0165078
:10166E0009E11E0E155CD8A03FEF0BF041EF0BF019
:10167E0080EF0BF016BE4FEF0BF0165007E1240E65
:10168E00155CD8B04DEF0BF04FEF0BF080EF0BF079
:10169E00829A8288809A20EEABF010EE01F0120E44
:1016AE00DBCFE3FFE806FCE2000E186E000E176EAD
:1016BE00ACA264EF0BF066EF0BF05FEF0BF0010ED8
:1016CE001724D96E000E1820DA6EDF50AD6E174A51
:1016DE00182A18BE7CEF0BF0185009E1130E175C98
:1016EE00D8A07CEF0BF07EEF0BF05FEF0BF083EFEB
:1016FE000BF0829A8298808A120003500410D8B49C
:10170E008BEF0BF08DEF0BF096EF0BF003500410F8
:10171E00D8A494EF0BF096EF0BF09BEF0BF001506B
:10172E00DFEC0EF0E8EF0BF020EE04F00350D926BC
:10173E000450DA22DE50DE10D8B4A8EF0BF0AAEF78
:10174E000BF0C5EF0BF020EE04F00350D926045039
:10175E00DA2210EE02F00350E1260450E222DE50AF
:10176E00E65CE650800A096EDE50800A0958D8B051
:10177E00C3EF0BF0C5EF0BF0E8EF0BF020EE02F02D
:10178E000350D9260450DA22DECF05F0DDCF06F065
:10179E0003C0D9FF04C0DAFFDECF07F0DDCF08F0BB
:1017AE0005500724D96E06500820DA6E01C0DFFFFF
:1017BE0020EE02F00350D9260450DA22DE2A000E63
:1017CE00DD2212005EA0EEEF0BF0F0EF0BF0FAEF61
:1017DE000BF013C00AF014C00BF011C00CF012C0C5
:1017EE000DF0FFEC0DF016BEFFEF0BF001EF0CF05D
:1017FE0007EF0CF015C01AF016C01BF00BEF0CF033
:10180E00000E1B6E000E1A6E000E196E000E186E74
:10181E001DEF0CF0000E026E200E016E11C003F0D3
:10182E0012C004F084EC0BF0184A192A1A50185CF6
:10183E001950800A176E1B50800A1758D8A02AEF2D
:10184E000CF02CEF0CF011EF0CF05EB031EF0CF051
:10185E0033EF0CF03DEF0CF013C00AF014C00BF098
:10186E0011C00CF012C00DF0FFEC0DF013C001F022
:10187E0014C002F061EC0EF01A500124116E1B50D0
:10188E000220126E12000E0EF66E190EF76E000E7C
:10189E00F86E02EE00F010EE75F00900F5CFEEFFD7
:1018AE00E550E150FAE1AA0EF66E1D0EF76E000E2F
:1018BE00F86E01EEDFF010EE13F00900F5CFEEFF3B
:1018CE00E550E150FAE14A0EF66E1A0EF76E000E72
:1018DE00F86E00EE60F010EE5EF00900F5CFEEFF50
:1018EE00E550E150FAE100EEBEF0260EEE6AE80693
:1018FE00FDE15F6A5E6A000EF86E00010FEF04F004
:10190E004E6F207365206861207072656E64696425
:10191E006F206E696E67756E6120626F6D62696CA5
:10192E006C610D00536520656E63656E64696F2092
:10193E006C6120626F6D62696C6C6120350D0053B5
:10194E006520656E63656E64696F206C6120626FE1
:10195E006D62696C6C6120340D00536520656E6399
:10196E00656E64696F206C6120626F6D62696C6C6C
:05197E006120330D00A3
:101984008090809280948096809820EE96F010EE5D
:1019940001F0140EDBCFE3FFE806FCE2000E176E45
:1019A400000E166EACA2D9EF0CF0DBEF0CF0D4EF06
:1019B4000CF0010E1624D96E000E1720DA6EDF50DB
:1019C400AD6E164A172A17BEF1EF0CF0175009E155
:1019D400130E165CD8A0F1EF0CF0F3EF0CF0D4EF7B
:1019E4000CF0120052C056F053C057F0000E000124
:1019F400BF6F000EBE6F12EF0DF050C040F051C02B
:101A040041F0560E426E000E436E54C044F055C071
:101A140045F0CCEC08F040500001BE274150BF23F4
:101A240056C0F6FF57C0F7FF0800F5500009D8A4C8
:101A34001EEF0DF020EF0DF0FFEF0CF0BEC050F0E4
:101A4400BFC051F01200536520656E63656E646912
:101A54006F206C6120626F6D62696C6C6120320D65
:101A640000536520656E63656E64696F206C612048
:101A7400626F6D62696C6C6120310D00426F6D6242
:101A8400696C6C6173204170616761646173200DDE
:101A94000054656D70657261747572612049646586
:101AA400616C0D006AEF0DF008C0F6FF09C0F7FF86
:101AB400F86A070EF76403D00800F55005D0F6CF96
:101AC400E1FFF7CFE2FFE750B9EC0EF0084A092A2C
:101AD40008C0F6FF09C0F7FFF86A070EF76403D0E1
:101AE4000800F55005D0F6CFE1FFF7CFE2FFE7504D
:101AF4000009D8A480EF0DF082EF0DF056EF0DF041
:101B04001200000E026E000E016E82A48CEF0DF026
:101B14008EEF0DF087EF0DF0140EE82EFED782A4A1
:101B240096EF0DF098EF0DF09CEF0DF0D880023693
:101B34009FEF0DF002500224026E82B4A4EF0DF068
:101B4400A6EF0DF09FEF0DF0012A070E0164ADEF33
:101B54000DF0AFEF0DF087EF0DF0025012005C0EA8
:101B64000001E66F000EE76F58C0E8F059C0E9F0D5
:101B7400000EEB6F000EEA6F000EED6F000EEC6FBF
:101B8400E80E506E000E516E5AC052F05BC053F016
:101B9400E60E546E000E556EF4EC0CF00001EA51A2
:101BA4005824D96EEB515920DA6E000EDF6E120004
:101BB400000E046E000E036EF3EF0DF0000E066EC1
:101BC400000E056E054A062A065009E1510E055C11
:101BD400D8A0EFEF0DF0F1EF0DF0E4EF0DF0034AB4
:101BE400042A0350015C04500258D8B0FCEF0DF0F5
:101BF400FEEF0DF0E0EF0DF01200000E106E000E7F
:101C04000F6E10EF0EF00EC001F0026A0CC003F06C
:101C14000DC004F084EC0BF00F4A102A0F500A2474
:101C2400D96E10500B20DA6EDF500E6E0E50D8A411
:101C34001EEF0EF020EF0EF005EF0EF0120014BEB2
:101C44002EEF0EF0145006E11304D8B02CEF0EF072
:101C54002EEF0EF03CEF0EF013C015F014C016F08A
:101C6400151E161E154A162A15C013F016C014F0B8
:101C740040EF0EF013C013F014C014F012000D6EF8
:101C84000D50D8A448EF0EF04AEF0EF053EF0EF0CB
:101C94000A500F0B80090E6E0E50C7EC0EF05AEF6F
:101CA4000EF00A500F0BC0090E6E0E50C7EC0EF06A
:101CB4000BC008F00CC009F054EC0DF0120001C088
:101CC40003F002C004F069EF0EF0014A022A01C0D9
:101CD400D9FF02C0DAFFDF50D8A473EF0EF075EF1E
:101CE4000EF067EF0EF00350015C016E04500258D1
:101CF400026E1200000E956E000E946E000E026EBF
:101D0400140E016EDAEC0DF0380EC7EC0EF0010E75
:101D1400C7EC0EF00C0EC7EC0EF0060EC7EC0EF07E
:101D2400120082B498EF0EF09AEF0EF093EF0EF0DB
:101D340082A49FEF0EF0A1EF0EF09AEF0EF082B4A2
:101D4400A6EF0EF0A8EF0EF0A1EF0EF0120094949F
:101D54008B942F0E016EC00EE82EFED7012EFCD7F9
:101D64008B840D0EE82EFED700F094841200076ECB
:101D740007C08CFF8B808B8200F08B92000E026E6A
:101D8400010E016EDAEC0DF01200076E07C08CFF35
:101D94008B908B8200F08B92000E026E030E016E0C
:101DA400DAEC0DF0120054656D7065726174757231
:091DB4006120416C7461200D00F6
:021DBE00120011
:020000040020DA
:08000000FFFFFFFFFFFFFFFF00
:020000040030CA
:0E00000000091F1EFF0081FF0FC00FE00F4020
:00000001FF
