:020000040000FA
:04000000D0EF0BF042
:100800000048756D656461640025642020002E2514
:0D08100064200054656D70002E256400000A
:10081E001EC036F01FC037F020C038F021C039F0AE
:10082E0022C03AF023C03BF024C03CF025C03DF07E
:10083E003DBE24EF04F027EF04F0010E28EF04F084
:10084E00000E346E356A34503510D8B431EF04F0E2
:10085E0033EF04F043EF04F03D1E3C1E3B1E3A1EE8
:10086E00391E381E371E366C000E372238223922BA
:10087E003A223B223C223D22000165BF49EF04F0A3
:10088E004BEF04F04CEF04F05E9265BF59EF04F0AD
:10089E00655106E16405D8B057EF04F059EF04F046
:1008AE005FEF04F0000E316E010E306E63EF04F058
:1008BE0064C030F065C031F062C032F063C033F016
:1008CE0034503510D8A46EEF04F070EF04F077EFCB
:1008DE0004F05EA475EF04F077EF04F07AEF04F005
:1008EE003206D8A03306000E3F6E1F0E3E6E000E6F
:1008FE00856FFEEF04F03E06D8A03F06660E3E243E
:10090E00D96E000E3F20DA6E36C001F037C002F00D
:10091E0038C003F039C004F03AC005F03BC006F011
:10092E003CC007F03DC008F00A0E096E000E0A6EBC
:10093E00000E0B6E000E0C6E000E0D6E000E0E6E87
:10094E00000E0F6E000E106E6AEC08F001C026F05D
:10095E0002C027F003C028F004C029F005C02AF019
:10096E0006C02BF007C02CF008C02DF026C013F0E7
:10097E0028C014F01CEC0BF01350300FDF6E300655
:10098E00D8A031063206D8A0330636C001F037C0E3
:10099E0002F038C003F039C004F03AC005F03BC095
:1009AE0006F03CC007F03DC008F00A0E096E000EBE
:1009BE000A6E000E0B6E000E0C6E000E0D6E000E0B
:1009CE000E6E000E0F6E000E106EA6EC07F001C03C
:1009DE0036F002C037F003C038F004C039F005C05D
:1009EE003AF006C03BF007C03CF008C03DF03FBEF9
:1009FE0009EF05F03F5008E13E04D8A009EF05F0DD
:100A0E000BEF05F03BEF05F036503710381039106C
:100A1E003A103B103C103D10D8A418EF05F01AEF19
:100A2E0005F082EF04F031BE27EF05F0315006E1FC
:100A3E003004D8B025EF05F027EF05F082EF04F073
:100A4E0033BE32EF05F0335008E13204D8A032EF56
:100A5E0005F034EF05F03BEF05F05EB239EF05F02F
:100A6E003BEF05F082EF04F034503510D8A442EF7E
:100A7E0005F044EF05F04BEF05F05EA449EF05F0ED
:100A8E004BEF05F069EF05F03E06D8A03F06345057
:100A9E003510D8A455EF05F057EF05F05DEF05F0D2
:100AAE00000E2F6E2B0E2E6E61EF05F0000E2F6EC8
:100ABE002D0E2E6E660E3E24D96E000E3F20DA6E7F
:100ACE002EC0DFFF1CC011F01DC012F0660E3E24BA
:100ADE00136E000E3F20146E32C015F033C016F0A8
:100AEE0081EC09F011C01CF012C01DF01200000EB6
:100AFE0000019B6F000E9A6F000EA16F000EA06F8B
:100B0E00000E926E720ED36E77EC0BF00F0EC16E5E
:100B1E00A4EC0BF08EEC0BF07EEC0AF000019D6F56
:100B2E007EEC0AF000019C6F7EEC0AF00001A26FD1
:100B3E007EEC0AF000019E6F7EEC0AF000019F6FC2
:100B4E00B8EF06F0A251E2EC09F01E0E0001A26110
:100B5E00B3EF05F0B5EF05F0C8EF05F0A051A11108
:100B6E00D8A4BCEF05F0BEEF05F0C8EF05F080800D
:100B7E00A251060FA26F000EA16F060EA06F38EFE6
:100B8E0006F01E0EA261CEEF05F0D0EF05F0E4EFF9
:100B9E0005F0060EA019A111D8A4D8EF05F0DAEFD2
:100BAE0005F0E4EF05F08082A251060FA26F000E51
:100BBE00A16F0C0EA06F38EF06F01E0EA261EAEFC9
:100BCE0005F0ECEF05F000EF06F00C0EA019A111E8
:100BDE00D8A4F4EF05F0F6EF05F000EF06F08084F0
:100BEE00A251060FA26F000EA16F120EA06F38EF6A
:100BFE0006F01E0EA26106EF06F008EF06F01CEFDF
:100C0E0006F0120EA019A111D8A410EF06F012EFE3
:100C1E0006F01CEF06F08086A251060FA26F000EA2
:100C2E00A16F180EA06F38EF06F01E0EA26122EF14
:100C3E0006F024EF06F034EF06F0180EA019A111FD
:100C4E00D8A42CEF06F02EEF06F034EF06F08088D5
:100C5E00A251060FA26F38EF06F0000E9B6F010E29
:100C6E009A6F900E586E000E596E190E5A6E080E2F
:100C7E005B6E9DC05CF05D6AACEC0AF0000E0A6E15
:100C8E00900E0B6E000E0C6E000E3CEC0BF0900EE8
:100C9E00586E000E596E0E0E5A6E080E5B6E9CC08C
:100CAE005CF05D6AACEC0AF0900E086E000E096EF8
:100CBE004FEC0AF0250EB4EC0BF0900E586E000EB1
:100CCE00596E190E5A6E080E5B6EA2C05CF05D6A0C
:100CDE00ACEC0AF0000E0A6E900E0B6E000E0C6E4F
:100CEE00010E3CEC0BF0900E586E000E596E180E65
:100CFE005A6E080E5B6E9EC05CF05D6AACEC0AF03C
:100D0E00900E086E000E096E4FEC0AF0DF0EB4EC7A
:100D1E000BF0430EB4EC0BF0900E586E000E596EA5
:100D2E00090E5A6E080E5B6E9FC05CF05D6AACECED
:100D3E000AF0080E0A6E010E0B6E080E0C6E000EF7
:100D4E003CEC0BF0080E0A6E130E0B6E080E0C6EBA
:100D5E00010E3CEC0BF0010E026EF40E016ED5ECA2
:100D6E000AF000019A519B11D8B4C0EF06F0C2EF01
:100D7E0006F0A9EF05F0010E026EF40E016ED5EC31
:100D8E000AF08FEF05F000EF00F042C0D9FF43C02C
:100D9E00DAFFDECFF6FFDDCFF7FF0800F550250AAC
:100DAE00D8A4DCEF06F0DEEF06F08AEF07F042C0C3
:100DBE00D9FF43C0DAFFDE2A000EDD22000E00014D
:100DCE00636F000E626F62C05EF063C05FF06469B5
:100DDE00656942C0D9FF43C0DAFFDECFF6FFDDCF33
:100DEE00F7FF0800F550640AD8B400EF07F002EFE1
:100DFE0007F014EF07F042C0D9FF43C0DAFFDECF91
:100E0E00F6FFDDCFF7FF0800F550690AD8A412EF00
:100E1E0007F014EF07F054EF07F042C0D9FF43C0BC
:100E2E00DAFFDE2A000EDD2244C0D9FF45C0DAFF0C
:100E3E00DFCF46F0020EDE26DFCF47F0000EDD22BA
:100E4E0046C0D9FF47C0DAFFDECF48F0DDCF49F00C
:100E5E00000E49BEFF0E4A6E4B6E4C6E4D6E4E6EC0
:100E6E004F6E40C01CF041C01DF048C01EF049C07E
:100E7E001FF04AC020F04BC021F04CC022F04DC0F4
:100E8E0023F04EC024F04FC025F00FEC04F01CC030
:100E9E0040F01DC041F0A5EF07F042C0D9FF43C09E
:100EAE00DAFFDECFF6FFDDCFF7FF0800F550250A9B
:100EBE00D8A464EF07F066EF07F07DEF07F042C0AD
:100ECE00D9FF43C0DAFFDE2A000EDD22000E026ECD
:100EDE00250E016E40C003F041C004F01CEC09F079
:100EEE00000E416E010E406EA5EF07F042C0D9FF15
:100EFE0043C0DAFFDE2A000EDD22000E416E000E28
:100F0E00406EA5EF07F042C0D9FF43C0DAFFDECF37
:100F1E00F6FFDDCFF7FF0800F550016E026A40C004
:100F2E0003F041C004F01CEC09F042C0D9FF43C0ED
:100F3E00DAFFDE2A000EDD2277EF07F01200000E38
:100F4E00126E10BEAFEF07F0ADEF07F0C1EF07F076
:100F5E00101E0F1E0E1E0D1E0C1E0B1E0A1E096CE1
:100F6E00000E0A220B220C220D220E220F2210221C
:100F7E00010E126E08BEC8EF07F0C6EF07F0DAEFEB
:100F8E0007F0081E071E061E051E041E031E021E67
:100F9E00016C000E022203220422052206220722E1
:100FAE000822010E121A20EE13F0070EDE6AE80672
:100FBE00FDE209500A100B100C100D100E100F1040
:100FCE001010D8B4EDEF07F0EFEF07F041EF08F097
:100FDE00010E116EFDEF07F0D89009360A360B366A
:100FEE000C360D360E360F361036112A10AE02EFB5
:100FFE0008F004EF08F0F3EF07F0D890133614362C
:10100E00153616361736183619361A360950015C4B
:10101E000A5002580B5003580C5004580D500558E6
:10102E000E5006580F50075810500858D8A022EFEF
:10103E0008F024EF08F035EF08F00950015E0A5071
:10104E00025A0B50035A0C50045A0D50055A0E50AA
:10105E00065A0F50075A1050085A1380D890103263
:10106E000F320E320D320C320B320A320932112E81
:10107E0004EF08F01250D8B447EF08F049EF08F02B
:10108E0059EF08F01A1E191E181E171E161E151ED1
:10109E00141E136C000E142215221622172218226B
:1010AE0019221A2213C001F014C002F015C003F069
:1010BE0016C004F017C005F018C006F019C007F0EE
:1010CE001AC008F01200000E126E08BE73EF08F080
:1010DE0071EF08F085EF08F0081E071E061E051EAC
:1010EE00041E031E021E016C000E022203220422A5
:1010FE000522062207220822010E126E10BE8CEF68
:10110E0008F08AEF08F09CEF08F0101E0F1E0E1E5E
:10111E000D1E0C1E0B1E0A1E096C000E0A220B223F
:10112E000C220D220E220F22102209500A100B1033
:10113E000C100D100E100F101010D8B4A9EF08F0EF
:10114E00ABEF08F0F3EF08F0010E116EB9EF08F0F7
:10115E00D89009360A360B360C360D360E360F364B
:10116E001036112A10AEBEEF08F0C0EF08F0AFEF48
:10117E0008F00950015C0A5002580B5003580C50ED
:10118E0004580D5005580E5006580F500758105061
:10119E000858D8A0D5EF08F0D7EF08F0E7EF08F021
:1011AE000950015E0A50025A0B50035A0C50045A51
:1011BE000D50055A0E50065A0F50075A1050085A25
:1011CE00D89010320F320E320D320C320B320A32F0
:1011DE000932112EC0EF08F01250D8B4F9EF08F012
:1011EE00FBEF08F00BEF09F0081E071E061E051E8A
:1011FE00041E031E021E016C000E02220322042294
:10120E00052206220722082201C001F002C002F0C8
:10121E0003C003F004C004F005C005F006C006F0DC
:10122E0007C007F008C008F0120003500410D8B42D
:10123E0023EF09F025EF09F02EEF09F0035004100B
:10124E00D8A42CEF09F02EEF09F033EF09F001507E
:10125E00DDEC0BF080EF09F020EE04F00350D92600
:10126E000450DA22DE50DE10D8B440EF09F042EF1F
:10127E0009F05DEF09F020EE04F00350D92604507A
:10128E00DA2210EE02F00350E1260450E222DE5084
:10129E00E65CE650800A096EDE50800A0958D8B026
:1012AE005BEF09F05DEF09F080EF09F020EE02F040
:1012BE000350D9260450DA22DECF05F0DDCF06F03A
:1012CE0003C0D9FF04C0DAFFDECF07F0DDCF08F090
:1012DE0005500724D96E06500820DA6E01C0DFFFD4
:1012EE0020EE02F00350D9260450DA22DE2A000E38
:1012FE00DD2212005EA086EF09F088EF09F092EF72
:10130E0009F013C00AF014C00BF011C00CF012C09B
:10131E000DF0FAEC0AF016BE97EF09F099EF09F00E
:10132E009FEF09F015C01AF016C01BF0A3EF09F0DD
:10133E00000E1B6E000E1A6E000E196E000E186E49
:10134E00B5EF09F0000E026E200E016E11C003F013
:10135E0012C004F01CEC09F0184A192A1A50185C35
:10136E001950800A176E1B50800A1758D8A0C2EF6A
:10137E0009F0C4EF09F0A9EF09F05EB0C9EF09F06A
:10138E00CBEF09F0D5EF09F013C00AF014C00BF043
:10139E0011C00CF012C00DF0FAEC0AF013C001F0FF
:1013AE0014C002F05CEC0BF01A500124116E1B50AD
:1013BE000220126E1200016E01C002F0036A03BE1B
:1013CE00F4EF09F0035007E11E0E025CD8B0F2EF05
:1013DE0009F0F4EF09F0F9EF09F0828A8298829C05
:1013EE001DEF0AF003BE05EF0AF0035009E11E0ED1
:1013FE00025CD8A005EF0AF007EF0AF01AEF0AF028
:10140E0003BE15EF0AF0035007E1240E025CD8B0BC
:10141E0013EF0AF015EF0AF01AEF0AF0829A82889B
:10142E00829C1DEF0AF0829A8298828C120052C022
:10143E0056F053C057F0000E0001616F000E606F42
:10144E003CEF0AF050C040F051C041F0560E426ED3
:10145E00000E436E54C044F055C045F0CCEC06F07F
:10146E004050000160274150612356C0F6FF57C01F
:10147E00F7FF0800F5500009D8A448EF0AF04AEF2C
:10148E000AF029EF0AF060C050F061C051F012006E
:10149E0065EF0AF008C0F6FF09C0F7FFF86A070EFD
:1014AE00F76403D00800F55005D0F6CFE1FFF7CF73
:1014BE00E2FFE750B4EC0BF0084A092A08C0F6FF29
:1014CE0009C0F7FFF86A070EF76403D00800F5505D
:1014DE0005D0F6CFE1FFF7CFE2FFE7500009D8A421
:1014EE007BEF0AF07DEF0AF051EF0AF01200000ECA
:1014FE00026E000E016E82A487EF0AF089EF0AF0E9
:10150E0082EF0AF0140EE82EFED782A491EF0AF0B5
:10151E0093EF0AF097EF0AF0D88002369AEF0AF0AE
:10152E0002500224026E82B49FEF0AF0A1EF0AF07D
:10153E009AEF0AF0012A070E0164A8EF0AF0AAEF4B
:10154E000AF082EF0AF0025012005C0E0001886F62
:10155E00000E896F58C08AF059C08BF0000E8D6F47
:10156E00000E8C6F000E8F6F000E8E6F8A0E506EF7
:10157E00000E516E5AC052F05BC053F0880E546E7E
:10158E00000E556E1EEC0AF000018C515824D96ED7
:10159E008D515920DA6E000EDF6E1200000E046EB1
:1015AE00000E036EEEEF0AF0000E066E000E056ED4
:1015BE00054A062A065009E1510E055CD8A0EAEF4D
:1015CE000AF0ECEF0AF0DFEF0AF0034A042A0350A8
:1015DE00015C04500258D8B0F7EF0AF0F9EF0AF0A8
:1015EE00DBEF0AF01200000E106E000E0F6E0BEF06
:1015FE000BF00EC001F0026A0CC003F00DC004F037
:10160E001CEC09F00F4A102A0F500A24D96E105004
:10161E000B20DA6EDF500E6E0E50D8A419EF0BF0C1
:10162E001BEF0BF000EF0BF0120014BE29EF0BF0C6
:10163E00145006E11304D8B027EF0BF029EF0BF08E
:10164E0037EF0BF013C015F014C016F0151E161E52
:10165E00154A162A15C013F016C014F03BEF0BF006
:10166E0013C013F014C014F012000D6E0D50D8A458
:10167E0043EF0BF045EF0BF04EEF0BF00A500F0B54
:10168E0080090E6E0E50C2EC0BF055EF0BF00A50A7
:10169E000F0BC0090E6E0E50C2EC0BF00BC008F013
:1016AE000CC009F04FEC0AF0120001C003F002C0AA
:1016BE0004F064EF0BF0014A022A01C0D9FF02C008
:1016CE00DAFFDF50D8A46EEF0BF070EF0BF062EF85
:1016DE000BF00350015C016E04500258026E1200B2
:1016EE00000E956E000E946E000E026E140E016EBC
:1016FE00D5EC0AF0380EC2EC0BF0010EC2EC0BF07A
:10170E000C0EC2EC0BF0060EC2EC0BF0120082B403
:10171E0093EF0BF095EF0BF08EEF0BF082A49AEF98
:10172E000BF09CEF0BF095EF0BF082B4A1EF0BF0EA
:10173E00A3EF0BF09CEF0BF0120094948B942F0EF2
:10174E00016EC00EE82EFED7012EFCD78B840D0E37
:10175E00E82EFED700F094841200076E07C08CFFAF
:10176E008B808B8200F08B92000E026E010E016E4A
:10177E00D5EC0AF01200076E07C08CFF8B908B829F
:10178E0000F08B92000E026E030E016ED5EC0AF085
:10179E00120000EE60F0260EEE6AE806FDE15F6ACA
:0E17AE005E6A000EF86E00017EEF05F012007C
:020000040020DA
:08000000FFFFFFFFFFFFFFFF00
:020000040030CA
:0E00000000091F1EFF0081FF0FC00FE00F4020
:00000001FF
