:020000040000FA
:040000003DEF10F0D0
:10080000004552524F5220484F524120004E4F2037
:100810004E4F435455524E410043616C2025782D74
:100820000054696D3A25783A002E256420005465FD
:100830006D7000257820002E2564005765640054F3
:100840007565004672690048756D004D6F6E005306
:10085000756E005361740054687500414D00504D31
:1008600000000001F9510DEC0FF01E0E0001F961BE
:100870003CEF04F03EEF04F081EF04F00101A851D9
:10088000A911D8A446EF04F048EF04F081EF04F07A
:10089000808022EE51F011EE00F01A0EDBCFE3FF64
:1008A000E806FCE2000E9B6F000E9A6FACA25BEFB5
:1008B00004F05DEF04F056EF04F0000E01019A25FC
:1008C000D96E010E9B21DA6EDF50AD6E9A4B9B2BD9
:1008D0009BBF74EF04F09B5109E11B0E9A5DD8A0F9
:1008E00074EF04F076EF04F056EF04F00001F951D4
:1008F000060FF96F000E0101A96F060EA86FF7EF42
:1009000005F01E0E0001F96188EF04F08AEF04F093
:10091000CEEF04F0060E0101A819A911D8A493EF97
:1009200004F095EF04F0CEEF04F0808222EE36F072
:1009300011EE1BF01A0EDBCFE3FFE806FCE2000E1F
:100940009D6F000E9C6FACA2A8EF04F0AAEF04F01C
:10095000A3EF04F01B0E01019C25D96E010E9D2111
:10096000DA6EDF50AD6E9C4B9D2B9DBFC1EF04F046
:100970009D5109E11B0E9C5DD8A0C1EF04F0C3EFAF
:1009800004F0A3EF04F00001F951060FF96F000E17
:100990000101A96F0C0EA86FF7EF05F01E0E000104
:1009A000F961D5EF04F0D7EF04F01BEF05F00C0E62
:1009B0000101A819A911D8A4E0EF04F0E2EF04F0B6
:1009C0001BEF05F0808422EE1BF011EE36F01A0EBC
:1009D000DBCFE3FFE806FCE2000E9F6F000E9E6F88
:1009E000ACA2F5EF04F0F7EF04F0F0EF04F0360EF0
:1009F00001019E25D96E010E9F21DA6EDF50AD6E8A
:100A00009E4B9F2B9FBF0EEF05F09F5109E11B0EE0
:100A10009E5DD8A00EEF05F010EF05F0F0EF04F0AA
:100A20000001F951060FF96F000E0101A96F120EB6
:100A3000A86FF7EF05F01E0E0001F96122EF05F037
:100A400024EF05F068EF05F0120E0101A819A911B5
:100A5000D8A42DEF05F02FEF05F068EF05F08086A4
:100A600022EE00F011EE51F01A0EDBCFE3FFE806A4
:100A7000FCE2000EA16F000EA06FACA242EF05F0E9
:100A800044EF05F03DEF05F0510E0101A025D96EB0
:100A9000010EA121DA6EDF50AD6EA04BA12BA1BFDC
:100AA0005BEF05F0A15109E11B0EA05DD8A05BEF43
:100AB00005F05DEF05F03DEF05F00001F951060F7F
:100AC000F96F000E0101A96F180EA86FF7EF05F07E
:100AD0001E0E0001F9616FEF05F071EF05F0B0EF48
:100AE00005F0180E0101A819A911D8A47AEF05F094
:100AF0007CEF05F0B0EF05F0808823EE4AF011EEB0
:100B00006CF01A0EDBCFE3FFE806FCE2000EA36FE9
:100B1000000EA26FACA28FEF05F091EF05F08AEF07
:100B200005F06C0E0101A225D96E010EA321DA6E2B
:100B3000DF50AD6EA24BA32BA3BFA8EF05F0A351CE
:100B400009E11B0EA25DD8A0A8EF05F0AAEF05F001
:100B50008AEF05F00001F951060FF96FF7EF05F084
:100B6000230E0001F965B7EF05F0B9EF05F0F3EFDB
:100B700005F0000EF76F010EF66F22EE9BF011EEFE
:100B800087F0120EDBCFE3FFE806FCE2000E010166
:100B9000A56F000EA46FACA2D0EF05F0D2EF05F068
:100BA000CBEF05F0870E0101A425D96E010EA5211A
:100BB000DA6EDF50AD6EA44BA52BA5BFE9EF05F0B3
:100BC000A55109E1130EA45DD8A0E9EF05F0EBEF04
:100BD00005F0CBEF05F0000E026E640E016E67ECBF
:100BE00012F0F7EF05F0000EF76F010EF66F030E2F
:100BF000026EE80E016E67EC12F01200CDEC13F0FD
:100C0000000E8CEC12F044EC14F0030E026EE80EB1
:100C1000016E67EC12F00001F0AD11EF06F013EF7A
:100C200006F076EF06F0F0AB18EF06F01AEF06F0DC
:100C300025EF06F00E0E0A6E5E0E0B6E080E0C6EA1
:100C4000010EF1EC12F02EEF06F00E0E0A6E5B0EA6
:100C50000B6E080E0C6E010EF1EC12F01F0E00016F
:100C6000F015F06FF16BDC0E666F010E676F330EDF
:100C7000686F080E696FF4C06AF0F5C06BF03EEC67
:100C800012F0D20E0001666F010E676F250E686FBD
:100C9000080E696FF2C06AF0F3C06BF03EEC12F020
:100CA000C80E0001666F010E676F210E686F080E97
:100CB000696FF0C06AF0F1C06BF03EEC12F0000E0C
:100CC0000A6EC80E0B6E010E0C6E000EF1EC12F0E7
:100CD000D20E086E010E096EB4EC11F0DC0E086E37
:100CE000010E096EB4EC11F0B1EF06F03F0EF015F5
:100CF000F06FF16BDC0E666F010E676F330E686F7D
:100D0000080E696FF4C06AF0F5C06BF03EEC12F0AB
:100D1000D20E0001666F010E676F250E686F080E18
:100D2000696FF2C06AF0F3C06BF03EEC12F0C80ECF
:100D30000001666F010E676F210E686F080E696F04
:100D4000F0C06AF0F1C06BF03EEC12F0000E0A6EDB
:100D5000C80E0B6E010E0C6E000EF1EC12F068EF77
:100D600006F0030E11EC12F044EC14F0BE0E00017C
:100D7000666F010E676F190E686F080E696FECC021
:100D80006AF0EDC06BF03EEC12F0B40E0001666F3D
:100D9000010E676F1D0E686F080E696FEAC06AF07A
:100DA000EBC06BF03EEC12F0AA0E0001666F010E74
:100DB000676F330E686F080E696FE8C06AF0E9C0AC
:100DC0006BF03EEC12F0000E0A6EBE0E0B6E010EC2
:100DD0000C6E020EF1EC12F0B40E086E010E096EEC
:100DE000B4EC11F0AA0E086E010E096EB4EC11F00D
:100DF00032EF07F04F0E086E080E096EB4EC11F0DA
:100E000062EF07F04B0E086E080E096EB4EC11F09D
:100E100062EF07F03F0E086E080E096EB4EC11F099
:100E200062EF07F03B0E086E080E096EB4EC11F08D
:100E300062EF07F0570E086E080E096EB4EC11F061
:100E400062EF07F0430E086E080E096EB4EC11F065
:100E500062EF07F0530E086E080E096EB4EC11F045
:100E600062EF07F0F00E0001EE25D96E010EEF21C2
:100E7000DA6EDF50766F776B7751000AD8B443EFA4
:100E800007F062EF07F07651460AD8B422EF07F078
:100E90000B0AD8B402EF07F01E0AD8B4FAEF06F036
:100EA000070AD8B40AEF07F0030AD8B412EF07F024
:100EB000240AD8B42AEF07F0070AD8B41AEF07F0CB
:100EC00062EF07F022EE6CF010EE78F0190EDBCF37
:100ED000E3FFE806FCE2000E0001936F000E926F44
:100EE000ACA275EF07F077EF07F070EF07F0780E20
:100EF00000019225D96E000E9321DA6EDF50AD6E9F
:100F0000924B932B93BF8EEF07F0935109E1190E8B
:100F1000925DD8A08EEF07F090EF07F070EF07F02A
:100F200012001EC036F01FC037F020C038F021C0BC
:100F300039F022C03AF023C03BF024C03CF025C079
:100F40003DF03DBEA6EF07F0A9EF07F0010EAAEFB6
:100F500007F0000E346E356A34503510D8B4B3EF54
:100F600007F0B5EF07F0C5EF07F03D1E3C1E3B1E36
:100F70003A1E391E381E371E366C000E37223822B4
:100F800039223A223B223C223D220001E5BFCBEF31
:100F900007F0CDEF07F0CEEF07F0E693E5BFDBEF0C
:100FA00007F0E55106E1E405D8B0D9EF07F0DBEF33
:100FB00007F0E1EF07F0000E316E010E306EE5EF45
:100FC00007F0E4C030F0E5C031F0E2C032F0E3C039
:100FD00033F034503510D8A4F0EF07F0F2EF07F0FB
:100FE000F9EF07F0E6A5F7EF07F0F9EF07F0FCEFF0
:100FF00007F03206D8A03306000E3F6E1F0E3E6E7D
:10100000000E0201EF6F81EF08F03E06D8A03F0608
:10101000D00E3E24D96E020E3F20DA6E36C001F0AB
:1010200037C002F038C003F039C004F03AC005F010
:101030003BC006F03CC007F03DC008F00A0E096E48
:10104000000E0A6E000E0B6E000E0C6E000E0D6E82
:10105000000E0E6E000E0F6E000E106E81EC0DF085
:1010600001C026F002C027F003C028F004C029F018
:1010700005C02AF006C02BF007C02CF008C02DF0E8
:1010800026C013F028C014F0D1EC12F01350300F2A
:10109000DF6E3006D8A031063206D8A0330636C03F
:1010A00001F037C002F038C003F039C004F03AC094
:1010B00005F03BC006F03CC007F03DC008F00A0E4A
:1010C000096E000E0A6E000E0B6E000E0C6E000E06
:1010D0000D6E000E0E6E000E0F6E000E106EBDEC4B
:1010E0000CF001C036F002C037F003C038F004C085
:1010F00039F005C03AF006C03BF007C03CF008C02C
:101100003DF03FBE8CEF08F03F5008E13E04D8A010
:101110008CEF08F08EEF08F0BFEF08F03650371074
:10112000381039103A103B103C103D10D8A49BEFFA
:1011300008F09DEF08F005EF08F031BEAAEF08F0C7
:10114000315006E13004D8B0A8EF08F0AAEF08F05B
:1011500005EF08F033BEB5EF08F0335008E1320474
:10116000D8A0B5EF08F0B7EF08F0BFEF08F0000126
:10117000E6B3BDEF08F0BFEF08F005EF08F034501C
:101180003510D8A4C6EF08F0C8EF08F0D0EF08F08B
:101190000001E6A5CEEF08F0D0EF08F0EEEF08F082
:1011A0003E06D8A03F0634503510D8A4DAEF08F038
:1011B000DCEF08F0E2EF08F0000E2F6E2B0E2E6E23
:1011C000E6EF08F0000E2F6E2D0E2E6ED00E3E2490
:1011D000D96E020E3F20DA6E2EC0DFFF1CC011F068
:1011E0001DC012F0D00E3E24136E020E3F20146E6E
:1011F00032C015F033C016F0DAEC0FF011C01CF05D
:1012000012C01DF012000001E5BF09EF09F00BEF5D
:1012100009F00CEF09F0E693E5BF19EF09F0E5518D
:1012200006E1E405D8B017EF09F019EF09F01FEF58
:1012300009F0000E346E010E336E23EF09F0E4C0A6
:1012400033F0E5C034F0E2C035F0E3C036F0E6A993
:101250002CEF09F02EEF09F032EF09F0FE0E3526E3
:10126000FF0E36221EC037F01FC038F020C039F004
:1012700021C03AF022C03BF023C03CF024C03DF036
:1012800025C03EF0000E406E1F0E3F6E000E0201A4
:10129000EF6FFEEF09F03F06D8A040060F0E37149F
:1012A000416E426A42BE5EEF09F0425009E10A0E09
:1012B000415CD8A05EEF09F060EF09F068EF09F03B
:1012C000570E4124416E000E4220426E6EEF09F02F
:1012D000300E4124416E000E4220426EBF0E276E3A
:1012E000FF0E286E2650296E2A6A2750292628507C
:1012F0002A222A500AE11A0E295CD8A082EF09F0AE
:1013000085EF09F0010E86EF09F0000E2F6E306AAE
:101310002F503010D8B48FEF09F091EF09F0C1EFE2
:1013200009F09F0E276EFF0E286E200E4110296EC9
:10133000000E42102A6E2750292628502A222A50B1
:101340000AE11A0E295CD8A0A8EF09F0ABEF09F06A
:10135000010EACEF09F0000E316E326A31503210DE
:10136000D8B4B5EF09F0B7EF09F0C1EF09F041C00B
:1013700007F042C008F085EC11F007C041F008C04A
:1013800042F0D00E3F24D96E020E4020DA6E41C0EA
:10139000DFFF3306D8A034063506D8A0360637C09E
:1013A00027F038C028F039C029F03AC02AF03BC0F5
:1013B0002BF03CC02CF03DC02DF03EC02EF0050EB1
:1013C000EBEF09F0D8902E322D322C322B322A320C
:1013D000293228322732E82EE2EF09F027C037F011
:1013E00028C038F029C039F02AC03AF02BC03BF0B1
:1013F0002CC03CF02DC03DF02EC03EF040BE0AEFA8
:101400000AF0405009E1020E3F5CD8A00AEF0AF052
:101410000CEF0AF03DEF0AF03750381039103A104F
:101420003B103C103D103E10D8A419EF0AF01BEF02
:101430000AF04BEF09F034BE28EF0AF0345006E111
:101440003304D8B026EF0AF028EF0AF04BEF09F08A
:1014500036BE33EF0AF0365008E13504D8A033EF3A
:101460000AF035EF0AF03DEF0AF00001E6B33BEF7A
:101470000AF03DEF0AF04BEF09F00001E6A943EF57
:101480000AF045EF0AF05BEF0AF03F06D8A04006ED
:10149000D00E3F24D96E020E4020DA6E26C0DFFF48
:1014A0003F06D8A04006D00E3F24D96E020E402041
:1014B000DA6E300EDF6E1CC011F01DC012F0D00EBF
:1014C0003F24136E020E4020146E35C015F036C056
:1014D00016F0DAEC0FF011C01CF012C01DF0120073
:1014E00045C0D9FF46C0DAFFDECFF6FFDDCFF7FFFC
:1014F0000800F550250AD8A480EF0AF082EF0AF020
:10150000A0EF0BF045C0D9FF46C0DAFFDE2A000E7F
:10151000DD22000E0001E36F000EE26FE2C0E6F094
:10152000E3C0E7F0E469E56945C0D9FF46C0DAFFEA
:10153000DECFF6FFDDCFF7FF0800F550640AD8B420
:10154000A4EF0AF0A6EF0AF0B8EF0AF045C0D9FF01
:1015500046C0DAFFDECFF6FFDDCFF7FF0800F5501B
:10156000690AD8A4B6EF0AF0B8EF0AF0F8EF0AF06B
:1015700045C0D9FF46C0DAFFDE2A000EDD2247C093
:10158000D9FF48C0DAFFDFCF49F0020EDE26DFCFF9
:101590004AF0000EDD2249C0D9FF4AC0DAFFDECF93
:1015A0004DF0DDCF4EF0000E4EBEFF0E4F6E506E72
:1015B000516E526E536E546E43C01CF044C01DF009
:1015C0004DC01EF04EC01FF04FC020F050C021F0A3
:1015D00051C022F052C023F053C024F054C025F073
:1015E00091EC07F01CC043F01DC044F0BBEF0BF0C2
:1015F00045C0D9FF46C0DAFFDECFF6FFDDCFF7FFEB
:101600000800F550780AD8B408EF0BF00AEF0BF099
:101610001CEF0BF045C0D9FF46C0DAFFDECFF6FF66
:10162000DDCFF7FF0800F550580AD8A41AEF0BF0E9
:101630001CEF0BF06AEF0BF045C0D9FF46C0DAFF94
:10164000DECFF6FFDDCFF7FF0800F5CF5DF045C038
:10165000D9FF46C0DAFFDE2A000EDD2247C0D9FFDF
:1016600048C0DAFFDFCF49F0020EDE26DFCF4AF0B6
:10167000000EDD2249C0D9FF4AC0DAFFDECF4BF0B1
:10168000DDCF4CF04BC055F04CC056F0576A586A4D
:10169000596A5A6A5B6A5C6A43C01CF044C01DF018
:1016A00055C01EF056C01FF057C020F058C021F0A2
:1016B00059C022F05AC023F05BC024F05CC025F072
:1016C0005DC026F003EC09F01CC043F01DC044F0DF
:1016D000BBEF0BF045C0D9FF46C0DAFFDECFF6FF07
:1016E000DDCFF7FF0800F550250AD8A47AEF0BF0FC
:1016F0007CEF0BF093EF0BF045C0D9FF46C0DAFF4B
:10170000DE2A000EDD22000E026E250E016E43C0A1
:1017100003F044C004F075EC0FF0000E446E010EAF
:10172000436EBBEF0BF045C0D9FF46C0DAFFDE2A9F
:10173000000EDD22000E446E000E436EBBEF0BF078
:1017400045C0D9FF46C0DAFFDECFF6FFDDCFF7FF99
:101750000800F550016E026A43C003F044C004F073
:1017600075EC0FF045C0D9FF46C0DAFFDE2A000E47
:10177000DD228DEF0BF01200000E926E80908092B1
:10178000809480968098949CAC9CAC8AAC98AC94E5
:10179000B896AB8E0C0EAF6E720ED36E0F0EC16E7E
:1017A000CDEC13F037EC14F0000E026E0A0E016E51
:1017B00067EC12F056EC11F00001F1BFEBEF0BF00B
:1017C000F15107E1120EF05DD8B0E9EF0BF0EBEF4D
:1017D0000BF0F9EF0BF0F1BFF9EF0BF0F15107E16E
:1017E000070EF05DD8B0F7EF0BF0F9EF0BF073EFE9
:1017F0000CF00BEC14F0E4EC13F0E3EC11F000014E
:10180000FB6FE3EC11F00001FC6FE3EC11F0000161
:10181000F96FE3EC11F00001FA6F33EC0EF023EEF8
:1018200026F010EEBAF0230EDBCFE3FFE806FCE271
:10183000000E0001DF6F000EDE6FACA222EF0CF095
:1018400024EF0CF01DEF0CF0BA0E0001DE25D96E6E
:10185000000EDF21DA6EDF50AD6EDE4BDF2BDFBF17
:101860003BEF0CF0DF5109E1230EDE5DD8A03BEF2A
:101870000CF03DEF0CF01DEF0CF0030E026EE80EC5
:10188000016E67EC12F04BEF0CF031EC04F033EC2E
:101890000EF03DEF0CF00001F651F711D8B453EF04
:1018A0000CF055EF0CF045EF0CF0FEEC05F0030EDC
:1018B000026EE80E016E67EC12F0000E0001F76F89
:1018C000000EF66F000E0101A96F000EA86FC3ECA9
:1018D00010F026EC11F0070E026ED00E016E67ECD0
:1018E00012F0B3EF0CF0000E0A6E010E0B6E080E34
:1018F0000C6E000EF1EC12F0000E0A6E0D0E0B6E67
:10190000080E0C6E010EF1EC12F023EE00F010EE5A
:1019100094F0250EDBCFE3FFE806FCE2000E0001A9
:10192000E16F000EE06FACA298EF0CF09AEF0CF0B4
:1019300093EF0CF0940E0001E025D96E000EE1212A
:10194000DA6EDF50AD6EE04BE12BE1BFB1EF0CF092
:10195000E15109E1250EE05DD8A0B1EF0CF0B3EF45
:101960000CF093EF0CF0070E026ED00E016E67ECD8
:1019700012F0D0EF0BF000EF00F0000E126E10BE70
:10198000C6EF0CF0C4EF0CF0D8EF0CF0101E0F1ED9
:101990000E1E0D1E0C1E0B1E0A1E096C000E0A22C6
:1019A0000B220C220D220E220F221022010E126E8B
:1019B00008BEDFEF0CF0DDEF0CF0F1EF0CF0081ECD
:1019C000071E061E051E041E031E021E016C000ECD
:1019D0000222032204220522062207220822010EE7
:1019E000121A20EE13F0070EDE6AE806FDE2095037
:1019F0000A100B100C100D100E100F101010D8B490
:101A000004EF0DF006EF0DF058EF0DF0010E116E22
:101A100014EF0DF0D89009360A360B360C360D3619
:101A20000E360F361036112A10AE19EF0DF01BEFDF
:101A30000DF00AEF0DF0D890133614361536163621
:101A40001736183619361A360950015C0A500258F2
:101A50000B5003580C5004580D5005580E500658A2
:101A60000F50075810500858D8A039EF0DF03BEF31
:101A70000DF04CEF0DF00950015E0A50025A0B5068
:101A8000035A0C50045A0D50055A0E50065A0F5066
:101A9000075A1050085A1380D89010320F320E3265
:101AA0000D320C320B320A320932112E1BEF0DF0BF
:101AB0001250D8B45EEF0DF060EF0DF070EF0DF046
:101AC0001A1E191E181E171E161E151E141E136C24
:101AD000000E1422152216221722182219221A2269
:101AE00013C001F014C002F015C003F016C004F0DA
:101AF00017C005F018C006F019C007F01AC008F0AA
:101B00001200000E126E08BE8AEF0DF088EF0DF085
:101B10009CEF0DF0081E071E061E051E041E031E68
:101B2000021E016C000E022203220422052206225C
:101B300007220822010E126E10BEA3EF0DF0A1EFD6
:101B40000DF0B3EF0DF0101E0F1E0E1E0D1E0C1E1D
:101B50000B1E0A1E096C000E0A220B220C220D22FB
:101B60000E220F22102209500A100B100C100D101B
:101B70000E100F101010D8B4C0EF0DF0C2EF0DF022
:101B80000AEF0EF0010E116ED0EF0DF0D89009366D
:101B90000A360B360C360D360E360F361036112A35
:101BA00010AED5EF0DF0D7EF0DF0C6EF0DF00950E8
:101BB000015C0A5002580B5003580C5004580D5049
:101BC00005580E5006580F50075810500858D8A006
:101BD000ECEF0DF0EEEF0DF0FEEF0DF00950015EB1
:101BE0000A50025A0B50035A0C50045A0D50055A11
:101BF0000E50065A0F50075A1050085AD8901032FB
:101C00000F320E320D320C320B320A320932112EE3
:101C1000D7EF0DF01250D8B410EF0EF012EF0EF017
:101C200022EF0EF0081E071E061E051E041E031ED0
:101C3000021E016C000E022203220422052206224B
:101C40000722082201C001F002C002F003C003F025
:101C500004C004F005C005F006C006F007C007F098
:101C600008C008F01200E60E0001666F010E676FF3
:101C7000380E686F080E696FFBC06AF06B6B3EEC44
:101C800012F0000E0A6EE60E0B6E010E0C6E000EC8
:101C9000F1EC12F0E60E0001666F010E676F290E7F
:101CA000686F080E696FFCC06AF06B6B3EEC12F057
:101CB000E60E086E010E096EB4EC11F0250E1BEC59
:101CC00014F0E60E0001666F010E676F380E686F44
:101CD000080E696FF9C06AF06B6B3EEC12F0000EF3
:101CE0000A6EE60E0B6E010E0C6E010EF1EC12F098
:101CF000E60E0001666F010E676F370E686F080E03
:101D0000696FFAC06AF06B6B3EEC12F0E60E086E7B
:101D1000010E096EB4EC11F0DF0E1BEC14F0430E53
:101D20001BEC14F0080E0A6E470E0B6E080E0C6EBC
:101D3000000EF1EC12F0080E0A6E2E0E0B6E080E5D
:101D40000C6E010EF1EC12F01200536520656E630B
:101D5000656E64696F206C6120626F6D62696C6C86
:101D60006120340D00536520656E63656E64696F94
:101D7000206C6120626F6D62696C6C6120330D00B4
:101D8000536520656E63656E64696F206C612062C7
:101D90006F6D62696C6C6120320D00536520656E59
:101DA00063656E64696F206C6120626F6D62696C3F
:101DB0006C6120310D0052656769737472616E64E5
:101DC0006F20486F726120792046656368610D005D
:101DD000426F6D62696C6C61732041706167616410
:101DE0006173200D0054656D706572617475726168
:101DF00020416C7461200D0054656D7065726174D2
:101E000075726120496465616C0D004170616761A4
:101E10006E646F204C4544530D00146E14C015F0D1
:101E2000166A16BE1FEF0FF0165007E11E0E155C66
:101E3000D8B01DEF0FF01FEF0FF024EF0FF0828AE4
:101E40008298809A74EF0FF016BE30EF0FF01650A4
:101E500009E11E0E155CD8A030EF0FF032EF0FF045
:101E600071EF0FF016BE40EF0FF0165007E1240E91
:101E7000155CD8B03EEF0FF040EF0FF071EF0FF0B0
:101E8000829A8288809A22EEAEF010EE01F0120E55
:101E9000DBCFE3FFE806FCE2000E186E000E176EC3
:101EA000ACA255EF0FF057EF0FF050EF0FF0010E0F
:101EB0001724D96E000E1820DA6EDF50AD6E174A67
:101EC000182A18BE6DEF0FF0185009E1130E175CB9
:101ED000D8A06DEF0FF06FEF0FF050EF0FF074EF31
:101EE0000FF0829A8298808A120003500410D8B4AE
:101EF0007CEF0FF07EEF0FF087EF0FF00350041030
:101F0000D8A485EF0FF087EF0FF08CEF0FF00150A2
:101F100070EC14F0D9EF0FF020EE04F00350D92646
:101F20000450DA22DE50DE10D8B499EF0FF09BEFA8
:101F30000FF0B6EF0FF020EE04F00350D926045056
:101F4000DA2210EE02F00350E1260450E222DE50C5
:101F5000E65CE650800A096EDE50800A0958D8B067
:101F6000B4EF0FF0B6EF0FF0D9EF0FF020EE02F064
:101F70000350D9260450DA22DECF05F0DDCF06F07B
:101F800003C0D9FF04C0DAFFDECF07F0DDCF08F0D1
:101F900005500724D96E06500820DA6E01C0DFFF15
:101FA00020EE02F00350D9260450DA22DE2A000E79
:101FB000DD2212000001E6A1E0EF0FF0E2EF0FF0EA
:101FC000ECEF0FF013C00AF014C00BF011C00CF0CE
:101FD00012C00DF0AFEC12F016BEF1EF0FF0F3EF00
:101FE0000FF0F9EF0FF015C01AF016C01BF0FDEF5F
:101FF0000FF0000E1B6E000E1A6E000E196E000E12
:10200000186E0FEF10F0000E026E200E016E11C060
:1020100003F012C004F075EC0FF0184A192A1A5098
:10202000185C1950800A176E1B50800A1758D8A0E8
:102030001CEF10F01EEF10F003EF10F00001E6B1FE
:1020400024EF10F026EF10F030EF10F013C00AF07C
:1020500014C00BF011C00CF012C00DF0AFEC12F078
:1020600013C001F014C002F084EC13F01A500124E4
:10207000116E1B500220126E1200200EF66E210E01
:10208000F76E000EF86E03EE00F010EE65F009003A
:10209000F5CFEEFFE550E150FAE14A0EF66E1D0E67
:1020A000F76E000EF86E02EE00F010EED0F00900B0
:1020B000F5CFEEFFE550E150FAE1D60EF66E280EB0
:1020C000F76E000EF86E01EEF0F010EE07F009006A
:1020D000F5CFEEFFE550E150FAE1DD0EF66E280E89
:1020E000F76E000EF86E0900F5CFFDF00900F5CF90
:1020F000FEF002EED0F0200EEE6AE806FDE101EE01
:10210000A6F04A0EEE6AE806FDE100EEE2F01B0ED4
:10211000EE6AE806FDE1000EF86E0001BCEF0BF080
:102120004C6120686F7261206E6F637475726E61AE
:1021300020656D7069657A612061206C6173203162
:10214000383A30300D004E6F207365206861207082
:1021500072656E6469646F206E696E67756E61206A
:10216000626F6D62696C6C610D00536520656E6312
:10217000656E64696F206C6120626F6D62696C6C62
:052180006120350D0097
:102186008090809280948096809822EE86F010EE61
:1021960001F0140EDBCFE3FFE806FCE2000E176E3B
:1021A600000E166EACA2DAEF10F0DCEF10F0D5EFF1
:1021B60010F0010E1624D96E000E1720DA6EDF50CD
:1021C600AD6E164A172A17BEF2EF10F0175009E146
:1021D600140E165CD8A0F2EF10F0F4EF10F0D5EF65
:1021E60010F0120062C05EF063C05FF0000E0101E5
:1021F600A76F000EA66F13EF11F060C043F061C029
:1022060044F05E0E456E000E466E64C047F065C033
:1022160048F070EC0AF043500101A6274450A7236A
:102226005EC0F6FF5FC0F7FF0800F5500009D8A4AE
:102236001FEF11F021EF11F000EF11F0A6C160F0D1
:10224600A7C161F01200829A8298809A22EEC1F0AC
:1022560010EE01F00E0EDBCFE3FFE806FCE2000E07
:10226600116E000E106EACA23BEF11F03DEF11F0B7
:1022760036EF11F0010E1024D96E000E1120DA6E21
:10228600DF50AD6E104A112A11BE53EF11F01150F6
:1022960009E10F0E105CD8A053EF11F055EF11F0C5
:1022A60036EF11F01200000E8CEC12F044EC14F034
:1022B600030E026EE80E016E67EC12F00001F0AD3F
:1022C60067EF11F069EF11F084EF11F0F0AB6EEFEC
:1022D60011F070EF11F07BEF11F00E0E0A6E5E0E2C
:1022E6000B6E080E0C6E010EF1EC12F084EF11F07D
:1022F6000E0E0A6E5B0E0B6E080E0C6E010EF1ECE6
:1023060012F012009F0E096EFF0E0A6E07C00BF048
:1023160008C00CF009500B260A500C220C500AE19A
:102326001A0E0B5CD8A09AEF11F09DEF11F0010E7A
:102336009EEF11F0000E0D6E0E6A0D500E10D8B401
:10234600A7EF11F0A9EF11F0AFEF11F05F0E071430
:10235600076E086AB3EF11F007C007F008C008F06F
:102366001200CAEF11F008C0F6FF09C0F7FFF86ABD
:10237600070EF76403D00800F55005D0F6CFE1FF4D
:10238600F7CFE2FFE7501BEC14F0084A092A08C011
:10239600F6FF09C0F7FFF86A070EF76403D00800D6
:1023A600F55005D0F6CFE1FFF7CFE2FFE750000981
:1023B600D8A4E0EF11F0E2EF11F0B6EF11F0120041
:1023C600000E026E000E016E82A4ECEF11F0EEEF2D
:1023D60011F0E7EF11F0140EE82EFED782A4F6EF07
:1023E60011F0F8EF11F0FCEF11F0D8800236FFEF94
:1023F60011F002500224026E82B404EF12F006EFCE
:1024060012F0FFEF11F0012A070E01640DEF12F032
:102416000FEF12F0E7EF11F002501200046ED00E2B
:102426009FEC13F00450FAEC13F0D10EB6EC13F057
:10243600000E2FEC13F0036E03500001EE6FEF6BEE
:10244600000E2FEC13F0036E03500001EC6FED6BE2
:10245600000E2FEC13F0036E03500001EA6FEB6BD6
:10246600010E2FEC13F0036E03500001E86FE96BC9
:1024760044EC14F012006A0E00016E6F000E6F6FCE
:1024860066C070F067C071F0000E736F000E726F59
:10249600000E756F000E746F700E606F000E616F28
:1024A60068C062F069C063F06E0E646F000E656FFF
:1024B600F5EC10F0000172516625D96E7351672153
:1024C600DA6E000EDF6E1200000E046E000E036E52
:1024D60080EF12F0000E066E000E056E054A062A03
:1024E600065009E1510E055CD8A07CEF12F07EEF94
:1024F60012F071EF12F0034A042A0350015C0450F3
:102506000258D8B089EF12F08BEF12F06DEF12F08F
:102516001200046ED00E9FEC13F00450FAEC13F088
:10252600D10EB6EC13F0000E2FEC13F0036E035031
:102536000001F46FF56B000E2FEC13F0036E0350E1
:102546000001F26FF36B010E2FEC13F0036E0350D4
:102556000001F06FF16B1200000E106E000E0F6E90
:10256600C0EF12F00EC001F0026A0CC003F00DC0FD
:1025760004F075EC0FF00F4A102A0F500A24D96E9A
:1025860010500B20DA6EDF500E6E0E50D8A4CEEF30
:1025960012F0D0EF12F0B5EF12F0120014BEDEEF1B
:1025A60012F0145006E11304D8B0DCEF12F0DEEF9F
:1025B60012F0ECEF12F013C015F014C016F0151E51
:1025C600161E154A162A15C013F016C014F0F0EFA1
:1025D60012F013C013F014C014F012000D6E0D505B
:1025E600D8A4F8EF12F0FAEF12F003EF13F00A5046
:1025F6000F0B80090E6E0E5029EC14F00AEF13F043
:102606000A500F0BC0090E6E0E5029EC14F00BC0C9
:1026160008F00CC009F0B4EC11F012009F0E036E26
:10262600FF0E046E200E0110056E000E0210066EDF
:10263600035005260450062206500AE11A0E055CD0
:10264600D8A028EF13F02BEF13F0010E2CEF13F0A8
:10265600000E016E026A1200016EC586C7A036EF33
:1026660013F038EF13F031EF13F0C9CF02F0015039
:10267600D8A440EF13F042EF13F046EF13F058ECF6
:1026860014F048EF13F04EEC14F062EC14F0025024
:1026960012009F0E036EFF0E046E01C005F002C00D
:1026A60006F0035005260450062206500AE11A0ECB
:1026B600055CD8A061EF13F064EF13F0010E65EF2F
:1026C60013F0000E016E026A1200BF0E036EFF0EBB
:1026D600046E01C005F002C006F003500526045042
:1026E600062206500AE11A0E055CD8A07DEF13F00B
:1026F60080EF13F0010E81EF13F0000E016E026AF7
:10270600120001C003F002C004F08CEF13F0014A7E
:10271600022A01C0D9FF02C0DAFFDF50D8A496EF23
:1027260013F098EF13F08AEF13F00350015C016E7B
:1027360004500258026E1200026EC580C5B0A6EFA4
:1027460013F0A8EF13F0A1EF13F09E96C7B6AEEF05
:1027560013F0B0EF13F0B2EF13F0B5EF13F0025031
:10276600FAEC13F01200026EC582C5B2BDEF13F08B
:10277600BFEF13F0B8EF13F09E96C7B6C5EF13F090
:10278600C7EF13F0C9EF13F0CCEF13F00250FAECD9
:1027960013F01200000E956E000E946E000E026E7F
:1027A600140E016E67EC12F0380E29EC14F0010ECF
:1027B60029EC14F00C0E29EC14F0060E29EC14F09A
:1027C600120082B4E9EF13F0EBEF13F0E4EF13F02D
:1027D60082A4F0EF13F0F2EF13F0EBEF13F082B4F4
:1027E600F7EF13F0F9EF13F0F2EF13F01200016EAA
:1027F60001C0C9FF62EC14F0C5AC04EF14F006EF9B
:1028060014F009EF14F0010E0AEF14F0020E120094
:1028160094948B942F0E016EC00EE82EFED7012ED7
:10282600FCD78B840D0EE82EFED700F094841200A0
:10283600076E07C08CFF8B808B8200F08B92000E98
:10284600026E010E016E67EC12F01200076E07C0F1
:102856008CFF8B908B8200F08B92000E026E030E23
:10286600016E67EC12F0120093809382500EC76ED1
:10287600280EC66E000EC56E130EC86E9D869E96F9
:102886001200C584C5B44AEF14F04CEF14F045EFBE
:1028960014F0C7501200C58AC588C5B855EF14F0A4
:1028A60057EF14F050EF14F01200C59AC588C5B85A
:1028B6005FEF14F061EF14F05AEF14F012009EA6C9
:1028C60067EF14F069EF14F062EF14F09E961200B1
:0928D600534D5457744673050676
:0228E0001200E4
:020000040020DA
:08000000FFFFFFFFFFFFFFFF00
:020000040030CA
:0E00000000091F1EFF0081FF0FC00FE00F4020
:00000001FF
