:020000040000FA
:0400000026EF3BF0BC
:107647000100000001470EF66E760EF76E000EF889
:107657006E00EE0CF010EE05F00900F5CFEEFFE539
:1076670050E150FAE1000EF86E00013BEF3BF000ED
:107677000E956E000E8C6E938E938CF19E81BE4795
:10768700EF3BF049EF3BF076EF3BF0820E0A6EDE00
:107697000EE82EFED70A2EFCD7102A070E1018D890
:1076A700A458EF3BF05AEF3BF076EF3BF0010E109A
:1076B7006E76EF3BF048EC3CF042EF3BF062EC3E7D
:1076C700F042EF3BF0F9EC3CF042EF3BF027EC3FA8
:1076D700F042EF3BF09DEC3BF042EF3BF0AAEC3D74
:1076E700F042EF3BF010500A6E0B6A0B50000AD8BD
:1076F700B480EF3BF042EF3BF00A50010AD8B45E8A
:10770700EF3BF0030AD8B462EF3BF0010AD8B46646
:10771700EF3BF0070AD8B46AEF3BF0010AD8B46E22
:10772700EF3BF0030AD8B472EF3BF042EF3BF000B7
:10773700EF00F0000E046E070E036E04BEA8EF3BC9
:10774700F0A6EF3BF0AAEF3BF047EF3CF003C00198
:10775700F0010E026E012AB3EF3BF0D8900236011A
:107767002EB1EF3BF002508C6E0C040D100E100F73
:1077770010D8A4C1EF3BF0C3EF3BF0CCEF3BF08256
:107787000E016EDE0EE82EFED7012EFCD71AEF3C57
:10779700F0020E0C180D100E100F10D8A4D6EF3BE8
:1077A700F0D8EF3BF0E6EF3BF0020E026E040E015D
:1077B7006EBA0EE82EFED7012EFCD7022EFAD7009E
:1077C700D01AEF3CF0030E0C180D100E100F10D846
:1077D700A4F0EF3BF0F2EF3BF000EF3CF0030E02BA
:1077E7006E080E016E770EE82EFED7012EFCD7022B
:1077F7002EFAD700F01AEF3CF0040E0C180D100EFD
:10780700100F10D8A40AEF3CF00CEF3CF01AEF3C35
:10781700F0050E026E0F0E016EF10EE82EFED70177
:107827002EFCD7022EFAD700F01AEF3CF081BC1FCE
:10783700EF3CF021EF3CF042EF3CF0820E016EDEB0
:107847000EE82EFED7012EFCD7010E0C26000E0DDA
:10785700220E220F22050E0C180D100E100F10D835
:10786700A438EF3CF03AEF3CF042EF3CF0010E0C4D
:107877006E000E0D6E000E0E6E000E0F6E0306D814
:10788700A00406A1EF3BF01200000E046E000E03E9
:107897006E04BE58EF3CF0045009E1080E035CD8B3
:1078A700A058EF3CF05AEF3CF05CEF3CF0F8EF3CAF
:1078B700F003C001F0010E026E012A65EF3CF0D81B
:1078C700900236012E63EF3CF002508C6E0C040DD3
:1078D700100E100F10D8A473EF3CF075EF3CF07E3C
:1078E700EF3CF0820E016EDE0EE82EFED7012EFC75
:1078F700D7CCEF3CF0020E0C180D100E100F10D85D
:10790700A488EF3CF08AEF3CF098EF3CF0020E02BF
:107917006E040E016EBA0EE82EFED7012EFCD702BA
:107927002EFAD700D0CCEF3CF0030E0C180D100E3A
:10793700100F10D8A4A2EF3CF0A4EF3CF0B2EF3C3C
:10794700F0030E026E080E016E770EE82EFED701C9
:107957002EFCD7022EFAD700F0CCEF3CF0040E0C29
:10796700180D100E100F10D8A4BCEF3CF0BEEF3C62
:10797700F0CCEF3CF0050E026E0F0E016EF10EE833
:107987002EFED7012EFCD7022EFAD700F0CCEF3C03
:10799700F081BCD1EF3CF0D3EF3CF0F4EF3CF08248
:1079A7000E016EDE0EE82EFED7012EFCD7010E0C5F
:1079B70026000E0D220E220F22050E0C180D100E9A
:1079C700100F10D8A4EAEF3CF0ECEF3CF0F4EF3CDA
:1079D700F0010E0C6E000E0D6E000E0E6E000E0FF7
:1079E7006E034A042A4CEF3CF01200000E046E00AE
:1079F7000E036E04BE09EF3DF0045009E1090E03C2
:107A07005CD8A009EF3DF00BEF3DF00DEF3DF0A97D
:107A1700EF3DF003C001F0010E026E012A16EF3DA3
:107A2700F0D8900236012E14EF3DF002048C6E0C54
:107A3700040D100E100F10D8A424EF3DF026EF3DD3
:107A4700F02FEF3DF0820E016EDE0EE82EFED7011D
:107A57002EFCD77DEF3DF0020E0C180D100E100F07
:107A670010D8A439EF3DF03BEF3DF049EF3DF00270
:107A77000E026E040E016EBA0EE82EFED7012EFC22
:107A8700D7022EFAD700D07DEF3DF0030E0C180D6C
:107A9700100E100F10D8A453EF3DF055EF3DF063D3
:107AA700EF3DF0030E026E080E016E770EE82EFE14
:107AB700D7012EFCD7022EFAD700F07DEF3DF00458
:107AC7000E0C180D100E100F10D8A46DEF3DF06FAF
:107AD700EF3DF07DEF3DF0050E026E0F0E016EF1EA
:107AE7000EE82EFED7012EFCD7022EFAD700F07D26
:107AF700EF3DF081BC82EF3DF084EF3DF0A5EF3D17
:107B0700F0820E016EDE0EE82EFED7012EFCD701A5
:107B17000E0C26000E0D220E220F22050E0C180D3C
:107B2700100E100F10D8A49BEF3DF09DEF3DF0A570
:107B3700EF3DF0010E0C6E000E0D6E000E0E6E0086
:107B47000E0F6E034A042AFDEF3CF01200000E04EC
:107B57006E000E036E04BEBAEF3DF0045009E10853
:107B67000E035CD8A0BAEF3DF0BCEF3DF0BEEF3D91
:107B7700F061EF3EF003B0C3EF3DF0C5EF3DF0D34A
:107B8700EF3DF003C001F0010E026E012ACEEF3D7A
:107B9700F0D8900236012ECCEF3DF002508C6E0CDF
:107BA700040D100E100F10D8A4DCEF3DF0DEEF3DF2
:107BB700F0E7EF3DF0820E016EDE0EE82EFED701F4
:107BC7002EFCD735EF3EF0020E0C180D100E100FDD
:107BD70010D8A4F1EF3DF0F3EF3DF001EF3EF002D6
:107BE7000E026E040E016EBA0EE82EFED7012EFCB1
:107BF700D7022EFAD700D035EF3EF0030E0C180D42
:107C0700100E100F10D8A40BEF3EF00DEF3EF01B37
:107C1700EF3EF0030E026E080E016E770EE82EFEA1
:107C2700D7012EFCD7022EFAD700F035EF3EF0042D
:107C37000E0C180D100E100F10D8A425EF3EF027CC
:107C4700EF3EF035EF3EF0050E026E0F0E016EF1BE
:107C57000EE82EFED7012EFCD7022EFAD700F035FC
:107C6700EF3EF081BC3AEF3EF03CEF3EF05DEF3E79
:107C7700F0820E016EDE0EE82EFED7012EFCD70134
:107C87000E0C26000E0D220E220F22050E0C180DCB
:107C9700100E100F10D8A453EF3EF055EF3EF05DD5
:107CA700EF3EF0010E0C6E000E0D6E000E0E6E0014
:107CB7000E0F6E034A042AAEEF3DF01200000E08C5
:107CC7006E000E076E000E066E070E056E08BE7676
:107CD700EF3EF0085009E1080E075CD8A076EF3EAA
:107CE700F078EF3EF07AEF3EF026EF3FF005C00167
:107CF700F0010E026E012A83EF3EF0D890023601A2
:107D07002E81EF3EF007C003F0010E046E032A8FA9
:107D1700EF3EF0D8900436032E8DEF3EF00450026C
:107D2700248C6E0C040D100E100F10D8A49EEF3E7D
:107D3700F0A0EF3EF0A9EF3EF0820E016EDE0EE8F6
:107D47002EFED7012EFCD7F7EF3EF0020E0C180DD2
:107D5700100E100F10D8A4B3EF3EF0B5EF3EF0C3EE
:107D6700EF3EF0020E026E040E016EBA0EE82EFE12
:107D7700D7012EFCD7022EFAD700D0F7EF3EF0033B
:107D87000E0C180D100E100F10D8A4CDEF3EF0CF2B
:107D9700EF3EF0DDEF3EF0030E026E080E016E7748
:107DA7000EE82EFED7012EFCD7022EFAD700F0F7E9
:107DB700EF3EF0040E0C180D100E100F10D8A4E7AC
:107DC700EF3EF0E9EF3EF0F7EF3EF0050E026E0FE3
:107DD7000E016EF10EE82EFED7012EFCD7022EFA09
:107DE700D700F0F7EF3EF081BCFCEF3EF0FEEF3E30
:107DF700F01FEF3FF0820E016EDE0EE82EFED70178
:107E07002EFCD7010E0C26000E0D220E220F220586
:107E17000E0C180D100E100F10D8A415EF3FF01709
:107E2700EF3FF01FEF3FF0010E0C6E000E0D6E00DE
:107E37000E0E6E000E0F6E074A082A0506D8A0061A
:107E4700066AEF3EF01200000E076E000E066E0087
:107E57000E096E000E086E000E056E000E046E060B
:107E67005008248C6E04C001F0010E026E000E0350
:107E77006E012A42EF3FF0D89002360336012E3FBB
:107E8700EF3FF00F0E0216000E03160250062603F0
:107E970050072204500708016E010E026E000E0300
:107EA7006E012A5AEF3FF0D89002360336012E575B
:107EB700EF3FF0F00E0216000E03160250082603DD
:107EC7005009220C040D100E100F10D8A46EEF3FAE
:107ED700F070EF3FF079EF3FF0820E016EDE0EE8B3
:107EE7002EFED7012EFCD7C7EF3FF0020E0C180D60
:107EF700100E100F10D8A483EF3FF085EF3FF093DB
:107F0700EF3FF0020E026E040E016EBA0EE82EFE6F
:107F1700D7012EFCD7022EFAD700D0C7EF3FF003C8
:107F27000E0C180D100E100F10D8A49DEF3FF09FE8
:107F3700EF3FF0ADEF3FF0030E026E080E016E77D4
:107F47000EE82EFED7012EFCD7022EFAD700F0C777
:107F5700EF3FF0040E0C180D100E100F10D8A4B739
:107F6700EF3FF0B9EF3FF0C7EF3FF0050E026E0F9E
:107F77000E016EF10EE82EFED7012EFCD7022EFA67
:107F8700D700F0C7EF3FF081BCCCEF3FF0CEEF3F1B
:107F9700F0EFEF3FF0820E016EDE0EE82EFED70106
:107FA7002EFCD7010E0C26000E0D220E220F2205E5
:107FB7000E0C180D100E100F10D8A4E5EF3FF0E7C8
:107FC700EF3FF0EFEF3FF0010E0C6E000E0D6E006D
:107FD7000E0E6E000E0F6E044A052A05BEFDEF3F1A
:107FE700F0055009E1050E045CD8A0FDEF3FF0FF56
:097FF700EF3FF033EF3FF0120000
:020000040020DA
:08000000FFFFFFFFFFFFFFFF00
:020000040030CA
:0E00000000091F1EFF8181FF0FC00FE00F409F
:00000001FF
