:020000040000FA
:0400000097EF10F076
:10080000004552524F5220484F5241200043616CE4
:100810002025782D0054696D3A25783A00444955D1
:10082000524E41002E25642000257820002E25649C
:10083000005765640054756500467269004D6F6E1F
:100840000053756E005361740054687500414D008B
:10085000504D004800540000F80E086E010E096E5D
:10086000000EE6EC12F0F80E086E010E096E010E95
:10087000E6EC12F0F80E086E010E096E020EE6ECC0
:1008800012F0F80E086E010E096E030EE6EC12F07F
:10089000F80E086E010E096E040EE6EC12F000016F
:1008A000FA5167EC0FF01E0E0001FA615AEF04F0E6
:1008B0005CEF04F0A5EF04F00101A951AA11D8A43E
:1008C00064EF04F066EF04F0A5EF04F0808022EE00
:1008D00051F011EE00F01A0EDBCFE3FFE806FCE268
:1008E000000E9B6F000E9A6FACA279EF04F07BEFC5
:1008F00004F074EF04F0000E01019A25D96E010E88
:100900009B21DA6EDF50AD6E9A4B9B2B9BBF92EF13
:1009100004F09B5109E11B0E9A5DD8A092EF04F000
:1009200094EF04F074EF04F0C00E99EC14F0000E94
:10093000A7EC14F00001FA51060FFA6F000E010146
:10094000AA6F060EA96F51EF06F01E0E0001FA61A4
:10095000ACEF04F0AEEF04F0F8EF04F0060E010186
:10096000A919AA11D8A4B7EF04F0B9EF04F0F8EF71
:1009700004F0808222EE36F011EE1BF01A0EDBCF6F
:10098000E3FFE806FCE2000E9D6F000E9C6FACA238
:10099000CCEF04F0CEEF04F0C7EF04F01B0E010122
:1009A0009C25D96E010E9D21DA6EDF50AD6E9C4BF9
:1009B0009D2B9DBFE5EF04F09D5109E11B0E9C5D51
:1009C000D8A0E5EF04F0E7EF04F0C7EF04F0C30EA2
:1009D00099EC14F0010EA7EC14F00001FA51060F87
:1009E000FA6F000E0101AA6F0C0EA96F51EF06F00D
:1009F0001E0E0001FA61FFEF04F001EF05F04BEF6E
:100A000005F00C0E0101A919AA11D8A40AEF05F0EE
:100A10000CEF05F04BEF05F0808422EE1BF011EE99
:100A200036F01A0EDBCFE3FFE806FCE2000E9F6F04
:100A3000000E9E6FACA21FEF05F021EF05F01AEF3C
:100A400005F0360E01019E25D96E010E9F21DA6E4A
:100A5000DF50AD6E9E4B9F2B9FBF38EF05F09F512F
:100A600009E11B0E9E5DD8A038EF05F03AEF05F0C6
:100A70001AEF05F0C60E99EC14F0020EA7EC14F074
:100A80000001FA51060FFA6F000E0101AA6F120E53
:100A9000A96F51EF06F01E0E0001FA6152EF05F04A
:100AA00054EF05F09EEF05F0120E0101A919AA11ED
:100AB000D8A45DEF05F05FEF05F09EEF05F08086AE
:100AC00022EE00F011EE51F01A0EDBCFE3FFE80644
:100AD000FCE2000EA16F000EA06FACA272EF05F059
:100AE00074EF05F06DEF05F0510E0101A025D96EF0
:100AF000010EA121DA6EDF50AD6EA04BA12BA1BF7C
:100B00008BEF05F0A15109E11B0EA05DD8A08BEF82
:100B100005F08DEF05F06DEF05F0C90E99EC14F0BE
:100B2000030EA7EC14F00001FA51060FFA6F000E45
:100B30000101AA6F180EA96F51EF06F01E0E0001F9
:100B4000FA61A5EF05F0A7EF05F00AEF06F0180E21
:100B50000101A919AA11D8A4B0EF05F0B2EF05F070
:100B60000AEF06F08088F80E086E010E096E040E7A
:100B7000E6EC12F0040E0101A66FA651030DF3502E
:100B8000C00999EC14F00101A651A7EC14F0010181
:100B9000A62B040EA665CFEF05F0D1EF05F0BDEF53
:100BA00005F023EE4AF011EE6CF01A0EDBCFE3FFF6
:100BB000E806FCE2000EA36F000EA26FACA2E3EF0A
:100BC00005F0E5EF05F0DEEF05F06C0E0101A22562
:100BD000D96E010EA321DA6EDF50AD6EA24BA32BAE
:100BE000A3BFFCEF05F0A35109E11B0EA25DD8A045
:100BF000FCEF05F0FEEF05F0DEEF05F0CC0E99EC12
:100C000014F0040EA7EC14F00001FA51060FFA6F6D
:100C100051EF06F0230E0001FA6511EF06F013EF15
:100C200006F04DEF06F0000EF76F010EF66F22EEA4
:100C30009BF011EE87F0120EDBCFE3FFE806FCE23B
:100C4000000E0101A56F000EA46FACA22AEF06F002
:100C50002CEF06F025EF06F0870E0101A425D96ED2
:100C6000010EA521DA6EDF50AD6EA44BA52BA5BFFA
:100C700043EF06F0A55109E1130EA45DD8A043EFA0
:100C800006F045EF06F025EF06F0000E026E640E4A
:100C9000016EC1EC12F051EF06F0000EF76F010E7D
:100CA000F66F030E026EE80E016EC1EC12F0120038
:100CB0004BEC14F0000E0AEC13F0C2EC14F0030E2F
:100CC000026EE80E016EC1EC12F00001F0AD6BEFA8
:100CD00006F06DEF06F0D0EF06F0F0AB72EF06F025
:100CE00074EF06F07FEF06F00E0E0A6E500E0B6EDC
:100CF000080E0C6E010E6FEC13F088EF06F00E0E6E
:100D00000A6E4D0E0B6E080E0C6E010E6FEC13F09A
:100D10001F0E0001F015F06FF16BDD0E666F010E16
:100D2000676F290E686F080E696FF4C06AF0F5C02E
:100D30006BF098EC12F0D30E0001666F010E676F36
:100D4000190E686F080E696FF2C06AF0F3C06BF09D
:100D500098EC12F0C90E0001666F010E676F150E58
:100D6000686F080E696FF0C06AF0F1C06BF098EC24
:100D700012F0000E0A6EC90E0B6E010E0C6E000E04
:100D80006FEC13F0D30E086E010E096E0EEC12F02C
:100D9000DD0E086E010E096E0EEC12F00BEF07F07F
:100DA0003F0EF015F06FF16BDD0E666F010E676F91
:100DB000290E686F080E696FF4C06AF0F5C06BF019
:100DC00098EC12F0D30E0001666F010E676F190EDA
:100DD000686F080E696FF2C06AF0F3C06BF098ECB0
:100DE00012F0C90E0001666F010E676F150E686F75
:100DF000080E696FF0C06AF0F1C06BF098EC12F069
:100E0000000E0A6EC90E0B6E010E0C6E000E6FEC1A
:100E100013F0C2EF06F0030E6BEC12F0C2EC14F00C
:100E2000BF0E0001666F010E676F0D0E686F080E32
:100E3000696FECC06AF0EDC06BF098EC12F0B50E83
:100E40000001666F010E676F110E686F080E696F03
:100E5000EAC06AF0EBC06BF098EC12F0AB0E000148
:100E6000666F010E676F290E686F080E696FE8C024
:100E70006AF0E9C06BF098EC12F0000E0A6EBF0E3B
:100E80000B6E010E0C6E020E6FEC13F0B50E086EB9
:100E9000010E096E0EEC12F0AB0E086E010E096E1B
:100EA0000EEC12F08CEF07F0410E086E080E096E82
:100EB0000EEC12F0BCEF07F03D0E086E080E096E46
:100EC0000EEC12F0BCEF07F0350E086E080E096E3E
:100ED0000EEC12F0BCEF07F0310E086E080E096E32
:100EE0000EEC12F0BCEF07F0490E086E080E096E0A
:100EF0000EEC12F0BCEF07F0390E086E080E096E0A
:100F00000EEC12F0BCEF07F0450E086E080E096EED
:100F10000EEC12F0BCEF07F0F10E0001EE25D96ED9
:100F2000010EEF21DA6EDF50766F776B7751000A92
:100F3000D8B49DEF07F0BCEF07F07651460AD8B45D
:100F40007CEF07F00B0AD8B45CEF07F01E0AD8B4A8
:100F500054EF07F0070AD8B464EF07F0030AD8B4D7
:100F60006CEF07F0240AD8B484EF07F0070AD8B46E
:100F700074EF07F0BCEF07F022EE6CF010EE78F0A3
:100F8000190EDBCFE3FFE806FCE2000E0001936FD1
:100F9000000E926FACA2CFEF07F0D1EF07F0CAEFCF
:100FA00007F0780E00019225D96E000E9321DA6EBB
:100FB000DF50AD6E924B932B93BFE8EF07F0935148
:100FC00009E1190E925DD8A0E8EF07F0EAEF07F00B
:100FD000CAEF07F012001EC036F01FC037F020C065
:100FE00038F021C039F022C03AF023C03BF024C0D1
:100FF0003CF025C03DF03DBE00EF08F003EF08F0E7
:10100000010E04EF08F0000E346E356A34503510CE
:10101000D8B40DEF08F00FEF08F01FEF08F03D1EF9
:101020003C1E3B1E3A1E391E381E371E366C000E03
:101030003722382239223A223B223C223D2200012B
:10104000E5BF25EF08F027EF08F028EF08F0E6935A
:10105000E5BF35EF08F0E55106E1E405D8B033EF20
:1010600008F035EF08F03BEF08F0000E316E010E8E
:10107000306E3FEF08F0E4C030F0E5C031F0E2C080
:1010800032F0E3C033F034503510D8A44AEF08F002
:101090004CEF08F053EF08F0E6A551EF08F053EFDE
:1010A00008F056EF08F03206D8A03306000E3F6E67
:1010B0001F0E3E6E000E0201EF6FDBEF08F03E06E2
:1010C000D8A03F06D00E3E24D96E020E3F20DA6E25
:1010D00036C001F037C002F038C003F039C004F068
:1010E0003AC005F03BC006F03CC007F03DC008F038
:1010F0000A0E096E000E0A6E000E0B6E000E0C6ECC
:10110000000E0D6E000E0E6E000E0F6E000E106EB5
:10111000DBEC0DF001C026F002C027F003C028F080
:1011200004C029F005C02AF006C02BF007C02CF03F
:1011300008C02DF026C013F028C014F04FEC13F0B7
:101140001350300FDF6E3006D8A031063206D8A01B
:10115000330636C001F037C002F038C003F039C0A2
:1011600004F03AC005F03BC006F03CC007F03DC0BB
:1011700008F00A0E096E000E0A6E000E0B6E000ECD
:101180000C6E000E0D6E000E0E6E000E0F6E000E39
:10119000106E17EC0DF001C036F002C037F003C03E
:1011A00038F004C039F005C03AF006C03BF007C083
:1011B0003CF008C03DF03FBEE6EF08F03F5008E1CC
:1011C0003E04D8A0E6EF08F0E8EF08F019EF09F0C8
:1011D00036503710381039103A103B103C103D1083
:1011E000D8A4F5EF08F0F7EF08F05FEF08F031BE94
:1011F00004EF09F0315006E13004D8B002EF09F0F5
:1012000004EF09F05FEF08F033BE0FEF09F0335041
:1012100008E13204D8A00FEF09F011EF09F019EF3F
:1012200009F00001E6B317EF09F019EF09F05FEFDD
:1012300008F034503510D8A420EF09F022EF09F05F
:101240002AEF09F00001E6A528EF09F02AEF09F0DE
:1012500048EF09F03E06D8A03F0634503510D8A418
:1012600034EF09F036EF09F03CEF09F0000E2F6E75
:101270002B0E2E6E40EF09F0000E2F6E2D0E2E6EEF
:10128000D00E3E24D96E020E3F20DA6E2EC0DFFF54
:101290001CC011F01DC012F0D00E3E24136E020EC1
:1012A0003F20146E32C015F033C016F034EC10F04D
:1012B00011C01CF012C01DF012000001E5BF63EF69
:1012C00009F065EF09F066EF09F0E693E5BF73EF0B
:1012D00009F0E55106E1E405D8B071EF09F073EFCC
:1012E00009F079EF09F0000E346E010E336E7DEFD8
:1012F00009F0E4C033F0E5C034F0E2C035F0E3C0FB
:1013000036F0E6A986EF09F088EF09F08CEF09F0D6
:10131000FE0E3526FF0E36221EC037F01FC038F0F5
:1013200020C039F021C03AF022C03BF023C03CF08D
:1013300024C03DF025C03EF0000E406E1F0E3F6EF3
:10134000000E0201EF6F58EF0AF03F06D8A04006EA
:101350000F0E3714416E426A42BEB8EF09F0425098
:1013600009E10A0E415CD8A0B8EF09F0BAEF09F024
:10137000C2EF09F0570E4124416E000E4220426E2A
:10138000C8EF09F0300E4124416E000E4220426E3B
:10139000BF0E276EFF0E286E2650296E2A6A275030
:1013A000292628502A222A500AE11A0E295CD8A0A0
:1013B000DCEF09F0DFEF09F0010EE0EF09F0000EBD
:1013C0002F6E306A2F503010D8B4E9EF09F0EBEFF0
:1013D00009F01BEF0AF09F0E276EFF0E286E200EFD
:1013E0004110296E000E42102A6E275029262850DF
:1013F0002A222A500AE11A0E295CD8A002EF0AF02C
:1014000005EF0AF0010E06EF0AF0000E316E326AA7
:1014100031503210D8B40FEF0AF011EF0AF01BEF81
:101420000AF041C007F042C008F0DFEC11F007C03D
:1014300041F008C042F0D00E3F24D96E020E402089
:10144000DA6E41C0DFFF3306D8A034063506D8A0D7
:10145000360637C027F038C028F039C029F03AC026
:101460002AF03BC02BF03CC02CF03DC02DF03EC01C
:101470002EF0050E45EF0AF0D8902E322D322C3288
:101480002B322A32293228322732E82E3CEF0AF05A
:1014900027C037F028C038F029C039F02AC03AF008
:1014A0002BC03BF02CC03CF02DC03DF02EC03EF0D8
:1014B00040BE64EF0AF0405009E1020E3F5CD8A044
:1014C00064EF0AF066EF0AF097EF0AF03750381031
:1014D00039103A103B103C103D103E10D8A473EF69
:1014E0000AF075EF0AF0A5EF09F034BE82EF0AF0BA
:1014F000345006E13304D8B080EF0AF082EF0AF0EE
:10150000A5EF09F036BE8DEF0AF0365008E135043C
:10151000D8A08DEF0AF08FEF0AF097EF0AF00001E4
:10152000E6B395EF0AF097EF0AF0A5EF09F0000196
:10153000E6A99DEF0AF09FEF0AF0B5EF0AF03F062B
:10154000D8A04006D00E3F24D96E020E4020DA6E9D
:1015500026C0DFFF3F06D8A04006D00E3F24D96E3C
:10156000020E4020DA6E300EDF6E1CC011F01DC07E
:1015700012F0D00E3F24136E020E4020146E35C0C0
:1015800015F036C016F034EC10F011C01CF012C08B
:101590001DF0120045C0D9FF46C0DAFFDECFF6FFCE
:1015A000DDCFF7FF0800F550250AD8A4DAEF0AF0DE
:1015B000DCEF0AF0FAEF0BF045C0D9FF46C0DAFFC6
:1015C000DE2A000EDD22000E0001E36F000EE26F46
:1015D000E2C0E6F0E3C0E7F0E469E56945C0D9FFA1
:1015E00046C0DAFFDECFF6FFDDCFF7FF0800F5508B
:1015F000640AD8B4FEEF0AF000EF0BF012EF0BF024
:1016000045C0D9FF46C0DAFFDECFF6FFDDCFF7FFDA
:101610000800F550690AD8A410EF0BF012EF0BF098
:1016200052EF0BF045C0D9FF46C0DAFFDE2A000EAC
:10163000DD2247C0D9FF48C0DAFFDFCF49F0020EF4
:10164000DE26DFCF4AF0000EDD2249C0D9FF4AC0B6
:10165000DAFFDECF4DF0DDCF4EF0000E4EBEFF0EB6
:101660004F6E506E516E526E536E546E43C01CF0EE
:1016700044C01DF04DC01EF04EC01FF04FC020F002
:1016800050C021F051C022F052C023F053C024F0CA
:1016900054C025F0EBEC07F01CC043F01DC044F033
:1016A00015EF0CF045C0D9FF46C0DAFFDECFF6FFDC
:1016B000DDCFF7FF0800F550780AD8B462EF0BF0E1
:1016C00064EF0BF076EF0BF045C0D9FF46C0DAFFB0
:1016D000DECFF6FFDDCFF7FF0800F550580AD8A49B
:1016E00074EF0BF076EF0BF0C4EF0BF045C0D9FFB1
:1016F00046C0DAFFDECFF6FFDDCFF7FF0800F5CFFB
:101700005DF045C0D9FF46C0DAFFDE2A000EDD22BB
:1017100047C0D9FF48C0DAFFDFCF49F0020EDE260E
:10172000DFCF4AF0000EDD2249C0D9FF4AC0DAFF00
:10173000DECF4BF0DDCF4CF04BC055F04CC056F037
:10174000576A586A596A5A6A5B6A5C6A43C01CF0F5
:1017500044C01DF055C01EF056C01FF057C020F009
:1017600058C021F059C022F05AC023F05BC024F0C9
:101770005CC025F05DC026F05DEC09F01CC043F0B4
:101780001DC044F015EF0CF045C0D9FF46C0DAFF8C
:10179000DECFF6FFDDCFF7FF0800F550250AD8A40D
:1017A000D4EF0BF0D6EF0BF0EDEF0BF045C0D9FF07
:1017B00046C0DAFFDE2A000EDD22000E026E250E84
:1017C000016E43C003F044C004F0CFEC0FF0000EF4
:1017D000446E010E436E15EF0CF045C0D9FF46C0B4
:1017E000DAFFDE2A000EDD22000E446E000E436E8C
:1017F00015EF0CF045C0D9FF46C0DAFFDECFF6FF8B
:10180000DDCFF7FF0800F550016E026A43C003F018
:1018100044C004F0CFEC0FF045C0D9FF46C0DAFF5A
:10182000DE2A000EDD22E7EF0BF01200000E926EB2
:1018300080908092809480968098949CAC9CAC8A96
:10184000AC98AC94B896AB8E0C0EAF6E720ED36E95
:101850000F0EC16E4BEC14F0B5EC14F0000E026EDE
:101860000A0E016EC1EC12F0B0EC11F00001F1BFF4
:1018700045EF0CF0F15107E1180EF05DD8B043EFE1
:101880000CF045EF0CF053EF0CF0F1BF53EF0CF000
:10189000F15107E1070EF05DD8B051EF0CF053EFB6
:1018A0000CF0CDEF0CF089EC14F062EC14F03DEC90
:1018B00012F00001FC6F3DEC12F00001FD6F3DECF9
:1018C00012F00001FA6F3DEC12F00001FB6F8DEC9D
:1018D0000EF023EE26F010EEBAF0230EDBCFE3FF7E
:1018E000E806FCE2000E0001DF6F000EDE6FACA226
:1018F0007CEF0CF07EEF0CF077EF0CF0BA0E0001ED
:10190000DE25D96E000EDF21DA6EDF50AD6EDE4BC4
:10191000DF2BDFBF95EF0CF0DF5109E1230EDE5D19
:10192000D8A095EF0CF097EF0CF077EF0CF0030ECA
:10193000026EE80E016EC1EC12F0A5EF0CF02CEC7B
:1019400004F08DEC0EF097EF0CF00001F651F7115A
:10195000D8B4ADEF0CF0AFEF0CF09FEF0CF058ECFB
:1019600006F0030E026EE80E016EC1EC12F0000EDE
:101970000001F76F000EF66F000E0101AA6F000E56
:10198000A96F1DEC11F080EC11F0070E026ED00E65
:10199000016EC1EC12F00DEF0DF0000E0A6E010E9B
:1019A0000B6E080E0C6E000E6FEC13F0000E0A6E3C
:1019B0001D0E0B6E080E0C6E010E6FEC13F023EE75
:1019C00000F010EE94F0250EDBCFE3FFE806FCE21A
:1019D000000E0001E16F000EE06FACA2F2EF0CF020
:1019E000F4EF0CF0EDEF0CF0940E0001E025D96E51
:1019F000000EE121DA6EDF50AD6EE04BE12BE1BF6E
:101A00000BEF0DF0E15109E1250EE05DD8A00BEFE1
:101A10000DF00DEF0DF0EDEF0CF0070E026ED00E95
:101A2000016EC1EC12F02AEF0CF000EF00F0000E96
:101A3000126E10BE20EF0DF01EEF0DF032EF0DF024
:101A4000101E0F1E0E1E0D1E0C1E0B1E0A1E096CF4
:101A5000000E0A220B220C220D220E220F2210222F
:101A6000010E126E08BE39EF0DF037EF0DF04BEF9F
:101A70000DF0081E071E061E051E041E031E021E74
:101A8000016C000E022203220422052206220722F4
:101A90000822010E121A20EE13F0070EDE6AE80685
:101AA000FDE209500A100B100C100D100E100F1053
:101AB0001010D8B45EEF0DF060EF0DF0B2EF0DF046
:101AC000010E116E6EEF0DF0D89009360A360B3606
:101AD0000C360D360E360F361036112A10AE73EF57
:101AE0000DF075EF0DF064EF0DF0D890133614364D
:101AF000153616361736183619361A360950015C5F
:101B00000A5002580B5003580C5004580D500558F9
:101B10000E5006580F50075810500858D8A093EF91
:101B20000DF095EF0DF0A6EF0DF00950015E0A5093
:101B3000025A0B50035A0C50045A0D50055A0E50BD
:101B4000065A0F50075A1050085A1380D890103276
:101B50000F320E320D320C320B320A320932112E94
:101B600075EF0DF01250D8B4B8EF0DF0BAEF0DF0DC
:101B7000CAEF0DF01A1E191E181E171E161E151E6E
:101B8000141E136C000E142215221622172218227E
:101B900019221A2213C001F014C002F015C003F07C
:101BA00016C004F017C005F018C006F019C007F001
:101BB0001AC008F01200000E126E08BEE4EF0DF01D
:101BC000E2EF0DF0F6EF0DF0081E071E061E051ED3
:101BD000041E031E021E016C000E022203220422B8
:101BE0000522062207220822010E126E10BEFDEF0A
:101BF0000DF0FBEF0DF00DEF0EF0101E0F1E0E1E80
:101C00000D1E0C1E0B1E0A1E096C000E0A220B2252
:101C10000C220D220E220F22102209500A100B1046
:101C20000C100D100E100F101010D8B41AEF0EF08B
:101C30001CEF0EF064EF0EF0010E116E2AEF0EF0A5
:101C4000D89009360A360B360C360D360E360F365E
:101C50001036112A10AE2FEF0EF031EF0EF020EFFC
:101C60000EF00950015C0A5002580B5003580C50FA
:101C700004580D5005580E5006580F500758105074
:101C80000858D8A046EF0EF048EF0EF058EF0EF0CF
:101C90000950015E0A50025A0B50035A0C50045A64
:101CA0000D50055A0E50065A0F50075A1050085A38
:101CB000D89010320F320E320D320C320B320A3203
:101CC0000932112E31EF0EF01250D8B46AEF0EF037
:101CD0006CEF0EF07CEF0EF0081E071E061E051EB0
:101CE000041E031E021E016C000E022203220422A7
:101CF000052206220722082201C001F002C002F0DC
:101D000003C003F004C004F005C005F006C006F0EF
:101D100007C007F008C008F01200E70E0001666F68
:101D2000010E676F2E0E686F080E696FFCC06AF0B7
:101D30006B6B98EC12F0090E0A6EE70E0B6E010E3B
:101D40000C6E000E6FEC13F0E70E0001666F010ED3
:101D5000676F240E686F080E696FFDC06AF06B6BC9
:101D600098EC12F0E70E086E010E096E0EEC12F000
:101D7000250EA7EC14F0E70E0001666F010E676FE9
:101D80002E0E686F080E696FFAC06AF06B6B98ECE4
:101D900012F0000E0A6EE70E0B6E010E0C6E000EB6
:101DA0006FEC13F0E70E0001666F010E676F2D0EEA
:101DB000686F080E696FFBC06AF06B6B98EC12F0ED
:101DC000E70E086E010E096E0EEC12F0DF0EA7ECA6
:101DD00014F0430EA7EC14F00F0E0A6E530E0B6EA8
:101DE000080E0C6E000E6FEC13F0060E0A6E550E08
:101DF0000B6E080E0C6E000E6FEC13F012005365A4
:101E000020656E63656E64696F206C6120626F6D22
:101E100062696C6C6120340D00536520656E6365EA
:101E20006E64696F206C6120626F6D62696C6C61B9
:101E300020330D00536520656E63656E64696F2005
:101E40006C6120626F6D62696C6C6120320D0053B1
:101E50006520656E63656E64696F206C6120626FDA
:101E60006D62696C6C6120310D0052656769737435
:101E700072616E646F20486F7261207920466563DD
:101E800068610D00426F6D62696C6C617320417016
:101E9000616761646173200D0054656D70657261E6
:101EA0007475726120416C7461200D0054656D7011
:101EB0006572617475726120496465616C0D0041E1
:101EC000706167616E646F204C4544530D00146E61
:101ED00014C015F0166A16BE79EF0FF0165007E120
:101EE0001E0E155CD8B077EF0FF079EF0FF07EEF94
:101EF0000FF0828A8298809ACEEF0FF016BE8AEF9A
:101F00000FF0165009E11E0E155CD8A08AEF0FF0F5
:101F10008CEF0FF0CBEF0FF016BE9AEF0FF01650CC
:101F200007E1240E155CD8B098EF0FF09AEF0FF090
:101F3000CBEF0FF0829A8288809A22EEAEF010EEFC
:101F400001F0120EDBCFE3FFE806FCE2000E186E94
:101F5000000E176EACA2AFEF0FF0B1EF0FF0AAEFCB
:101F60000FF0010E1724D96E000E1820DA6EDF5024
:101F7000AD6E174A182A18BEC7EF0FF0185009E1C6
:101F8000130E175CD8A0C7EF0FF0C9EF0FF0AAEF40
:101F90000FF0CEEF0FF0829A8298808A12000350E1
:101FA0000410D8B4D6EF0FF0D8EF0FF0E1EF0FF038
:101FB00003500410D8A4DFEF0FF0E1EF0FF0E6EFCD
:101FC0000FF00150F2EC14F033EF10F020EE04F0BB
:101FD0000350D9260450DA22DE50DE10D8B4F3EFD5
:101FE0000FF0F5EF0FF010EF10F020EE04F00350BB
:101FF000D9260450DA2210EE02F00350E1260450F4
:10200000E222DE50E65CE650800A096EDE50800A6D
:102010000958D8B00EEF10F010EF10F033EF10F0B9
:1020200020EE02F00350D9260450DA22DECF05F06C
:10203000DDCF06F003C0D9FF04C0DAFFDECF07F022
:10204000DDCF08F005500724D96E06500820DA6E5F
:1020500001C0DFFF20EE02F00350D9260450DA223F
:10206000DE2A000EDD2212000001E6A13AEF10F098
:102070003CEF10F046EF10F013C00AF014C00BF064
:1020800011C00CF012C00DF02DEC13F016BE4BEF8A
:1020900010F04DEF10F053EF10F015C01AF016C00D
:1020A0001BF057EF10F0000E1B6E000E1A6E000EA4
:1020B000196E000E186E69EF10F0000E026E200E01
:1020C000016E11C003F012C004F0CFEC0FF0184AFB
:1020D000192A1A50185C1950800A176E1B50800A72
:1020E0001758D8A076EF10F078EF10F05DEF10F0F1
:1020F0000001E6B17EEF10F080EF10F08AEF10F0F3
:1021000013C00AF014C00BF011C00CF012C00DF097
:102110002DEC13F013C001F014C002F002EC14F027
:102120001A500124116E1B500220126E1200D40EA0
:10213000F66E210EF76E000EF86E03EE00F010EE54
:1021400065F00900F5CFEEFFE550E150FAE1FE0E33
:10215000F66E1D0EF76E000EF86E02EE00F010EE39
:10216000D0F00900F5CFEEFFE550E150FAE1D20ED4
:10217000F66E290EF76E000EF86E01EEF1F010EE1D
:102180000FF00900F5CFEEFFE550E150FAE1E10E66
:10219000F66E290EF76E000EF86E0900F5CFFEF010
:1021A0000900F5CFFFF002EED0F0200EEE6AE8064F
:1021B000FDE101EEA7F04A0EEE6AE806FDE100EE51
:1021C000E2F01C0EEE6AE806FDE1000EF86E00017A
:1021D00016EF0CF04C6120686F7261206E6F6374B3
:1021E00075726E6120656D7069657A612061206C21
:1021F00061732031383A30300D004E6F2073652006
:102200006861207072656E6469646F206E696E67C4
:10221000756E6120626F6D62696C6C610D00536553
:1022200020656E63656E64696F206C6120626F6DFE
:0922300062696C6C6120350D003F
:10223A008090809280948096809822EE86F010EEAC
:10224A0001F0140EDBCFE3FFE806FCE2000E176E86
:10225A00000E166EACA234EF11F036EF11F02FEF2C
:10226A0011F0010E1624D96E000E1720DA6EDF5017
:10227A00AD6E164A172A17BE4CEF11F0175009E136
:10228A00140E165CD8A04CEF11F04EEF11F02FEFA0
:10229A0011F0120062C05EF063C05FF0000E01012F
:1022AA00A86F000EA76F6DEF11F060C043F061C018
:1022BA0044F05E0E456E000E466E64C047F065C07F
:1022CA0048F0CAEC0AF043500101A7274450A8235A
:1022DA005EC0F6FF5FC0F7FF0800F5500009D8A4FA
:1022EA0079EF11F07BEF11F05AEF11F0A7C160F00E
:1022FA00A8C161F01200829A8298809A22EEC1F0F7
:10230A0010EE01F00E0EDBCFE3FFE806FCE2000E52
:10231A00116E000E106EACA295EF11F097EF11F04E
:10232A0090EF11F0010E1024D96E000E1120DA6E12
:10233A00DF50AD6E104A112A11BEADEF11F01150E7
:10234A0009E10F0E105CD8A0ADEF11F0AFEF11F05C
:10235A0090EF11F01200000E0AEC13F0C2EC14F028
:10236A00030E026EE80E016EC1EC12F00001F0AD30
:10237A00C1EF11F0C3EF11F0DEEF11F0F0ABC8EFCF
:10238A0011F0CAEF11F0D5EF11F00E0E0A6E500ED1
:10239A000B6E080E0C6E010E6FEC13F0DEEF11F0EF
:1023AA000E0E0A6E4D0E0B6E080E0C6E010E6FECC1
:1023BA0013F012009F0E096EFF0E0A6E07C00BF093
:1023CA0008C00CF009500B260A500C220C500AE1E6
:1023DA001A0E0B5CD8A0F4EF11F0F7EF11F0010E12
:1023EA00F8EF11F0000E0D6E0E6A0D500E10D8B4F3
:1023FA0001EF12F003EF12F009EF12F05F0E07146B
:10240A00076E086A0DEF12F007C007F008C008F05F
:10241A00120024EF12F008C0F6FF09C0F7FFF86AAD
:10242A00070EF76403D00800F55005D0F6CFE1FF98
:10243A00F7CFE2FFE750A7EC14F0084A092A08C0D0
:10244A00F6FF09C0F7FFF86A070EF76403D0080021
:10245A00F55005D0F6CFE1FFF7CFE2FFE7500009CC
:10246A00D8A43AEF12F03CEF12F010EF12F012007B
:10247A00000E026E000E016E82A446EF12F048EFC3
:10248A0012F041EF12F0140EE82EFED782A450EF9C
:10249A0012F052EF12F056EF12F0D880023659EFCE
:1024AA0012F002500224026E82B45EEF12F060EF64
:1024BA0012F059EF12F0012A070E016467EF12F0C9
:1024CA0069EF12F041EF12F002501200046ED00EC2
:1024DA001DEC14F0045078EC14F0D10E34EC14F026
:1024EA00000EADEC13F0036E03500001EE6FEF6BBC
:1024FA00000EADEC13F0036E03500001EC6FED6BB0
:10250A00000EADEC13F0036E03500001EA6FEB6BA3
:10251A00010EADEC13F0036E03500001E86FE96B96
:10252A00C2EC14F012006A0E00016E6F000E6F6F9B
:10253A0066C070F067C071F0000E736F000E726FA4
:10254A00000E756F000E746F700E606F000E616F73
:10255A0068C062F069C063F06E0E646F000E656F4A
:10256A004FEC11F0000172516625D96E7351672143
:10257A00DA6E000EDF6E1200000E046E000E036E9D
:10258A00DAEF12F0000E066E000E056E054A062AF4
:10259A00065009E1510E055CD8A0D6EF12F0D8EF2B
:1025AA0012F0CBEF12F0034A042A0350015C0450E4
:1025BA000258D8B0E3EF12F0E5EF12F0C7EF12F0CD
:1025CA0012000A6E080E0A60EDEF12F0EFEF12F039
:1025DA0009EF13F00A50080DF350400F99EC14F06C
:1025EA00000E0B6E0B500824D96E000E0920DA6E0D
:1025FA00DF50A7EC14F00B2A070E0B6407EF13F059
:10260A0009EF13F0F7EF12F01200046ED00E1DEC72
:10261A0014F0045078EC14F0D10E34EC14F0000EDF
:10262A00ADEC13F0036E03500001F46FF56B000E6E
:10263A00ADEC13F0036E03500001F26FF36B010E61
:10264A00ADEC13F0036E03500001F06FF16B120052
:10265A00000E106E000E0F6E3EEF13F00EC001F06A
:10266A00026A0CC003F00DC004F0CFEC0FF00F4A61
:10267A00102A0F500A24D96E10500B20DA6EDF5040
:10268A000E6E0E50D8A44CEF13F04EEF13F033EF4A
:10269A0013F0120014BE5CEF13F0145006E1130499
:1026AA00D8B05AEF13F05CEF13F06AEF13F013C0CF
:1026BA0015F014C016F0151E161E154A162A15C056
:1026CA0013F016C014F06EEF13F013C013F014C019
:1026DA0014F012000D6E0D50D8A476EF13F078EFB7
:1026EA0013F081EF13F00A500F0B80090E6E0E5093
:1026FA0099EC14F088EF13F00A500F0BC0090E6E14
:10270A000E5099EC14F00BC008F00CC009F00EEC56
:10271A0012F012009F0E036EFF0E046E200E0110BF
:10272A00056E000E0210066E03500526045006229E
:10273A0006500AE11A0E055CD8A0A6EF13F0A9EF1D
:10274A0013F0010EAAEF13F0000E016E026A1200D6
:10275A00016EC586C7A0B4EF13F0B6EF13F0AFEF62
:10276A0013F0C9CF02F00150D8A4BEEF13F0C0EFA6
:10277A0013F0C4EF13F0D6EC14F0C6EF13F0CCEC60
:10278A0014F0E0EC14F0025012009F0E036EFF0EDC
:10279A00046E01C005F002C006F00350052604507D
:1027AA00062206500AE11A0E055CD8A0DFEF13F0E4
:1027BA00E2EF13F0010EE3EF13F0000E016E026A6E
:1027CA001200BF0E036EFF0E046E01C005F002C0B8
:1027DA0006F0035005260450062206500AE11A0E96
:1027EA00055CD8A0FBEF13F0FEEF13F0010EFFEF2C
:1027FA0013F0000E016E026A120001C003F002C05B
:10280A0004F00AEF14F0014A022A01C0D9FF02C0FB
:10281A00DAFFDF50D8A414EF14F016EF14F008EF23
:10282A0014F00350015C016E04500258026E12004B
:10283A00026EC580C5B024EF14F026EF14F01FEF26
:10284A0014F09E96C7B62CEF14F02EEF14F030EF6A
:10285A0014F033EF14F0025078EC14F01200026E08
:10286A00C582C5B23BEF14F03DEF14F036EF14F019
:10287A009E96C7B643EF14F045EF14F047EF14F0F5
:10288A004AEF14F0025078EC14F01200000E956E24
:10289A00000E946E000E026E140E016EC1EC12F060
:1028AA00380E99EC14F00C0E99EC14F0060E99EC13
:1028BA0014F0010E99EC14F0120082B467EF14F0D0
:1028CA0069EF14F062EF14F082A46EEF14F070EF67
:1028DA0014F069EF14F082B475EF14F077EF14F086
:1028EA0070EF14F01200016E01C0C9FFE0EC14F0A1
:1028FA00C5AC82EF14F084EF14F087EF14F0010EE8
:10290A0088EF14F0020E120094948B942F0E016E2D
:10291A00C00EE82EFED7012EFCD78B840D0EE82EB2
:10292A00FED700F094841200076E07C08CFF8B90CC
:10293A008B8200F08B92000E026E030E016EC1ECC8
:10294A0012F01200076E07C08CFF8B808B8200F09A
:10295A008B92000E026E010E016EC1EC12F0120093
:10296A0093809382500EC76E280EC66E000EC56EF7
:10297A00130EC86E9D869E961200C584C5B4C8EF14
:10298A0014F0CAEF14F0C3EF14F0C7501200C58A4E
:10299A00C588C5B8D3EF14F0D5EF14F0CEEF14F014
:1029AA001200C59AC588C5B8DDEF14F0DFEF14F040
:1029BA00D8EF14F012009EA6E5EF14F0E7EF14F03A
:1029CA00E0EF14F09E961200534D54577446730E5E
:0929DA001111110E0E000005069A
:0229E4001200DF
:020000040020DA
:08000000FFFFFFFFFFFFFFFF00
:020000040030CA
:0E00000000091F1EFF0081FF0FC00FE00F4020
:00000001FF
