:020000040000FA
:0400000095EF10F078
:10080000004552524F5220484F5241200043616CE4
:100810002025782D0054696D3A25783A00444955D1
:10082000524E41002E25642000257820002E25649C
:10083000005765640054756500467269004D6F6E1F
:100840000053756E005361740054687500414D008B
:10085000504D004800540000F20E086E010E096E63
:10086000000EC2EC12F0F20E086E010E096E010EBF
:10087000C2EC12F0F20E086E010E096E020EC2EC0E
:1008800012F0F20E086E010E096E030EC2EC12F0A9
:10089000F20E086E010E096E040EC2EC12F0E20EAA
:1008A000086E010E096E060EC2EC12F00001FA513C
:1008B0008BEC0EF01E0E0001FA6161EF04F063EFA5
:1008C00004F0ACEF04F00101A751A811D8A46BEF1C
:1008D00004F06DEF04F0ACEF04F0808022EE36F00F
:1008E00011EE00F01A0EDBCFE3FFE806FCE2000E8B
:1008F0009B6F000E9A6FACA280EF04F082EF04F0C1
:100900007BEF04F0000E01019A25D96E010E9B21A8
:10091000DA6EDF50AD6E9A4B9B2B9BBF99EF04F0C4
:100920009B5109E11B0E9A5DD8A099EF04F09BEF53
:1009300004F07BEF04F0C00E93EC14F0000E85EC95
:1009400014F00001FA51060FFA6F000E0101A86FB2
:10095000060EA76F4FEF06F01E0E0001FA61B3EF0F
:1009600004F0B5EF04F0FFEF04F0060E0101A71943
:10097000A811D8A4BEEF04F0C0EF04F0FFEF04F01C
:10098000808222EE1BF011EE1BF01A0EDBCFE3FF8C
:10099000E806FCE2000E9D6F000E9C6FACA2D3EF48
:1009A00004F0D5EF04F0CEEF04F01B0E01019C25FE
:1009B000D96E010E9D21DA6EDF50AD6E9C4B9D2BE2
:1009C0009DBFECEF04F09D5109E11B0E9C5DD8A08A
:1009D000ECEF04F0EEEF04F0CEEF04F0C30E93EC76
:1009E00014F0010E85EC14F00001FA51060FFA6FB5
:1009F000000E0101A86F0C0EA76F4FEF06F01E0E40
:100A00000001FA6106EF05F008EF05F052EF05F07E
:100A10000C0E0101A719A811D8A411EF05F013EFCE
:100A200005F052EF05F0808422EE00F011EE36F072
:100A30001A0EDBCFE3FFE806FCE2000E9F6F000E0C
:100A40009E6FACA226EF05F028EF05F021EF05F030
:100A5000360E01019E25D96E010E9F21DA6EDF5000
:100A6000AD6E9E4B9F2B9FBF3FEF05F09F5109E15D
:100A70001B0E9E5DD8A03FEF05F041EF05F021EF82
:100A800005F0C60E93EC14F0020E85EC14F0000194
:100A9000FA51060FFA6F000E0101A86F120EA76F30
:100AA0004FEF06F01E0E0001FA6159EF05F05BEF03
:100AB00005F0A5EF05F0120E0101A719A811D8A4A1
:100AC00064EF05F066EF05F0A5EF05F0808623EEF4
:100AD00065F011EE51F01A0EDBCFE3FFE806FCE201
:100AE000000EA16F000EA06FACA279EF05F07BEFB6
:100AF00005F074EF05F0510E0101A025D96E010E2D
:100B0000A121DA6EDF50AD6EA04BA12BA1BF92EFF9
:100B100005F0A15109E11B0EA05DD8A092EF05F0F0
:100B200094EF05F074EF05F0C90E93EC14F0030E8A
:100B300085EC14F00001FA51060FFA6F000E010166
:100B4000A86F180EA76F4FEF06F01E0E0001FA6196
:100B5000ACEF05F0AEEF05F0F3EF05F0180E010174
:100B6000A719A811D8A4B7EF05F0B9EF05F0F3EF76
:100B700005F0808823EE4AF011EE6CF01A0EDBCF00
:100B8000E3FFE806FCE2000EA36F000EA26FACA22A
:100B9000CCEF05F0CEEF05F0C7EF05F06C0E0101CC
:100BA000A225D96E010EA321DA6EDF50AD6EA24BE5
:100BB000A32BA3BFE5EF05F0A35109E11B0EA25D36
:100BC000D8A0E5EF05F0E7EF05F0C7EF05F0CC0E94
:100BD00093EC14F0040E85EC14F00001FA51060FAA
:100BE000FA6F4FEF06F0230E0001FA65FAEF05F0F9
:100BF000FCEF05F04BEF06F0000EF96F010EF86FF9
:100C000022EE80F011EE87F0120EDBCFE3FFE80654
:100C1000FCE2000E0101A56F000EA46FACA213EF61
:100C200006F015EF06F00EEF06F0870E0101A42581
:100C3000D96E010EA521DA6EDF50AD6EA44BA52B47
:100C4000A5BF2CEF06F0A55109E1130EA45DD8A0B5
:100C50002CEF06F02EEF06F00EEF06F0000EA66F5A
:100C6000A651030DF350C00993EC14F0060E85EC69
:100C700014F00101A62B050EA66541EF06F043EF27
:100C800006F030EF06F0000E026E640E016E9DEC71
:100C900012F04FEF06F0000EF96F010EF86F030E21
:100CA000026EE80E016E9DEC12F0120027EC14F0BB
:100CB000000EE6EC12F0BAEC14F0030E026EE80E31
:100CC000016E9DEC12F00001F2AD69EF06F06BEFE2
:100CD00006F0CEEF06F0F2AB70EF06F072EF06F022
:100CE0007DEF06F00E0E0A6E500E0B6E080E0C6EA7
:100CF000010E4BEC13F086EF06F00E0E0A6E4D0E51
:100D00000B6E080E0C6E010E4BEC13F01F0E000163
:100D1000F215F26FF36BC70E666F010E676F290E47
:100D2000686F080E696FF6C06AF0F7C06BF074EC7C
:100D300012F0BD0E0001666F010E676F190E686F2D
:100D4000080E696FF4C06AF0F5C06BF074EC12F035
:100D5000B30E0001666F010E676F150E686F080E07
:100D6000696FF2C06AF0F3C06BF074EC12F0000E21
:100D70000A6EB30E0B6E010E0C6E000E4BEC13F0F0
:100D8000BD0E086E010E096EEAEC11F0C70E086E7A
:100D9000010E096EEAEC11F009EF07F03F0EF215B3
:100DA000F26FF36BC70E666F010E676F290E686FE7
:100DB000080E696FF6C06AF0F7C06BF074EC12F0C1
:100DC000BD0E0001666F010E676F190E686F080E89
:100DD000696FF4C06AF0F5C06BF074EC12F0B30EFA
:100DE0000001666F010E676F150E686F080E696F60
:100DF000F2C06AF0F3C06BF074EC12F0000E0A6EF1
:100E0000B30E0B6E010E0C6E000E4BEC13F0C0EF28
:100E100006F0030E47EC12F0BAEC14F0A90E000134
:100E2000666F010E676F0D0E686F080E696FEEC07A
:100E30006AF0EFC06BF074EC12F0DF0E0001666F29
:100E4000020E676F110E686F080E696FECC06AF0D2
:100E5000EDC06BF074EC12F0D50E0001666F020E5F
:100E6000676F290E686F080E696FEAC06AF0EBC001
:100E70006BF074EC12F0000E0A6EA90E0B6E010EF0
:100E80000C6E020E4BEC13F0DF0E086E020E096EB4
:100E9000EAEC11F0D50E086E020E096EEAEC11F0C4
:100EA0008AEF07F0410E086E080E096EEAEC11F0A9
:100EB000BAEF07F03D0E086E080E096EEAEC11F06D
:100EC000BAEF07F0350E086E080E096EEAEC11F065
:100ED000BAEF07F0310E086E080E096EEAEC11F059
:100EE000BAEF07F0490E086E080E096EEAEC11F031
:100EF000BAEF07F0390E086E080E096EEAEC11F031
:100F0000BAEF07F0450E086E080E096EEAEC11F014
:100F1000BAEF07F0DB0E0001F025D96E010EF121CA
:100F2000DA6EDF50766F776B7751000AD8B49BEF9B
:100F300007F0BAEF07F07651460AD8B47AEF07F017
:100F40000B0AD8B45AEF07F01E0AD8B452EF07F0D4
:100F5000070AD8B462EF07F0030AD8B46AEF07F0C3
:100F6000240AD8B482EF07F0070AD8B472EF07F06A
:100F7000BAEF07F022EE51F010EE78F0190EDBCF49
:100F8000E3FFE806FCE2000E0001936F000E926F93
:100F9000ACA2CDEF07F0CFEF07F0C8EF07F0780E67
:100FA00000019225D96E000E9321DA6EDF50AD6EEE
:100FB000924B932B93BFE6EF07F0935109E1190E83
:100FC000925DD8A0E6EF07F0E8EF07F0C8EF07F072
:100FD00012001EC036F01FC037F020C038F021C00C
:100FE00039F022C03AF023C03BF024C03CF025C0C9
:100FF0003DF03DBEFEEF07F001EF08F0010E02EFFD
:1010000008F0000E346E356A34503510D8B40BEF4A
:1010100008F00DEF08F01DEF08F03D1E3C1E3B1ED2
:101020003A1E391E381E371E366C000E3722382203
:1010300039223A223B223C223D220001E7BF23EF26
:1010400008F025EF08F026EF08F0E893E7BF33EF4C
:1010500008F0E75106E1E605D8B031EF08F033EFCC
:1010600008F039EF08F0000E316E010E306E3DEFE2
:1010700008F0E6C030F0E7C031F0E4C032F0E5C07F
:1010800033F034503510D8A448EF08F04AEF08F098
:1010900051EF08F0E8A54FEF08F051EF08F054EFDA
:1010A00008F03206D8A03306000E3F6E1F0E3E6ECB
:1010B000000E0201D46FD9EF08F03E06D8A03F061B
:1010C000B50E3E24D96E020E3F20DA6E36C001F016
:1010D00037C002F038C003F039C004F03AC005F060
:1010E0003BC006F03CC007F03DC008F00A0E096E98
:1010F000000E0A6E000E0B6E000E0C6E000E0D6ED2
:10110000000E0E6E000E0F6E000E106ED9EC0DF07C
:1011100001C026F002C027F003C028F004C029F067
:1011200005C02AF006C02BF007C02CF008C02DF037
:1011300026C013F028C014F02BEC13F01350300F1E
:10114000DF6E3006D8A031063206D8A0330636C08E
:1011500001F037C002F038C003F039C004F03AC0E3
:1011600005F03BC006F03CC007F03DC008F00A0E99
:10117000096E000E0A6E000E0B6E000E0C6E000E55
:101180000D6E000E0E6E000E0F6E000E106E15EC42
:101190000DF001C036F002C037F003C038F004C0D3
:1011A00039F005C03AF006C03BF007C03CF008C07B
:1011B0003DF03FBEE4EF08F03F5008E13E04D8A008
:1011C000E4EF08F0E6EF08F017EF09F036503710BB
:1011D000381039103A103B103C103D10D8A4F3EFF2
:1011E00008F0F5EF08F05DEF08F031BE02EF09F00E
:1011F000315006E13004D8B000EF09F002EF09F0F9
:101200005DEF08F033BE0DEF09F0335008E1320412
:10121000D8A00DEF09F00FEF09F017EF09F000016A
:10122000E8B315EF09F017EF09F05DEF08F034505F
:101230003510D8A41EEF09F020EF09F028EF09F0CF
:101240000001E8A526EF09F028EF09F046EF09F0C4
:101250003E06D8A03F0634503510D8A432EF09F02E
:1012600034EF09F03AEF09F0000E2F6E2B0E2E6EC0
:101270003EEF09F0000E2F6E2D0E2E6EB50E3E24A1
:10128000D96E020E3F20DA6E2EC0DFFF1CC011F0B7
:101290001DC012F0B50E3E24136E020E3F20146ED8
:1012A00032C015F033C016F0D7EC0FF011C01CF0AF
:1012B00012C01DF012000001E7BF61EF09F063EFFB
:1012C00009F064EF09F0E893E7BF71EF09F0E75127
:1012D00006E1E605D8B06FEF09F071EF09F077EF9E
:1012E00009F0000E346E010E336E7BEF09F0E6C09C
:1012F00033F0E7C034F0E4C035F0E5C036F0E8A9DB
:1013000084EF09F086EF09F08AEF09F0FE0E35262A
:10131000FF0E36221EC037F01FC038F020C039F053
:1013200021C03AF022C03BF023C03CF024C03DF085
:1013300025C03EF0000E406E1F0E3F6E000E0201F3
:10134000D46F56EF0AF03F06D8A040060F0E3714B0
:10135000416E426A42BEB6EF09F0425009E10A0E00
:10136000415CD8A0B6EF09F0B8EF09F0C0EF09F082
:10137000570E4124416E000E4220426EC6EF09F026
:10138000300E4124416E000E4220426EBF0E276E89
:10139000FF0E286E2650296E2A6A275029262850CB
:1013A0002A222A500AE11A0E295CD8A0DAEF09F0A5
:1013B000DDEF09F0010EDEEF09F0000E2F6E306A4E
:1013C0002F503010D8B4E7EF09F0E9EF09F019EF2A
:1013D0000AF09F0E276EFF0E286E200E4110296E18
:1013E000000E42102A6E2750292628502A222A5001
:1013F0000AE11A0E295CD8A000EF0AF003EF0AF008
:10140000010E04EF0AF0000E316E326A31503210D4
:10141000D8B40DEF0AF00FEF0AF019EF0AF041C04F
:1014200007F042C008F0BBEC11F007C041F008C063
:1014300042F0B50E3F24D96E020E4020DA6E41C054
:10144000DFFF3306D8A034063506D8A0360637C0ED
:1014500027F038C028F039C029F03AC02AF03BC044
:101460002BF03CC02CF03DC02DF03EC02EF0050E00
:1014700043EF0AF0D8902E322D322C322B322A3202
:10148000293228322732E82E3AEF0AF027C037F007
:1014900028C038F029C039F02AC03AF02BC03BF000
:1014A0002CC03CF02DC03DF02EC03EF040BE62EF9F
:1014B0000AF0405009E1020E3F5CD8A062EF0AF04A
:1014C00064EF0AF095EF0AF03750381039103A10EF
:1014D0003B103C103D103E10D8A471EF0AF073EFA2
:1014E0000AF0A3EF09F034BE80EF0AF0345006E1B1
:1014F0003304D8B07EEF0AF080EF0AF0A3EF09F0D2
:1015000036BE8BEF0AF0365008E13504D8A08BEFD9
:101510000AF08DEF0AF095EF0AF00001E8B393EFBF
:101520000AF095EF0AF0A3EF09F00001E8A99BEF9C
:101530000AF09DEF0AF0B3EF0AF03F06D8A040068C
:10154000B50E3F24D96E020E4020DA6E26C0DFFFB2
:101550003F06D8A04006B50E3F24D96E020E4020AB
:10156000DA6E300EDF6E1CC011F01DC012F0B50E29
:101570003F24136E020E4020146E35C015F036C0A5
:1015800016F0D7EC0FF011C01CF012C01DF01200C5
:1015900045C0D9FF46C0DAFFDECFF6FFDDCFF7FF4B
:1015A0000800F550250AD8A4D8EF0AF0DAEF0AF0BF
:1015B000F8EF0BF045C0D9FF46C0DAFFDE2A000E77
:1015C000DD22000E0001E56F000EE46FE4C0E8F0DC
:1015D000E5C0E9F0E669E76945C0D9FF46C0DAFF32
:1015E000DECFF6FFDDCFF7FF0800F550640AD8B470
:1015F000FCEF0AF0FEEF0AF010EF0BF045C0D9FF48
:1016000046C0DAFFDECFF6FFDDCFF7FF0800F5506A
:10161000690AD8A40EEF0BF010EF0BF050EF0BF0AF
:1016200045C0D9FF46C0DAFFDE2A000EDD2247C0E2
:10163000D9FF48C0DAFFDFCF49F0020EDE26DFCF48
:101640004AF0000EDD2249C0D9FF4AC0DAFFDECFE2
:101650004DF0DDCF4EF0000E4EBEFF0E4F6E506EC1
:10166000516E526E536E546E43C01CF044C01DF058
:101670004DC01EF04EC01FF04FC020F050C021F0F2
:1016800051C022F052C023F053C024F054C025F0C2
:10169000E9EC07F01CC043F01DC044F013EF0CF060
:1016A00045C0D9FF46C0DAFFDECFF6FFDDCFF7FF3A
:1016B0000800F550780AD8B460EF0BF062EF0BF039
:1016C00074EF0BF045C0D9FF46C0DAFFDECFF6FF5E
:1016D000DDCFF7FF0800F550580AD8A472EF0BF0E1
:1016E00074EF0BF0C2EF0BF045C0D9FF46C0DAFF34
:1016F000DECFF6FFDDCFF7FF0800F5CF5DF045C088
:10170000D9FF46C0DAFFDE2A000EDD2247C0D9FF2E
:1017100048C0DAFFDFCF49F0020EDE26DFCF4AF005
:10172000000EDD2249C0D9FF4AC0DAFFDECF4BF000
:10173000DDCF4CF04BC055F04CC056F0576A586A9C
:10174000596A5A6A5B6A5C6A43C01CF044C01DF067
:1017500055C01EF056C01FF057C020F058C021F0F1
:1017600059C022F05AC023F05BC024F05CC025F0C1
:101770005DC026F05BEC09F01CC043F01DC044F0D6
:1017800013EF0CF045C0D9FF46C0DAFFDECFF6FFFD
:10179000DDCFF7FF0800F550250AD8A4D2EF0BF0F3
:1017A000D4EF0BF0EBEF0BF045C0D9FF46C0DAFFEA
:1017B000DE2A000EDD22000E026E250E016E43C0F1
:1017C00003F044C004F072EC0FF0000E446E010E02
:1017D000436E13EF0CF045C0D9FF46C0DAFFDE2A96
:1017E000000EDD22000E446E000E436E13EF0CF06F
:1017F00045C0D9FF46C0DAFFDECFF6FFDDCFF7FFE9
:101800000800F550016E026A43C003F044C004F0C2
:1018100072EC0FF045C0D9FF46C0DAFFDE2A000E99
:10182000DD22E5EF0BF01200000E926E80908092A8
:10183000809480968098949CAC9CAC8AAC98AC9434
:10184000B896AB8E0C0EAF6E720ED36E0F0EC16ECD
:1018500027EC14F0A1EC14F0000E026E0A0E016EDB
:101860009DEC12F0AEEC14F00001F3BF43EF0CF06E
:10187000F35107E1180EF25DD8B041EF0CF043EFE1
:101880000CF051EF0CF0F3BF51EF0CF0F35107E106
:10189000070EF25DD8B04FEF0CF051EF0CF0CBEF2C
:1018A0000CF065EC14F03EEC14F019EC12F00001B1
:1018B000FC6F19EC12F00001FD6F19EC12F0000141
:1018C000FA6F19EC12F00001FB6F00EC0FF023EE41
:1018D00026F010EEBAF0230EDBCFE3FFE806FCE2C1
:1018E000000E0001DF6F000EDE6FACA27AEF0CF08D
:1018F0007CEF0CF075EF0CF0BA0E0001DE25D96E0E
:10190000000EDF21DA6EDF50AD6EDE4BDF2BDFBF66
:1019100093EF0CF0DF5109E1230EDE5DD8A093EFC9
:101920000CF095EF0CF075EF0CF0030E026EE80E64
:10193000016E9DEC12F0A3EF0CF02CEC04F000EC27
:101940000FF095EF0CF00001F851F911D8B4ABEF9E
:101950000CF0ADEF0CF09DEF0CF056EC06F0030E22
:10196000026EE80E016E9DEC12F0000E0001F96FA0
:10197000000EF86F000E0101A86F000EA76F28EC93
:1019800011F08BEC11F0070E026ED00E016E9DEC83
:1019900012F00BEF0DF0000E0A6E010E0B6E080E2A
:1019A0000C6E000E4BEC13F0000E0A6E1D0E0B6E4B
:1019B000080E0C6E010E4BEC13F023EE00F010EE4F
:1019C00094F0250EDBCFE3FFE806FCE2000E0001F9
:1019D000E16F000EE06FACA2F0EF0CF0F2EF0CF054
:1019E000EBEF0CF0940E0001E025D96E000EE12122
:1019F000DA6EDF50AD6EE04BE12BE1BF09EF0DF089
:101A0000E15109E1250EE05DD8A009EF0DF00BEFE3
:101A10000DF0EBEF0CF0070E026ED00E016E9DEC98
:101A200012F028EF0CF000EF00F0000E126E10BE66
:101A30001EEF0DF01CEF0DF030EF0DF0101E0F1E1D
:101A40000E1E0D1E0C1E0B1E0A1E096C000E0A2215
:101A50000B220C220D220E220F221022010E126EDA
:101A600008BE37EF0DF035EF0DF049EF0DF0081E11
:101A7000071E061E051E041E031E021E016C000E1C
:101A80000222032204220522062207220822010E36
:101A9000121A20EE13F0070EDE6AE806FDE2095086
:101AA0000A100B100C100D100E100F101010D8B4DF
:101AB0005CEF0DF05EEF0DF0B0EF0DF0010E116E6A
:101AC0006CEF0DF0D89009360A360B360C360D3611
:101AD0000E360F361036112A10AE71EF0DF073EF7F
:101AE0000DF062EF0DF0D890133614361536163619
:101AF0001736183619361A360950015C0A50025842
:101B00000B5003580C5004580D5005580E500658F1
:101B10000F50075810500858D8A091EF0DF093EFD0
:101B20000DF0A4EF0DF00950015E0A50025A0B505F
:101B3000035A0C50045A0D50055A0E50065A0F50B5
:101B4000075A1050085A1380D89010320F320E32B4
:101B50000D320C320B320A320932112E73EF0DF0B6
:101B60001250D8B4B6EF0DF0B8EF0DF0C8EF0DF08D
:101B70001A1E191E181E171E161E151E141E136C73
:101B8000000E1422152216221722182219221A22B8
:101B900013C001F014C002F015C003F016C004F029
:101BA00017C005F018C006F019C007F01AC008F0F9
:101BB0001200000E126E08BEE2EF0DF0E0EF0DF025
:101BC000F4EF0DF0081E071E061E051E041E031E60
:101BD000021E016C000E02220322042205220622AC
:101BE00007220822010E126E10BEFBEF0DF0F9EF76
:101BF0000DF00BEF0EF0101E0F1E0E1E0D1E0C1E14
:101C00000B1E0A1E096C000E0A220B220C220D224A
:101C10000E220F22102209500A100B100C100D106A
:101C20000E100F101010D8B418EF0EF01AEF0EF0BF
:101C300062EF0EF0010E116E28EF0EF0D89009360B
:101C40000A360B360C360D360E360F361036112A84
:101C500010AE2DEF0EF02FEF0EF01EEF0EF009502C
:101C6000015C0A5002580B5003580C5004580D5098
:101C700005580E5006580F50075810500858D8A055
:101C800044EF0EF046EF0EF056EF0EF00950015EF5
:101C90000A50025A0B50035A0C50045A0D50055A60
:101CA0000E50065A0F50075A1050085AD89010324A
:101CB0000F320E320D320C320B320A320932112E33
:101CC0002FEF0EF01250D8B468EF0EF06AEF0EF05E
:101CD0007AEF0EF0081E071E061E051E041E031EC8
:101CE000021E016C000E022203220422052206229B
:101CF0000722082201C001F002C002F003C003F075
:101D000004C004F005C005F006C006F007C007F0E7
:101D100008C008F012001F6EEA0E086E010E096E70
:101D2000050EC2EC12F01FC020F0216A21BEA4EF04
:101D30000EF0215007E11E0E205CD8B0A2EF0EF08D
:101D4000A4EF0EF0A9EF0EF0828A8298809AFFEF3E
:101D50000EF021BEB5EF0EF0215009E11E0E205C01
:101D6000D8A0B5EF0EF0B7EF0EF0FCEF0EF021BEED
:101D7000C5EF0EF0215007E1240E205CD8B0C3EF70
:101D80000EF0C5EF0EF0FCEF0EF0829A8288809A7A
:101D9000CF0E93EC14F0050E85EC14F022EE93F0C8
:101DA00010EE0CF0120EDBCFE3FFE806FCE2000EB3
:101DB000236E000E226EACA2E0EF0EF0E2EF0EF00A
:101DC000DBEF0EF00C0E2224D96E000E2320DA6E0B
:101DD000DF50AD6E224A232A23BEF8EF0EF02350C7
:101DE00009E1130E225CD8A0F8EF0EF0FAEF0EF026
:101DF000DBEF0EF0FFEF0EF0829A8298808A1200DD
:101E0000D10E0001666F010E676F2E0E686F080E0F
:101E1000696FFCC06AF06B6B74EC12F0090E0A6E0D
:101E2000D10E0B6E010E0C6E000E4BEC13F0D10EAA
:101E30000001666F010E676F240E686F080E696FF0
:101E4000FDC06AF06B6B74EC12F0D10E086E010EDF
:101E5000096EEAEC11F0250E85EC14F0D10E0001AC
:101E6000666F010E676F2E0E686F080E696FFAC0FD
:101E70006AF06B6B74EC12F0000E0A6ED10E0B6EF2
:101E8000010E0C6E000E4BEC13F0D10E0001666FCC
:101E9000010E676F2D0E686F080E696FFBC06AF048
:101EA0006B6B74EC12F0D10E086E010E096EEAEC49
:101EB00011F0DF0E85EC14F0430E85EC14F0060EE5
:101EC0000A6E550E0B6E080E0C6E000E4BEC13F0E6
:101ED0000F0E0A6E530E0B6E080E0C6E000E4BECBE
:101EE00013F0120003500410D8B479EF0FF07BEF19
:101EF0000FF084EF0FF003500410D8A482EF0FF01E
:101F000084EF0FF089EF0FF00150E2EC14F0D6EF00
:101F10000FF020EE04F00350D9260450DA22DE50F0
:101F2000DE10D8B496EF0FF098EF0FF0B3EF0FF08C
:101F300020EE04F00350D9260450DA2210EE02F00D
:101F40000350E1260450E222DE50E65CE650800AAF
:101F5000096EDE50800A0958D8B0B1EF0FF0B3EF28
:101F60000FF0D6EF0FF020EE02F00350D926045008
:101F7000DA22DECF05F0DDCF06F003C0D9FF04C0C2
:101F8000DAFFDECF07F0DDCF08F005500724D96E69
:101F900006500820DA6E01C0DFFF20EE02F0035089
:101FA000D9260450DA22DE2A000EDD2212000001BA
:101FB000E8A1DDEF0FF0DFEF0FF0E9EF0FF013C056
:101FC0000AF014C00BF011C00CF012C00DF009ECB7
:101FD00013F016BEEEEF0FF0F0EF0FF0F6EF0FF08C
:101FE00015C01AF016C01BF0FAEF0FF0000E1B6EB2
:101FF000000E1A6E000E196E000E186E0CEF10F027
:10200000000E026E200E016E11C003F012C004F02B
:1020100072EC0FF0184A192A1A50185C1950800AED
:10202000176E1B50800A1758D8A019EF10F01BEF3D
:1020300010F000EF10F00001E8B121EF10F023EFF5
:1020400010F02DEF10F013C00AF014C00BF011C007
:102050000CF012C00DF009EC13F013C001F014C025
:1020600002F0DEEC13F01A500124116E1B50022016
:10207000126E1200536520656E63656E64696F2091
:102080006C6120626F6D62696C6C6120330D00536E
:102090006520656E63656E64696F206C6120626F98
:1020A0006D62696C6C6120320D00536520656E6352
:1020B000656E64696F206C6120626F6D62696C6C23
:1020C0006120310D0052656769737472616E646FCF
:1020D00020486F726120792046656368610D004277
:1020E0006F6D62696C6C61732041706167616461DE
:1020F00073200D0054656D70657261747572612096
:10210000416C7461200D0054656D70657261747569
:10211000726120496465616C0D0041706167616E98
:09212000646F204C4544530D008E
:10212A00D00EF66E210EF76E000EF86E03EE00F07A
:10213A0010EE80F00900F5CFEEFFE550E150FAE12C
:10214A00740EF66E200EF76E000EF86E02EE00F0B8
:10215A0010EEB5F00900F5CFEEFFE550E150FAE1D7
:10216A00EA0EF66E280EF76E000EF86E01EEDBF040
:10217A0010EE1FF00900F5CFEEFFE550E150FAE14D
:10218A00C20EF66E290EF76E000EF86E0900F5CF34
:10219A00FEF00900F5CFFFF002EEB5F0340EEE6A5C
:1021AA00E806FDE101EEA7F0340EEE6AE806FDE16D
:1021BA0000EEE2F01C0EEE6AE806FDE1000EF86E93
:1021CA00000114EF0CF04C6120686F7261206E6F91
:1021DA00637475726E6120656D7069657A612061DC
:1021EA00206C61732031383A30300D004E6F207305
:1021FA0065206861207072656E6469646F206E691B
:10220A006E67756E6120626F6D62696C6C610D003C
:10221A00536520656E63656E64696F206C61206228
:10222A006F6D62696C6C6120350D00536520656EB7
:10223A0063656E64696F206C6120626F6D62696CA0
:10224A006C6120340D0080908092809480968098F2
:10225A0022EE6BF010EE01F0140EDBCFE3FFE8067E
:10226A00FCE2000E176E000E166EACA23FEF11F0E4
:10227A0041EF11F03AEF11F0010E1624D96E000E5B
:10228A001720DA6EDF50AD6E164A172A17BE57EFBF
:10229A0011F0175009E1140E165CD8A057EF11F08F
:1022AA0059EF11F03AEF11F0120062C05EF063C00C
:1022BA005FF0000E0001E36F000EE26F78EF11F09D
:1022CA0060C043F061C044F05E0E456E000E466E7B
:1022DA0064C047F065C048F0C8EC0AF043500001FA
:1022EA00E2274450E3235EC0F6FF5FC0F7FF080011
:1022FA00F5500009D8A484EF11F086EF11F065EFCC
:10230A0011F0E2C060F0E3C061F01200829A829894
:10231A00809A22EEA6F010EE01F00E0EDBCFE3FF5C
:10232A00E806FCE2000E116E000E106EACA2A0EFE1
:10233A0011F0A2EF11F09BEF11F0010E1024D96EEB
:10234A00000E1120DA6EDF50AD6E104A112A11BE4E
:10235A00B8EF11F0115009E10F0E105CD8A0B8EFD8
:10236A0011F0BAEF11F09BEF11F012009F0E096EF7
:10237A00FF0E0A6E07C00BF008C00CF009500B26BE
:10238A000A500C220C500AE11A0E0B5CD8A0D0EFAE
:10239A0011F0D3EF11F0010ED4EF11F0000E0D6E13
:1023AA000E6A0D500E10D8B4DDEF11F0DFEF11F008
:1023BA00E5EF11F05F0E0714076E086AE9EF11F0F6
:1023CA0007C007F008C008F0120000EF12F008C0BA
:1023DA00F6FF09C0F7FFF86A070EF76403D0080092
:1023EA00F55005D0F6CFE1FFF7CFE2FFE75085ECD5
:1023FA0014F0084A092A08C0F6FF09C0F7FFF86A6C
:10240A00070EF76403D00800F55005D0F6CFE1FFB8
:10241A00F7CFE2FFE7500009D8A416EF12F018EF41
:10242A0012F0ECEF11F01200000E026E000E016EB7
:10243A0082A422EF12F024EF12F01DEF12F0140E14
:10244A00E82EFED782A42CEF12F02EEF12F032EF14
:10245A0012F0D880023635EF12F002500224026ED2
:10246A0082B43AEF12F03CEF12F035EF12F0012A83
:10247A00070E016443EF12F045EF12F01DEF12F060
:10248A0002501200046ED00EF9EC13F0045054EC12
:10249A0014F0D10E10EC14F0000E89EC13F0036E58
:1024AA0003500001F06FF16B000E89EC13F0036E1C
:1024BA0003500001EE6FEF6B000E89EC13F0036E10
:1024CA0003500001EC6FED6B010E89EC13F0036E03
:1024DA0003500001EA6FEB6BBAEC14F012006A0EBB
:1024EA0000016E6F000E6F6F66C070F067C071F00A
:1024FA00000E736F000E726F000E756F000E746F10
:10250A00700E606F000E616F68C062F069C063F0A0
:10251A006E0E646F000E656F5AEC11F00001725175
:10252A006625D96E73516721DA6E000EDF6E1200CE
:10253A00000E046E000E036EB6EF12F0000E066E69
:10254A00000E056E054A062A065009E1510E055C81
:10255A00D8A0B2EF12F0B4EF12F0A7EF12F0034ACC
:10256A00042A0350015C04500258D8B0BFEF12F09D
:10257A00C1EF12F0A3EF12F012000A6E080E0A6001
:10258A00C9EF12F0CBEF12F0E5EF12F00A50080D86
:10259A00F350400F93EC14F0000E0B6E0B5008240E
:1025AA00D96E000E0920DA6EDF5085EC14F00B2A82
:1025BA00070E0B64E3EF12F0E5EF12F0D3EF12F01F
:1025CA001200046ED00EF9EC13F0045054EC14F01F
:1025DA00D10E10EC14F0000E89EC13F0036E0350C8
:1025EA000001F66FF76B000E89EC13F0036E0350CF
:1025FA000001F46FF56B010E89EC13F0036E0350C2
:10260A000001F26FF36B1200000E106E000E0F6ED7
:10261A001AEF13F00EC001F0026A0CC003F00DC0ED
:10262A0004F072EC0FF00F4A102A0F500A24D96EE8
:10263A0010500B20DA6EDF500E6E0E50D8A428EF21
:10264A0013F02AEF13F00FEF13F0120014BE38EF55
:10265A0013F0145006E11304D8B036EF13F038EF34
:10266A0013F046EF13F013C015F014C016F0151E40
:10267A00161E154A162A15C013F016C014F04AEF92
:10268A0013F013C013F014C014F012000D6E0D50A5
:10269A00D8A452EF13F054EF13F05DEF13F00A5081
:1026AA000F0B80090E6E0E5093EC14F064EF13F0CA
:1026BA000A500F0BC0090E6E0E5093EC14F00BC0AB
:1026CA0008F00CC009F0EAEC11F012009F0E036E3C
:1026DA00FF0E046E200E0110056E000E0210066E2B
:1026EA00035005260450062206500AE11A0E055C1C
:1026FA00D8A082EF13F085EF13F0010E86EF13F0E6
:10270A00000E016E026A1200016EC586C7A090EF24
:10271A0013F092EF13F08BEF13F0C9CF02F00150D0
:10272A00D8A49AEF13F09CEF13F0A0EF13F0CEECBD
:10273A0014F0A2EF13F0C4EC14F0D8EC14F0025029
:10274A0012009F0E036EFF0E046E01C005F002C058
:10275A0006F0035005260450062206500AE11A0E16
:10276A00055CD8A0BBEF13F0BEEF13F0010EBFEF6C
:10277A0013F0000E016E026A1200BF0E036EFF0E06
:10278A00046E01C005F002C006F00350052604508D
:10279A00062206500AE11A0E055CD8A0D7EF13F0FC
:1027AA00DAEF13F0010EDBEF13F0000E016E026A8E
:1027BA00120001C003F002C004F0E6EF13F0014A70
:1027CA00022A01C0D9FF02C0DAFFDF50D8A4F0EF15
:1027DA0013F0F2EF13F0E4EF13F00350015C016E13
:1027EA0004500258026E1200026EC580C5B000EF96
:1027FA0014F002EF14F0FBEF13F09E96C7B608EF41
:10280A0014F00AEF14F00CEF14F00FEF14F002506A
:10281A0054EC14F01200026EC582C5B217EF14F020
:10282A0019EF14F012EF14F09E96C7B61FEF14F0CA
:10283A0021EF14F023EF14F026EF14F0025054ECB9
:10284A0014F01200000E956E000E946E000E026EC9
:10285A00140E016E9DEC12F0380E93EC14F00C0E6F
:10286A0093EC14F0060E93EC14F0010E93EC14F0B2
:10287A00120082B443EF14F045EF14F03EEF14F067
:10288A0082A44AEF14F04CEF14F045EF14F082B42E
:10289A0051EF14F053EF14F04CEF14F01200016EE4
:1028AA0001C0C9FFD8EC14F0C5AC5EEF14F060EFBC
:1028BA0014F063EF14F0010E64EF14F0020E12002C
:1028CA0094948B942F0E016EC00EE82EFED7012E23
:1028DA00FCD78B840D0EE82EFED700F094841200EC
:1028EA00534D5457744673001B1B000E1111000000
:0F28FA001B1B0011110E000E1111110E0E00000C
:10290A00076E07C08CFF8B808B8200F08B92000EC3
:10291A00026E010E016E9DEC12F01200076E07C0E6
:10292A008CFF8B908B8200F08B92000E026E030E4E
:10293A00016E9DEC12F0120093809382500EC76EC6
:10294A00280EC66E000EC56E130EC86E9D869E9624
:10295A001200000EE6EC12F0BAEC14F0030E026E4E
:10296A00E80E016E9DEC12F01200C584C5B4C0EFEA
:10297A0014F0C2EF14F0BBEF14F0C7501200C58A6E
:10298A00C588C5B8CBEF14F0CDEF14F0C6EF14F03C
:10299A001200C59AC588C5B8D5EF14F0D7EF14F060
:1029AA00D0EF14F012009EA6DDEF14F0DFEF14F062
:0C29BA00D8EF14F09E96120005061200E3
:020000040020DA
:08000000FFFFFFFFFFFFFFFF00
:020000040030CA
:0E00000000091F1EFF0081FF0FC00FE00F4020
:00000001FF
