:020000040000FA
:040000008BEF10F082
:10080000004552524F5220484F5241200043616CE4
:100810002025782D0054696D3A25783A00444955D1
:10082000524E41004F4E20422E002E2564200025BE
:100830007820002E256400576564005475650046D5
:100840007269004D6F6E0053756E005361740054F1
:10085000687500414D00504D0031003200330034C6
:1008600000350048005400000001FA51FCEC0EF085
:100870001E0E0001FA613FEF04F041EF04F096EF25
:1008800004F00101A851A911D8A449EF04F04BEFDD
:1008900004F096EF04F0808022EE36F011EE00F0C6
:1008A0001A0EDBCFE3FFE806FCE2000E9B6F000EA2
:1008B0009A6FACA25EEF04F060EF04F059EF04F021
:1008C000000E01019A25D96E010E9B21DA6EDF50D0
:1008D000AD6E9A4B9B2B9BBF77EF04F09B5109E1C8
:1008E0001B0E9A5DD8A077EF04F079EF04F059EF72
:1008F00004F0000E0A6E240E0B6E080E0C6E010E34
:1009000070EC13F0060E0A6E590E0B6E080E0C6E8C
:10091000010E70EC13F00001FA51060FFA6F000E91
:100920000101A96F060EA86F32EF06F01E0E00013E
:10093000FA619DEF04F09FEF04F0ECEF04F0060E77
:100940000101A819A911D8A4A8EF04F0AAEF04F096
:10095000ECEF04F0808222EE1BF011EE1BF01A0E79
:10096000DBCFE3FFE806FCE2000E9D6F000E9C6FFC
:10097000ACA2BDEF04F0BFEF04F0B8EF04F01B0E23
:1009800001019C25D96E010E9D21DA6EDF50AD6EFE
:100990009C4B9D2B9DBFD6EF04F09D5109E11B0E92
:1009A0009C5DD8A0D6EF04F0D8EF04F0B8EF04F0C7
:1009B000080E0A6E5B0E0B6E080E0C6E010E70ECCC
:1009C00013F00001FA51060FFA6F000E0101A96F32
:1009D0000C0EA86F32EF06F01E0E0001FA61F3EF65
:1009E00004F0F5EF04F042EF05F00C0E0101A81938
:1009F000A911D8A4FEEF04F000EF05F042EF05F0D6
:100A0000808422EE00F011EE36F01A0EDBCFE3FF09
:100A1000E806FCE2000E9F6F000E9E6FACA213EF83
:100A200005F015EF05F00EEF05F0360E01019E25DD
:100A3000D96E010E9F21DA6EDF50AD6E9E4B9F2B5B
:100A40009FBF2CEF05F09F5109E11B0E9E5DD8A0C2
:100A50002CEF05F02EEF05F00EEF05F00A0E0A6EF2
:100A60005D0E0B6E080E0C6E010E70EC13F00001A3
:100A7000FA51060FFA6F000E0101A96F120EA86F4E
:100A800032EF06F01E0E0001FA6149EF05F04BEF60
:100A900005F099EF05F0120E0101A819A911D8A4CB
:100AA00054EF05F056EF05F099EF05F080860C0E37
:100AB0000A6E5F0E0B6E080E0C6E010E70EC13F0DA
:100AC00023EE65F011EE51F01A0EDBCFE3FFE806DE
:100AD000FCE2000E0101A16F000EA06FACA273EF4B
:100AE00005F075EF05F06EEF05F0510E0101A02540
:100AF000D96E010EA121DA6EDF50AD6EA04BA12B95
:100B0000A1BF8CEF05F0A15109E11B0EA05DD8A09B
:100B10008CEF05F08EEF05F06EEF05F00001FA5155
:100B2000060FFA6F000E0101A96F180EA86F32EFC1
:100B300006F01E0E0001FA61A0EF05F0A2EF05F02D
:100B4000EBEF05F0180E0101A819A911D8A4ABEF1D
:100B500005F0ADEF05F0EBEF05F080880E0E0A6EA4
:100B6000610E0B6E080E0C6E010E70EC13F023EE8E
:100B70004AF011EE6CF01A0EDBCFE3FFE806FCE260
:100B8000000E0101A36F000EA26FACA2CAEF05F028
:100B9000CCEF05F0C5EF05F06C0E0101A225D96E72
:100BA000010EA321DA6EDF50AD6EA24BA32BA3BFC3
:100BB000E3EF05F0A35109E11B0EA25DD8A0E3EF1E
:100BC00005F0E5EF05F0C5EF05F00001FA51060F5D
:100BD000FA6F32EF06F0230E0001FA65F2EF05F02E
:100BE000F4EF05F02EEF06F0000EF76F010EF66F32
:100BF00022EE80F011EE87F0120EDBCFE3FFE80665
:100C0000FCE2000E0101A56F000EA46FACA20BEF79
:100C100006F00DEF06F006EF06F0870E0101A425A1
:100C2000D96E010EA521DA6EDF50AD6EA44BA52B57
:100C3000A5BF24EF06F0A55109E1130EA45DD8A0CD
:100C400024EF06F026EF06F006EF06F0000E026E27
:100C5000640E016EC2EC12F032EF06F0000EF76F78
:100C6000010EF66F030E026EE80E016EC2EC12F07A
:100C700012004CEC14F0000E0BEC13F0D7EC14F057
:100C8000030E026EE80E016EC2EC12F00001F0AD30
:100C90004CEF06F04EEF06F0B1EF06F0F0AB53EF7D
:100CA00006F055EF06F060EF06F00E0E0A6E560ED7
:100CB0000B6E080E0C6E010E70EC13F069EF06F06F
:100CC0000E0E0A6E530E0B6E080E0C6E010E70ECBB
:100CD00013F01F0E0001F015F06FF16BBE0E666F82
:100CE000010E676F2F0E686F080E696FF4C06AF00F
:100CF000F5C06BF099EC12F0B40E0001666F010EB6
:100D0000676F190E686F080E696FF2C06AF0F3C062
:100D10006BF099EC12F0AA0E0001666F010E676F7E
:100D2000150E686F080E696FF0C06AF0F1C06BF0C5
:100D300099EC12F0000E0A6EAA0E0B6E010E0C6EEC
:100D4000000E70EC13F0B40E086E010E096E0FEC7D
:100D500012F0BE0E086E010E096E0FEC12F0ECEFF1
:100D600006F03F0EF015F06FF16BBE0E666F010ED0
:100D7000676F2F0E686F080E696FF4C06AF0F5C0D8
:100D80006BF099EC12F0B40E0001666F010E676F04
:100D9000190E686F080E696FF2C06AF0F3C06BF04D
:100DA00099EC12F0AA0E0001666F010E676F150E26
:100DB000686F080E696FF0C06AF0F1C06BF099ECD3
:100DC00012F0000E0A6EAA0E0B6E010E0C6E000ED3
:100DD00070EC13F0A3EF06F0030E6CEC12F0D7ECFE
:100DE00014F0F10E0001666F020E676F0D0E686F52
:100DF000080E696FECC06AF0EDC06BF099EC12F070
:100E0000E70E0001666F020E676F110E686F080E25
:100E1000696FEAC06AF0EBC06BF099EC12F0DD0E7E
:100E20000001666F020E676F2F0E686F080E696F04
:100E3000E8C06AF0E9C06BF099EC12F0000E0A6E9F
:100E4000F10E0B6E020E0C6E020E70EC13F0E70E3C
:100E5000086E020E096E0FEC12F0DD0E086E020E27
:100E6000096E0FEC12F06DEF07F0470E086E080EDA
:100E7000096E0FEC12F09DEF07F0430E086E080E9E
:100E8000096E0FEC12F09DEF07F03B0E086E080E96
:100E9000096E0FEC12F09DEF07F0370E086E080E8A
:100EA000096E0FEC12F09DEF07F04F0E086E080E62
:100EB000096E0FEC12F09DEF07F03F0E086E080E62
:100EC000096E0FEC12F09DEF07F04B0E086E080E46
:100ED000096E0FEC12F09DEF07F0D20E0001EE2527
:100EE000D96E010EEF21DA6EDF50766F776B775196
:100EF000000AD8B47EEF07F09DEF07F07651460A5E
:100F0000D8B45DEF07F00B0AD8B43DEF07F01E0A26
:100F1000D8B435EF07F0070AD8B445EF07F0030A55
:100F2000D8B44DEF07F0240AD8B465EF07F0070AEC
:100F3000D8B455EF07F09DEF07F022EE51F010EE18
:100F400078F0190EDBCFE3FFE806FCE2000E0001AB
:100F5000936F000E926FACA2B0EF07F0B2EF07F004
:100F6000ABEF07F0780E00019225D96E000E9321A9
:100F7000DA6EDF50AD6E924B932B93BFC9EF07F043
:100F8000935109E1190E925DD8A0C9EF07F0CBEF9C
:100F900007F0ABEF07F012001EC036F01FC037F0AD
:100FA00020C038F021C039F022C03AF023C03BF015
:100FB00024C03CF025C03DF03DBEE1EF07F0E4EF7A
:100FC00007F0010EE5EF07F0000E346E356A34507D
:100FD0003510D8B4EEEF07F0F0EF07F000EF08F0AF
:100FE0003D1E3C1E3B1E3A1E391E381E371E366CF7
:100FF000000E3722382239223A223B223C223D225F
:101000000001E5BF06EF08F008EF08F009EF08F06F
:10101000E693E5BF16EF08F0E55106E1E405D8B028
:1010200014EF08F016EF08F01CEF08F0000E316E18
:10103000010E306E20EF08F0E4C030F0E5C031F072
:10104000E2C032F0E3C033F034503510D8A42BEFB7
:1010500008F02DEF08F034EF08F0E6A532EF08F0C5
:1010600034EF08F037EF08F03206D8A03306000E50
:101070003F6E1F0E3E6E000E0201DC6FBCEF08F0EB
:101080003E06D8A03F06BD0E3E24D96E020E3F207C
:10109000DA6E36C001F037C002F038C003F039C054
:1010A00004F03AC005F03BC006F03CC007F03DC07C
:1010B00008F00A0E096E000E0A6E000E0B6E000E8E
:1010C0000C6E000E0D6E000E0E6E000E0F6E000EFA
:1010D000106ED8EC0DF001C026F002C027F003C05E
:1010E00028F004C029F005C02AF006C02BF007C084
:1010F0002CF008C02DF026C013F028C014F050ECDE
:1011000013F01350300FDF6E3006D8A031063206D0
:10111000D8A0330636C001F037C002F038C003F063
:1011200039C004F03AC005F03BC006F03CC007F0FF
:101130003DC008F00A0E096E000E0A6E000E0B6E1E
:10114000000E0C6E000E0D6E000E0E6E000E0F6E79
:10115000000E106E14EC0DF001C036F002C037F036
:1011600003C038F004C039F005C03AF006C03BF0C7
:1011700007C03CF008C03DF03FBEC7EF08F03F504D
:1011800008E13E04D8A0C7EF08F0C9EF08F0FAEF75
:1011900008F036503710381039103A103B103C1018
:1011A0003D10D8A4D6EF08F0D8EF08F040EF08F0D3
:1011B00031BEE5EF08F0315006E13004D8B0E3EF7E
:1011C00008F0E5EF08F040EF08F033BEF0EF08F06C
:1011D000335008E13204D8A0F0EF08F0F2EF08F045
:1011E000FAEF08F00001E6B3F8EF08F0FAEF08F0C4
:1011F00040EF08F034503510D8A401EF09F003EFA8
:1012000009F00BEF09F00001E6A509EF09F00BEF7B
:1012100009F029EF09F03E06D8A03F0634503510FA
:10122000D8A415EF09F017EF09F01DEF09F0000E33
:101230002F6E2B0E2E6E21EF09F0000E2F6E2D0E4D
:101240002E6EBD0E3E24D96E020E3F20DA6E2EC0E9
:10125000DFFF1CC011F01DC012F0BD0E3E24136E46
:10126000020E3F20146E32C015F033C016F0C9ECE8
:101270000FF011C01CF012C01DF012000001E5BFFC
:1012800044EF09F046EF09F047EF09F0E693E5BFB8
:1012900054EF09F0E55106E1E405D8B052EF09F04A
:1012A00054EF09F05AEF09F0000E346E010E336E60
:1012B0005EEF09F0E4C033F0E5C034F0E2C035F091
:1012C000E3C036F0E6A967EF09F069EF09F06DEFCA
:1012D00009F0FE0E3526FF0E36221EC037F01FC065
:1012E00038F020C039F021C03AF022C03BF023C0D2
:1012F0003CF024C03DF025C03EF0000E406E1F0EB5
:101300003F6E000E0201DC6F39EF0AF03F06D8A0F5
:1013100040060F0E3714416E426A42BE99EF09F043
:10132000425009E10A0E415CD8A099EF09F09BEF09
:1013300009F0A3EF09F0570E4124416E000E422040
:10134000426EA9EF09F0300E4124416E000E42209A
:10135000426EBF0E276EFF0E286E2650296E2A6A37
:101360002750292628502A222A500AE11A0E295CE1
:10137000D8A0BDEF09F0C0EF09F0010EC1EF09F0F0
:10138000000E2F6E306A2F503010D8B4CAEF09F01B
:10139000CCEF09F0FCEF09F09F0E276EFF0E286ED0
:1013A000200E4110296E000E42102A6E2750292669
:1013B00028502A222A500AE11A0E295CD8A0E3EF0D
:1013C00009F0E6EF09F0010EE7EF09F0000E316ECB
:1013D000326A31503210D8B4F0EF09F0F2EF09F070
:1013E000FCEF09F041C007F042C008F0E0EC11F05A
:1013F00007C041F008C042F0BD0E3F24D96E020E76
:101400004020DA6E41C0DFFF3306D8A0340635062F
:10141000D8A0360637C027F038C028F039C029F0E8
:101420003AC02AF03BC02BF03CC02CF03DC02DF060
:101430003EC02EF0050E26EF0AF0D8902E322D3247
:101440002C322B322A32293228322732E82E1DEF55
:101450000AF027C037F028C038F029C039F02AC078
:101460003AF02BC03BF02CC03CF02DC03DF02EC01C
:101470003EF040BE45EF0AF0405009E1020E3F5CED
:10148000D8A045EF0AF047EF0AF078EF0AF037509E
:10149000381039103A103B103C103D103E10D8A4C3
:1014A00054EF0AF056EF0AF086EF09F034BE63EF0E
:1014B0000AF0345006E13304D8B061EF0AF063EF6C
:1014C0000AF086EF09F036BE6EEF0AF0365008E1FA
:1014D0003504D8A06EEF0AF070EF0AF078EF0AF04A
:1014E0000001E6B376EF0AF078EF0AF086EF09F034
:1014F0000001E6A97EEF0AF080EF0AF096EF0AF00D
:101500003F06D8A04006BD0E3F24D96E020E4020F3
:10151000DA6E26C0DFFF3F06D8A04006BD0E3F248E
:10152000D96E020E4020DA6E300EDF6E1CC011F054
:101530001DC012F0BD0E3F24136E020E4020146E2B
:1015400035C015F036C016F0C9EC0FF011C01CF014
:1015500012C01DF0120045C0D9FF46C0DAFFDECF31
:10156000F6FFDDCFF7FF0800F550250AD8A4BBEF42
:101570000AF0BDEF0AF0DBEF0BF045C0D9FF46C023
:10158000DAFFDE2A000EDD22000E0001E36F000EFE
:10159000E26FE2C0E6F0E3C0E7F0E469E56945C068
:1015A000D9FF46C0DAFFDECFF6FFDDCFF7FF080038
:1015B000F550640AD8B4DFEF0AF0E1EF0AF0F3EF78
:1015C0000AF045C0D9FF46C0DAFFDECFF6FFDDCF17
:1015D000F7FF0800F550690AD8A4F1EF0AF0F3EF1D
:1015E0000AF033EF0BF045C0D9FF46C0DAFFDE2A20
:1015F000000EDD2247C0D9FF48C0DAFFDFCF49F037
:10160000020EDE26DFCF4AF0000EDD2249C0D9FFF0
:101610004AC0DAFFDECF4DF0DDCF4EF0000E4EBEF9
:10162000FF0E4F6E506E516E526E536E546E43C02D
:101630001CF044C01DF04DC01EF04EC01FF04FC046
:1016400020F050C021F051C022F052C023F053C00E
:1016500024F054C025F0CCEC07F01CC043F01DC0B2
:1016600044F0F6EF0BF045C0D9FF46C0DAFFDECFFD
:10167000F6FFDDCFF7FF0800F550780AD8B443EF46
:101680000BF045EF0BF057EF0BF045C0D9FF46C00C
:10169000DAFFDECFF6FFDDCFF7FF0800F550580A7E
:1016A000D8A455EF0BF057EF0BF0A5EF0BF045C0AA
:1016B000D9FF46C0DAFFDECFF6FFDDCFF7FF080027
:1016C000F5CF5DF045C0D9FF46C0DAFFDE2A000E37
:1016D000DD2247C0D9FF48C0DAFFDFCF49F0020E54
:1016E000DE26DFCF4AF0000EDD2249C0D9FF4AC016
:1016F000DAFFDECF4BF0DDCF4CF04BC055F04CC0E5
:1017000056F0576A586A596A5A6A5B6A5C6A43C0FB
:101710001CF044C01DF055C01EF056C01FF057C04D
:1017200020F058C021F059C022F05AC023F05BC00D
:1017300024F05CC025F05DC026F03EEC09F01CC032
:1017400043F01DC044F0F6EF0BF045C0D9FF46C092
:10175000DAFFDECFF6FFDDCFF7FF0800F550250AF0
:10176000D8A4B5EF0BF0B7EF0BF0CEEF0BF045C000
:10177000D9FF46C0DAFFDE2A000EDD22000E026E1F
:10178000250E016E43C003F044C004F064EC0FF07A
:10179000000E446E010E436EF6EF0BF045C0D9FF0C
:1017A00046C0DAFFDE2A000EDD22000E446E000E77
:1017B000436EF6EF0BF045C0D9FF46C0DAFFDECF2F
:1017C000F6FFDDCFF7FF0800F550016E026A43C057
:1017D00003F044C004F064EC0FF045C0D9FF46C0EC
:1017E000DAFFDE2A000EDD22C8EF0BF01200000E39
:1017F000926E80908092809480968098949CAC9C0D
:10180000AC8AAC98AC94B896AB8E0C0EAF6E720EE0
:10181000D36E0F0EC16E4CEC14F0CAEC14F0000E37
:10182000026E0A0E016EC2EC12F0F10E086E010E8D
:10183000096E010EE7EC12F0E90E086E010E096E5A
:10184000010EE7EC12F0E10E086E010E096E010EBA
:10185000E7EC12F0D90E086E010E096E010EE7ECEE
:1018600012F0B1EC11F00001F1BF42EF0CF0F151B8
:1018700007E1130EF05DD8B040EF0CF042EF0CF032
:1018800050EF0CF0F1BF50EF0CF0F15107E1070EF3
:10189000F05DD8B04EEF0CF050EF0CF0CAEF0CF04A
:1018A0009EEC14F063EC14F03EEC12F00001FC6FBF
:1018B0003EEC12F00001FD6F3EEC12F00001FA6FF9
:1018C0003EEC12F00001FB6F8AEC0EF023EE26F0E6
:1018D00010EEBAF0230EDBCFE3FFE806FCE2000EC9
:1018E0000001DF6F000EDE6FACA279EF0CF07BEF32
:1018F0000CF074EF0CF0BA0E0001DE25D96E000E6C
:10190000DF21DA6EDF50AD6EDE4BDF2BDFBF92EFF3
:101910000CF0DF5109E1230EDE5DD8A092EF0CF050
:1019200094EF0CF074EF0CF0030E026EE80E016EF3
:10193000C2EC12F0A2EF0CF034EC04F08AEC0EF0E2
:1019400094EF0CF00001F651F711D8B4AAEF0CF0A7
:10195000ACEF0CF09CEF0CF039EC06F0030E026ECD
:10196000E80E016EC2EC12F0000E0001F76F000EDF
:10197000F66F000E0101A96F000EA86F1EEC11F0AA
:1019800081EC11F0070E026ED00E016EC2EC12F067
:101990000AEF0DF0000E0A6E010E0B6E080E0C6EB3
:1019A000000E70EC13F0000E0A6E1D0E0B6E080E8A
:1019B0000C6E010E70EC13F023EE00F010EE94F0BC
:1019C000250EDBCFE3FFE806FCE2000E0001E16F2D
:1019D000000EE06FACA2EFEF0CF0F1EF0CF0EAEFCD
:1019E0000CF0940E0001E025D96E000EE121DA6EB4
:1019F000DF50AD6EE04BE12BE1BF08EF0DF0E151A0
:101A000009E1250EE05DD8A008EF0DF00AEF0DF01A
:101A1000EAEF0CF0070E026ED00E016EC2EC12F06F
:101A20000BEF0CF000EF00F0000E126E10BE1DEF79
:101A30000DF01BEF0DF02FEF0DF0101E0F1E0E1E00
:101A40000D1E0C1E0B1E0A1E096C000E0A220B2214
:101A50000C220D220E220F221022010E126E08BE41
:101A600036EF0DF034EF0DF048EF0DF0081E071EB5
:101A7000061E051E041E031E021E016C000E02221D
:101A8000032204220522062207220822010E121A2E
:101A900020EE13F0070EDE6AE806FDE209500A1098
:101AA0000B100C100D100E100F101010D8B45BEFAF
:101AB0000DF05DEF0DF0AFEF0DF0010E116E6BEF5D
:101AC0000DF0D89009360A360B360C360D360E3628
:101AD0000F361036112A10AE70EF0DF072EF0DF0C8
:101AE00061EF0DF0D89013361436153616361736CA
:101AF000183619361A360950015C0A5002580B5034
:101B000003580C5004580D5005580E5006580F50ED
:101B1000075810500858D8A090EF0DF092EF0DF034
:101B2000A3EF0DF00950015E0A50025A0B50035A00
:101B30000C50045A0D50055A0E50065A0F50075AB1
:101B40001050085A1380D89010320F320E320D32D6
:101B50000C320B320A320932112E72EF0DF0125094
:101B6000D8B4B5EF0DF0B7EF0DF0C7EF0DF01A1EBA
:101B7000191E181E171E161E151E141E136C000E9D
:101B80001422152216221722182219221A2213C0F3
:101B900001F014C002F015C003F016C004F017C025
:101BA00005F018C006F019C007F01AC008F01200BE
:101BB000000E126E08BEE1EF0DF0DFEF0DF0F3EF57
:101BC0000DF0081E071E061E051E041E031E021E23
:101BD000016C000E022203220422052206220722A3
:101BE0000822010E126E10BEFAEF0DF0F8EF0DF0A4
:101BF0000AEF0EF0101E0F1E0E1E0D1E0C1E0B1EE9
:101C00000A1E096C000E0A220B220C220D220E2243
:101C10000F22102209500A100B100C100D100E107C
:101C20000F101010D8B417EF0EF019EF0EF061EF8F
:101C30000EF0010E116E27EF0EF0D89009360A361D
:101C40000B360C360D360E360F361036112A10AE06
:101C50002CEF0EF02EEF0EF01DEF0EF00950015C90
:101C60000A5002580B5003580C5004580D50055898
:101C70000E5006580F50075810500858D8A043EF80
:101C80000EF045EF0EF055EF0EF00950015E0A50D0
:101C9000025A0B50035A0C50045A0D50055A0E505C
:101CA000065A0F50075A1050085AD89010320F3267
:101CB0000E320D320C320B320A320932112E2EEF57
:101CC0000EF01250D8B467EF0EF069EF0EF079EF16
:101CD0000EF0081E071E061E051E041E031E021E11
:101CE000016C000E02220322042205220622072292
:101CF000082201C001F002C002F003C003F004C0DA
:101D000004F005C005F006C006F007C007F008C0E3
:101D100008F01200C80E0001666F010E676F340EE6
:101D2000686F080E696FFCC06AF06B6B99EC12F07B
:101D3000090E0A6EC80E0B6E010E0C6E000E70ECD2
:101D400013F0C80E0001666F010E676F2A0E686FF0
:101D5000080E696FFDC06AF06B6B99EC12F0C80E4B
:101D6000086E010E096E0FEC12F0250EBCEC14F09B
:101D7000C80E0001666F010E676F340E686F080EA3
:101D8000696FFAC06AF06B6B99EC12F0000E0A6E84
:101D9000C80E0B6E010E0C6E000E70EC13F0C80E28
:101DA0000001666F010E676F330E686F080E696F72
:101DB000FBC06AF06B6B99EC12F0C80E086E010E56
:101DC000096E0FEC12F0DF0EBCEC14F0430EBCEC0D
:101DD00014F00F0E0A6E630E0B6E080E0C6E000EE2
:101DE00070EC13F0060E0A6E650E0B6E080E0C6E8C
:101DF000000E70EC13F01200146E14C015F0166A89
:101E000016BE0EEF0FF0165007E11E0E155CD8B08F
:101E10000CEF0FF00EEF0FF013EF0FF0828A8298A5
:101E2000809A63EF0FF016BE1FEF0FF0165009E116
:101E30001E0E155CD8A01FEF0FF021EF0FF060EF22
:101E40000FF016BE2FEF0FF0165007E1240E155CB1
:101E5000D8B02DEF0FF02FEF0FF060EF0FF0829A58
:101E60008288809A22EE93F010EE01F0120EDBCF02
:101E7000E3FFE806FCE2000E186E000E176EACA23F
:101E800044EF0FF046EF0FF03FEF0FF0010E172475
:101E9000D96E000E1820DA6EDF50AD6E174A182A80
:101EA00018BE5CEF0FF0185009E1130E175CD8A0B4
:101EB0005CEF0FF05EEF0FF03FEF0FF063EF0FF00E
:101EC000829A8298808A120003500410D8B46BEF73
:101ED0000FF06DEF0FF076EF0FF003500410D8A461
:101EE00074EF0FF076EF0FF07BEF0FF00150FFEC87
:101EF00014F0C8EF0FF020EE04F00350D926045080
:101F0000DA22DE50DE10D8B488EF0FF08AEF0FF03F
:101F1000A5EF0FF020EE04F00350D9260450DA228A
:101F200010EE02F00350E1260450E222DE50E65C9F
:101F3000E650800A096EDE50800A0958D8B0A3EF37
:101F40000FF0A5EF0FF0C8EF0FF020EE02F00350F6
:101F5000D9260450DA22DECF05F0DDCF06F003C02B
:101F6000D9FF04C0DAFFDECF07F0DDCF08F005505F
:101F70000724D96E06500820DA6E01C0DFFF20EE7C
:101F800002F00350D9260450DA22DE2A000EDD22A8
:101F900012000001E6A1CFEF0FF0D1EF0FF0DBEF61
:101FA0000FF013C00AF014C00BF011C00CF012C0F7
:101FB0000DF02EEC13F016BEE0EF0FF0E2EF0FF095
:101FC000E8EF0FF015C01AF016C01BF0ECEF0FF0A1
:101FD000000E1B6E000E1A6E000E196E000E186EAB
:101FE000FEEF0FF0000E026E200E016E11C003F026
:101FF00012C004F064EC0FF0184A192A1A50185C49
:102000001950800A176E1B50800A1758D8A00BEF82
:1020100010F00DEF10F0F2EF0FF00001E6B113EF4A
:1020200010F015EF10F01FEF10F013C00AF014C0FD
:102030000BF011C00CF012C00DF02EEC13F013C019
:1020400001F014C002F003EC14F01A500124116ED8
:102050001B500220126E1200536520656E63656E80
:1020600064696F206C6120626F6D62696C6C6120C5
:10207000330D00536520656E63656E64696F206C77
:102080006120626F6D62696C6C6120320D00536576
:1020900020656E63656E64696F206C6120626F6D90
:1020A00062696C6C6120310D0052656769737472EE
:1020B000616E646F20486F726120792046656368A5
:1020C000610D00426F6D62696C6C617320417061DB
:1020D0006761646173200D0054656D706572617491
:1020E00075726120416C7461200D0054656D7065DE
:1020F00072617475726120496465616C0D00417094
:102100006167616E646F204C4544530D000E1111E0
:05211000110E0E00009D
:10211600BC0EF66E210EF76E000EF86E03EE00F0A2
:1021260010EE80F00900F5CFEEFFE550E150FAE140
:10213600580EF66E200EF76E000EF86E02EE00F0E8
:1021460010EEBDF00900F5CFEEFFE550E150FAE1E3
:10215600F20EF66E280EF76E000EF86E01EED2F055
:1021660010EE27F00900F5CFEEFFE550E150FAE159
:10217600FC0EF66E290EF76E000EF86E0900F5CF0E
:10218600FEF00900F5CFFFF002EEBDF03E0EEE6A5E
:10219600E806FDE101EEA6F02C0EEE6AE806FDE18A
:1021A60000EEE2F01C0EEE6AE806FDE1000EF86EA7
:1021B6000001F7EF0BF04C6120686F7261206E6FC3
:1021C600637475726E6120656D7069657A612061F0
:1021D600206C61732031383A30300D004E6F207319
:1021E60065206861207072656E6469646F206E692F
:1021F6006E67756E6120626F6D62696C6C610D0051
:10220600536520656E63656E64696F206C6120623C
:102216006F6D62696C6C6120350D00536520656ECB
:1022260063656E64696F206C6120626F6D62696CB4
:102236006C6120340D008090809280948096809806
:1022460022EE6BF010EE01F0140EDBCFE3FFE80692
:10225600FCE2000E176E000E166EACA235EF11F002
:1022660037EF11F030EF11F0010E1624D96E000E83
:102276001720DA6EDF50AD6E164A172A17BE4DEFDD
:1022860011F0175009E1140E165CD8A04DEF11F0AD
:102296004FEF11F030EF11F0120062C05EF063C034
:1022A6005FF0000E0101A76F000EA66F6EEF11F032
:1022B60060C043F061C044F05E0E456E000E466E8F
:1022C60064C047F065C048F0ABEC0AF0435001012A
:1022D600A6274450A7235EC0F6FF5FC0F7FF08009D
:1022E600F5500009D8A47AEF11F07CEF11F05BEFFE
:1022F60011F0A6C160F0A7C161F01200829A82981F
:10230600809A22EEA6F010EE01F00E0EDBCFE3FF70
:10231600E806FCE2000E116E000E106EACA296EFFF
:1023260011F098EF11F091EF11F0010E1024D96E13
:10233600000E1120DA6EDF50AD6E104A112A11BE62
:10234600AEEF11F0115009E10F0E105CD8A0AEEF00
:1023560011F0B0EF11F091EF11F01200000E0BEC3E
:1023660013F0D7EC14F0030E026EE80E016EC2EC09
:1023760012F00001F0ADC2EF11F0C4EF11F0DFEF83
:1023860011F0F0ABC9EF11F0CBEF11F0D6EF11F071
:102396000E0E0A6E560E0B6E080E0C6E010E70ECCB
:1023A60013F0DFEF11F00E0E0A6E530E0B6E080ED1
:1023B6000C6E010E70EC13F012009F0E096EFF0EEC
:1023C6000A6E07C00BF008C00CF009500B260A5025
:1023D6000C220C500AE11A0E0B5CD8A0F5EF11F096
:1023E600F8EF11F0010EF9EF11F0000E0D6E0E6A06
:1023F6000D500E10D8B402EF12F004EF12F00AEFEF
:1024060012F05F0E0714076E086A0EEF12F007C08F
:1024160007F008C008F0120025EF12F008C0F6FF1A
:1024260009C0F7FFF86A070EF76403D00800F550F5
:1024360005D0F6CFE1FFF7CFE2FFE750BCEC14F092
:10244600084A092A08C0F6FF09C0F7FFF86A070E0E
:10245600F76403D00800F55005D0F6CFE1FFF7CFBB
:10246600E2FFE7500009D8A43BEF12F03DEF12F06F
:1024760011EF12F01200000E026E000E016E82A421
:1024860047EF12F049EF12F042EF12F0140EE82E69
:10249600FED782A451EF12F053EF12F057EF12F06D
:1024A600D88002365AEF12F002500224026E82B42D
:1024B6005FEF12F061EF12F05AEF12F0012A070EE9
:1024C600016468EF12F06AEF12F042EF12F0025068
:1024D6001200046ED00E1EEC14F004508DEC14F0B5
:1024E600D10E35EC14F0000EAEEC13F0036E035073
:1024F6000001EE6FEF6B000EAEEC13F0036E0350AF
:102506000001EC6FED6B000EAEEC13F0036E0350A2
:102516000001EA6FEB6B010EAEEC13F0036E035095
:102526000001E86FE96BD7EC14F012006A0E0001A7
:102536006E6F000E6F6F66C070F067C071F0000EB0
:10254600736F000E726F000E756F000E746F700E53
:10255600606F000E616F68C062F069C063F06E0E56
:10256600646F000E656F50EC11F000017251662524
:10257600D96E73516721DA6E000EDF6E1200000EFF
:10258600046E000E036EDBEF12F0000E066E000EF8
:10259600056E054A062A065009E1510E055CD8A0CB
:1025A600D7EF12F0D9EF12F0CCEF12F0034A042A5B
:1025B6000350015C04500258D8B0E4EF12F0E6EF85
:1025C60012F0C8EF12F012000A6E080E0A60EEEF63
:1025D60012F0F0EF12F00AEF13F00A50080DF35064
:1025E600400FAEEC14F0000E0B6E0B500824D96EA3
:1025F600000E0920DA6EDF50BCEC14F00B2A070E31
:102606000B6408EF13F00AEF13F0F8EF12F0120064
:10261600046ED00E1EEC14F004508DEC14F0D10EA6
:1026260035EC14F0000EAEEC13F0036E035000010F
:10263600F46FF56B000EAEEC13F0036E0350000161
:10264600F26FF36B010EAEEC13F0036E0350000154
:10265600F06FF16B1200000E106E000E0F6E3FEF62
:1026660013F00EC001F0026A0CC003F00DC004F0B6
:1026760064EC0FF00F4A102A0F500A24D96E10503E
:102686000B20DA6EDF500E6E0E50D8A44DEF13F00D
:102696004FEF13F034EF13F0120014BE5DEF13F09A
:1026A600145006E11304D8B05BEF13F05DEF13F09E
:1026B6006BEF13F013C015F014C016F0151E161E9E
:1026C600154A162A15C013F016C014F06FEF13F052
:1026D60013C013F014C014F012000D6E0D50D8A4E0
:1026E60077EF13F079EF13F082EF13F00A500F0B28
:1026F60080090E6E0E50AEEC14F089EF13F00A50FE
:102706000F0BC0090E6E0E50AEEC14F00BC008F0A5
:102716000CC009F00FEC12F012009F0E036EFF0EB4
:10272600046E200E0110056E000E0210066E035098
:1027360005260450062206500AE11A0E055CD8A0AA
:10274600A7EF13F0AAEF13F0010EABEF13F0000E94
:10275600016E026A1200016EC586C7A0B5EF13F0BE
:10276600B7EF13F0B0EF13F0C9CF02F00150D8A4C1
:10277600BFEF13F0C1EF13F0C5EF13F0EBEC14F05D
:10278600C7EF13F0E1EC14F0F5EC14F00250120070
:102796009F0E036EFF0E046E01C005F002C006F028
:1027A600035005260450062206500AE11A0E055C5F
:1027B600D8A0E0EF13F0E3EF13F0010EE4EF13F00F
:1027C600000E016E026A1200BF0E036EFF0E046E4B
:1027D60001C005F002C006F003500526045006228B
:1027E60006500AE11A0E055CD8A0FCEF13F0FFEFC5
:1027F60013F0010E00EF14F0000E016E026A1200D3
:1028060001C003F002C004F00BEF14F0014A022AE3
:1028160001C0D9FF02C0DAFFDF50D8A415EF14F0CB
:1028260017EF14F009EF14F00350015C016E045029
:102836000258026E1200026EC580C5B025EF14F074
:1028460027EF14F020EF14F09E96C7B62DEF14F084
:102856002FEF14F031EF14F034EF14F002508DEC3A
:1028660014F01200026EC582C5B23CEF14F03EEFC2
:1028760014F037EF14F09E96C7B644EF14F046EF07
:1028860014F048EF14F04BEF14F002508DEC14F0F6
:102896001200000E956E000E946E000E026E140E5F
:1028A600016EC2EC12F0380EAEEC14F00C0EAEEC6B
:1028B60014F0060EAEEC14F0010EAEEC14F012009D
:1028C60082B468EF14F06AEF14F063EF14F082A498
:1028D6006FEF14F071EF14F06AEF14F082B476EF34
:1028E60014F078EF14F071EF14F01200534D5457B2
:1028F6007446730E1111110E0E00000E1111110EF9
:102906000E00000E1111110E0E00000E1111110E07
:032916000E0000B0
:10291A00016E01C0C9FFF5EC14F0C5AC97EF14F0D5
:10292A0099EF14F09CEF14F0010E9DEF14F0020ED3
:10293A00120094948B942F0E016EC00EE82EFED7CF
:10294A00012EFCD78B840D0EE82EFED700F094845E
:10295A001200076E07C08CFF8B908B8200F08B925F
:10296A00000E026E030E016EC2EC12F01200076E28
:10297A0007C08CFF8B808B8200F08B92000E026E58
:10298A00010E016EC2EC12F0120093809382500E77
:10299A00C76E280EC66E000EC56E130EC86E9D86D3
:1029AA009E961200C584C5B4DDEF14F0DFEF14F073
:1029BA00D8EF14F0C7501200C58AC588C5B8E8EF29
:1029CA0014F0EAEF14F0E3EF14F01200C59AC58888
:1029DA00C5B8F2EF14F0F4EF14F0EDEF14F01200B2
:1029EA009EA6FAEF14F0FCEF14F0F5EF14F09E96A1
:0629FA00120005061200A8
:020000040020DA
:08000000FFFFFFFFFFFFFFFF00
:020000040030CA
:0E00000000091F1EFF0081FF0FC00FE00F4020
:00000001FF
