:020000040000FA
:04000000E8EF0AF02B
:100800000048756D656461640025642020002E2514
:0D08100064200054656D70002E256400000A
:10081E001EC036F01FC037F020C038F021C039F0AE
:10082E0022C03AF023C03BF024C03CF025C03DF07E
:10083E003DBE24EF04F027EF04F0010E28EF04F084
:10084E00000E346E356A34503510D8B431EF04F0E2
:10085E0033EF04F043EF04F03D1E3C1E3B1E3A1EE8
:10086E00391E381E371E366C000E372238223922BA
:10087E003A223B223C223D22000165BF49EF04F0A3
:10088E004BEF04F04CEF04F05E9265BF59EF04F0AD
:10089E00655106E16405D8B057EF04F059EF04F046
:1008AE005FEF04F0000E316E010E306E63EF04F058
:1008BE0064C030F065C031F062C032F063C033F016
:1008CE0034503510D8A46EEF04F070EF04F077EFCB
:1008DE0004F05EA475EF04F077EF04F07AEF04F005
:1008EE003206D8A03306000E3F6E1F0E3E6E000E6F
:1008FE00856FFEEF04F03E06D8A03F06660E3E243E
:10090E00D96E000E3F20DA6E36C001F037C002F00D
:10091E0038C003F039C004F03AC005F03BC006F011
:10092E003CC007F03DC008F00A0E096E000E0A6EBC
:10093E00000E0B6E000E0C6E000E0D6E000E0E6E87
:10094E00000E0F6E000E106E1CEC07F001C026F0AC
:10095E0002C027F003C028F004C029F005C02AF019
:10096E0006C02BF007C02CF008C02DF026C013F0E7
:10097E0028C014F034EC0AF01350300FDF6E30063E
:10098E00D8A031063206D8A0330636C001F037C0E3
:10099E0002F038C003F039C004F03AC005F03BC095
:1009AE0006F03CC007F03DC008F00A0E096E000EBE
:1009BE000A6E000E0B6E000E0C6E000E0D6E000E0B
:1009CE000E6E000E0F6E000E106E58EC06F001C08B
:1009DE0036F002C037F003C038F004C039F005C05D
:1009EE003AF006C03BF007C03CF008C03DF03FBEF9
:1009FE0009EF05F03F5008E13E04D8A009EF05F0DD
:100A0E000BEF05F03BEF05F036503710381039106C
:100A1E003A103B103C103D10D8A418EF05F01AEF19
:100A2E0005F082EF04F031BE27EF05F0315006E1FC
:100A3E003004D8B025EF05F027EF05F082EF04F073
:100A4E0033BE32EF05F0335008E13204D8A032EF56
:100A5E0005F034EF05F03BEF05F05EB239EF05F02F
:100A6E003BEF05F082EF04F034503510D8A442EF7E
:100A7E0005F044EF05F04BEF05F05EA449EF05F0ED
:100A8E004BEF05F069EF05F03E06D8A03F06345057
:100A9E003510D8A455EF05F057EF05F05DEF05F0D2
:100AAE00000E2F6E2B0E2E6E61EF05F0000E2F6EC8
:100ABE002D0E2E6E660E3E24D96E000E3F20DA6E7F
:100ACE002EC0DFFF1CC011F01DC012F0660E3E24BA
:100ADE00136E000E3F20146E32C015F033C016F0A8
:100AEE00D5EC08F011C01CF012C01DF0120042C06F
:100AFE00D9FF43C0DAFFDECFF6FFDDCFF7FF0800E8
:100B0E00F550250AD8A48EEF05F090EF05F03CEFD6
:100B1E0006F042C0D9FF43C0DAFFDE2A000EDD2206
:100B2E00000E0001636F000E626F62C05EF063C064
:100B3E005FF06469656942C0D9FF43C0DAFFDECF5A
:100B4E00F6FFDDCFF7FF0800F550640AD8B4B2EF18
:100B5E0005F0B4EF05F0C6EF05F042C0D9FF43C073
:100B6E00DAFFDECFF6FFDDCFF7FF0800F550690A9A
:100B7E00D8A4C4EF05F0C6EF05F006EF06F042C0AC
:100B8E00D9FF43C0DAFFDE2A000EDD2244C0D9FFB2
:100B9E0045C0DAFFDFCF46F0020EDE26DFCF47F08C
:100BAE00000EDD2246C0D9FF47C0DAFFDECF48F087
:100BBE00DDCF49F0000E49BEFF0E4A6E4B6E4C6EF5
:100BCE004D6E4E6E4F6E40C01CF041C01DF048C0C1
:100BDE001EF049C01FF04AC020F04BC021F04CC09F
:100BEE0022F04DC023F04EC024F04FC025F00FEC84
:100BFE0004F01CC040F01DC041F057EF06F042C09B
:100C0E00D9FF43C0DAFFDECFF6FFDDCFF7FF0800D6
:100C1E00F550250AD8A416EF06F018EF06F02FEFC0
:100C2E0006F042C0D9FF43C0DAFFDE2A000EDD22F5
:100C3E00000E026E250E016E40C003F041C004F09E
:100C4E0070EC08F0000E416E010E406E57EF06F08C
:100C5E0042C0D9FF43C0DAFFDE2A000EDD22000EAD
:100C6E00416E000E406E57EF06F042C0D9FF43C0F2
:100C7E00DAFFDECFF6FFDDCFF7FF0800F550016E8D
:100C8E00026A40C003F041C004F070EC08F042C0AC
:100C9E00D9FF43C0DAFFDE2A000EDD2229EF06F06F
:100CAE001200000E126E10BE61EF06F05FEF06F03E
:100CBE0073EF06F0101E0F1E0E1E0D1E0C1E0B1EC9
:100CCE000A1E096C000E0A220B220C220D220E2285
:100CDE000F221022010E126E08BE7AEF06F078EF88
:100CEE0006F08CEF06F0081E071E061E051E041EDB
:100CFE00031E021E016C000E022203220422052294
:100D0E00062207220822010E121A20EE13F0070EF9
:100D1E00DE6AE806FDE209500A100B100C100D10E9
:100D2E000E100F101010D8B49FEF06F0A1EF06F0C2
:100D3E00F3EF06F0010E116EAFEF06F0D890093604
:100D4E000A360B360C360D360E360F361036112A85
:100D5E0010AEB4EF06F0B6EF06F0A5EF06F0D890A1
:100D6E0013361436153616361736183619361A3611
:100D7E000950015C0A5002580B5003580C5004588D
:100D8E000D5005580E5006580F5007581050085861
:100D9E00D8A0D4EF06F0D6EF06F0E7EF06F0095034
:100DAE00015E0A50025A0B50035A0C50045A0D5051
:100DBE00055A0E50065A0F50075A1050085A1380F3
:100DCE00D89010320F320E320D320C320B320A32F4
:100DDE000932112EB6EF06F01250D8B4F9EF06F024
:100DEE00FBEF06F00BEF07F01A1E191E181E171E4A
:100DFE00161E151E141E136C000E1422152216221A
:100E0E001722182219221A2213C001F014C002F060
:100E1E0015C003F016C004F017C005F018C006F098
:100E2E0019C007F01AC008F01200000E126E08BEAC
:100E3E0025EF07F023EF07F037EF07F0081E071E28
:100E4E00061E051E041E031E021E016C000E02224B
:100E5E00032204220522062207220822010E126E08
:100E6E0010BE3EEF07F03CEF07F04EEF07F0101EFE
:100E7E000F1E0E1E0D1E0C1E0B1E0A1E096C000EE2
:100E8E000A220B220C220D220E220F2210220950B2
:100E9E000A100B100C100D100E100F101010D8B4ED
:100EAE005BEF07F05DEF07F0A5EF07F0010E116E97
:100EBE006BEF07F0D89009360A360B360C360D3626
:100ECE000E360F361036112A10AE70EF07F072EF95
:100EDE0007F061EF07F00950015C0A5002580B5001
:100EEE0003580C5004580D5005580E5006580F500C
:100EFE00075810500858D8A087EF07F089EF07F071
:100F0E0099EF07F00950015E0A50025A0B50035A2E
:100F1E000C50045A0D50055A0E50065A0F50075ACF
:100F2E001050085AD89010320F320E320D320C3249
:100F3E000B320A320932112E72EF07F01250D8B46A
:100F4E00ABEF07F0ADEF07F0BDEF07F0081E071E81
:100F5E00061E051E041E031E021E016C000E02223A
:100F6E0003220422052206220722082201C001F0D4
:100F7E0002C002F003C003F004C004F005C005F087
:100F8E0006C006F007C007F008C008F01200720E87
:100F9E00D36E8FEC0AF00F0EC16EBCEC0AF0A6EC0D
:100FAE000AF096EC09F000019B6F96EC09F0000137
:100FBE009A6F96EC09F000019D6F96EC09F0000116
:100FCE009C6F96EC09F000019E6F900E586E000E0D
:100FDE00596E190E5A6E080E5B6E9BC05CF05D6A00
:100FEE00C4EC09F0000E0A6E900E0B6E000E0C6E25
:100FFE00000E54EC0AF0900E586E000E596E0E0E46
:10100E005A6E080E5B6E9AC05CF05D6AC4EC09F015
:10101E00900E086E000E096E67EC09F0250ECCECF2
:10102E000AF0900E586E000E596E190E5A6E080E7A
:10103E005B6E9DC05CF05D6AC4EC09F0000E0A6E3A
:10104E00900E0B6E000E0C6E010E54EC0AF0900E0C
:10105E00586E000E596E180E5A6E080E5B6E9CC0BE
:10106E005CF05D6AC4EC09F0900E086E000E096E1D
:10107E0067EC09F0DF0ECCEC0AF0430ECCEC0AF074
:10108E00900E586E000E596E090E5A6E080E5B6E5B
:10109E009EC05CF05D6AC4EC09F0080E0A6E010E8B
:1010AE000B6E080E0C6E000E54EC0AF0080E0A6E53
:1010BE00130E0B6E080E0C6E010E54EC0AF0010EA0
:1010CE00026EF40E016EEDEC09F0D4EF07F000EFB6
:1010DE0000F003500410D8B477EF08F079EF08F061
:1010EE0082EF08F003500410D8A480EF08F082EFCE
:1010FE0008F087EF08F00150F5EC0AF0D4EF08F095
:10110E0020EE04F00350D9260450DA22DE50DE1011
:10111E00D8B494EF08F096EF08F0B1EF08F020EE97
:10112E0004F00350D9260450DA2210EE02F00350D8
:10113E00E1260450E222DE50E65CE650800A096E9B
:10114E00DE50800A0958D8B0AFEF08F0B1EF08F0C2
:10115E00D4EF08F020EE02F00350D9260450DA2224
:10116E00DECF05F0DDCF06F003C0D9FF04C0DAFFF5
:10117E00DECF07F0DDCF08F005500724D96E0650FC
:10118E000820DA6E01C0DFFF20EE02F00350D926F0
:10119E000450DA22DE2A000EDD2212005EA0DAEF03
:1011AE0008F0DCEF08F0E6EF08F013C00AF014C008
:1011BE000BF011C00CF012C00DF012EC0AF016BEBE
:1011CE00EBEF08F0EDEF08F0F3EF08F015C01AF0B2
:1011DE0016C01BF0F7EF08F0000E1B6E000E1A6E15
:1011EE00000E196E000E186E09EF09F0000E026E59
:1011FE00200E016E11C003F012C004F070EC08F066
:10120E00184A192A1A50185C1950800A176E1B506A
:10121E00800A1758D8A016EF09F018EF09F0FDEF65
:10122E0008F05EB01DEF09F01FEF09F029EF09F08D
:10123E0013C00AF014C00BF011C00CF012C00DF068
:10124E0012EC0AF013C001F014C002F074EC0AF0B4
:10125E001A500124116E1B500220126E120052C041
:10126E0056F053C057F0000E0001616F000E606F14
:10127E0054EF09F050C040F051C041F0560E426E8E
:10128E00000E436E54C044F055C045F07EEC05F0A0
:10129E004050000160274150612356C0F6FF57C0F1
:1012AE00F7FF0800F5500009D8A460EF09F062EFCF
:1012BE0009F041EF09F060C050F061C051F012002A
:1012CE007DEF09F008C0F6FF09C0F7FFF86A070EB8
:1012DE00F76403D00800F55005D0F6CFE1FFF7CF45
:1012EE00E2FFE750CCEC0AF0084A092A08C0F6FFE4
:1012FE0009C0F7FFF86A070EF76403D00800F5502F
:10130E0005D0F6CFE1FFF7CFE2FFE7500009D8A4F2
:10131E0093EF09F095EF09F069EF09F01200000E56
:10132E00026E000E016E80A09FEF09F0A1EF09F092
:10133E009AEF09F0140EE82EFED780A0A9EF09F05F
:10134E00ABEF09F0AFEF09F0D8800236B2EF09F03B
:10135E0002500224026E80B0B7EF09F0B9EF09F027
:10136E00B2EF09F0012A070E0164C0EF09F0C2EFD7
:10137E0009F09AEF09F0025012005C0E0001886F1E
:10138E00000E896F58C08AF059C08BF0000E8D6F19
:10139E00000E8C6F000E8F6F000E8E6F8A0E506EC9
:1013AE00000E516E5AC052F05BC053F0880E546E50
:1013BE00000E556E36EC09F000018C515824D96E92
:1013CE008D515920DA6E000EDF6E1200000E046E83
:1013DE00000E036E06EF0AF0000E066E000E056E8E
:1013EE00054A062A065009E1510E055CD8A002EF07
:1013FE000AF004EF0AF0F7EF09F0034A042A03504B
:10140E00015C04500258D8B00FEF0AF011EF0AF049
:10141E00F3EF09F01200000E106E000E0F6E23EFA8
:10142E000AF00EC001F0026A0CC003F00DC004F009
:10143E0070EC08F00F4A102A0F500A24D96E105083
:10144E000B20DA6EDF500E6E0E50D8A431EF0AF07C
:10145E0033EF0AF018EF0AF0120014BE41EF0AF053
:10146E00145006E11304D8B03FEF0AF041EF0AF032
:10147E004FEF0AF013C015F014C016F0151E161E0D
:10148E00154A162A15C013F016C014F053EF0AF0C1
:10149E0013C013F014C014F012000D6E0D50D8A42A
:1014AE005BEF0AF05DEF0AF066EF0AF00A500F0BE1
:1014BE0080090E6E0E50DAEC0AF06DEF0AF00A504B
:1014CE000F0BC0090E6E0E50DAEC0AF00BC008F0CE
:1014DE000CC009F067EC09F0120001C003F002C065
:1014EE0004F07CEF0AF0014A022A01C0D9FF02C0C3
:1014FE00DAFFDF50D8A486EF0AF088EF0AF07AEF11
:10150E000AF00350015C016E04500258026E120084
:10151E00000E956E000E936E000E026E140E016E8E
:10152E00EDEC09F0380EDAEC0AF0010EDAEC0AF006
:10153E000C0EDAEC0AF0060EDAEC0AF0120080B0AD
:10154E00ABEF0AF0ADEF0AF0A6EF0AF080A0B2EF13
:10155E000AF0B4EF0AF0ADEF0AF080B0B9EF0AF07E
:10156E00BBEF0AF0B4EF0AF01200929089902F0EA2
:10157E00016EC00EE82EFED7012EFCD789800D0E0F
:10158E00E82EFED700F092801200076E07C08AFF89
:10159E008C808C8200F08C92000E026E010E016E19
:1015AE00EDEC09F01200076E07C08AFF8C908C825A
:1015BE0000F08C92000E026E030E016EEDEC09F03F
:1015CE00120000EE60F0260EEE6AE806FDE15F6A9C
:0E15DE005E6A000EF86E0001CEEF07F01200FC
:020000040020DA
:08000000FFFFFFFFFFFFFFFF00
:020000040030CA
:0E00000000091F1EFF0081FF0FC00FE00F4020
:00000001FF
